:100000000C9496080C94B5080C94B5080C94B5089B
:100010000C94B5080C94B5080C94B5080C94B5086C
:100020000C94B5080C94B5080C94B5080C94B5085C
:100030000C94B5080C94B5080C94B5080C94F11602
:100040000C943B090C94D60C0C94B5080C94B50890
:100050000C94B5080C94B5080C94B5080C94B5082C
:100060000C94B5080C94B5080C94B5080C94B5081C
:100070000C94B5080C94B5080C94B5080C94B5080C
:100080000C94B5080C94B5080C94B5080C94B508FC
:100090000C94B5083503250316030703F402E202A6
:1000A000D002C002B0029E028D027C026A02580297
:1000B0004602340221021002FF01EC01D901C601FF
:1000C000B3019F018E017C016A0157014601320193
:1000D00020010F01FD00EC00DA00202020536F43C7
:1000E00020446973706C617920202000205573656D
:1000F0002046616872656E68656974200020202062
:100100002042757A7A6572204F6E20202020004EA2
:1001100069676874204272696768746E65737300FA
:100120005265762E2043757272656E742044697331
:100130007000202053746174696F6E617279204D74
:100140006F6465202000456E61626C6520507265A9
:100150006368617267650020506172616C6C656CE8
:1001600020537472696E6773200020204D504F3207
:100170002046756E6374696F6E20200020204D50FC
:100180004F312046756E6374696F6E202000202009
:100190004D50492046756E6374696F6E20200020B3
:1001A000202020536C6565702044656C61792020A7
:1001B000202000416C74204368617267652043759C
:1001C0007272656E7400416C742043686172676579
:1001D00020566F6C74616765004D617820436861DB
:1001E0007267652043757272656E74004D61782088
:1001F00043686172676520566F6C746167650020A3
:1002000020424D53204D61782054656D70202000B0
:100210002020424D53204D696E2054656D70202082
:10022000002020424D5320487973746572657369CC
:10023000732020002042616C616E636520566F6CF4
:1002400074616765200020424D53204D617820562F
:100250006F6C74616765200020424D53204D696EBC
:1002600020566F6C7461676520002054656D7020A6
:10027000476175676520436F6C6420002054656D8D
:100280007020476175676520486F7420004675656A
:100290006C20476175676520456D70747900204654
:1002A00075656C2047617567652046756C6C20002C
:1002B000202020546163686F20505052202020007D
:1002C000204D696E2049736F6C6174696F6E2000F8
:1002D000204D696E2041757820566F6C746167659A
:1002E000200045564D532054656D70205761726E45
:1002F000696E670020202054726970204375727205
:10030000656E7420202000205761726E2043757244
:1003100072656E7420002046756C6C20566F6C748C
:1003200061676520002020536F43205761726E691A
:100330006E67202000205061636B20436170616311
:10034000697479200086037B0373036A0360035A90
:10035000035303537461747573004572726F7200B6
:10036000556E64657274656D70004F766572746564
:100370006D70004C6F7720536F430054656D702093
:1003800067617567650047726F756E6400B603AB91
:1003900003A003950343747220617578207377007E
:1003A00048646C6967687420696E00416C742063EE
:1003B00068617267650057616B652075700006059E
:1003C000F504E104CC04BD04AD049D0489047A0461
:1003D0006A04570446043604260415040504F3038E
:1003E000E2034E6F20636F6D6D7320746F2045566E
:1003F0004D5300424D53202D20436F6D6D7320658A
:1004000072726F7200436F6E746163746F722066F4
:1004100061756C740050726563686172676520660F
:1004200061696C6564004C6F7720313256206261DF
:1004300074746572790049736F6C6174696F6E20B2
:100440006661756C74004F7665722D74656D7065AC
:10045000726174757265004C6F77206261747465A7
:1004600072792063686172676500424D53202D20C8
:10047000556E64657274656D7000424D53202D2079
:100480004F76657274656D700043686172676520B0
:10049000656E64656420627920424D5300424D537D
:1004A000202D20486967682063656C6C005368756F
:1004B00074646F776E20627920424D5300424D5331
:1004C000202D204C6F772063656C6C004F76657231
:1004D00063757272656E742073687574646F776E7D
:1004E000004F76657263757272656E742077617203
:1004F0006E696E6700436F727275707420736574F5
:1005000074696E6773004E6F206572726F72004679
:10051000053A053205290521051B055365747570DB
:100520000053746F70706564004368617267696E30
:10053000670052756E6E696E670050726563686120
:100540007267696E670049646C6500000000000016
:10055000000000000000000000000000000000009B
:100560000000000000000000000000000000000784
:10057000000F800F800F800F800F800700070000A2
:10058000000000070007000700000000000E380E02
:10059000380E380E38063000000000000000000061
:1005A000000000000000000000000000000C300C03
:1005B000300C307FFE7FFE0C300C300C300C307F66
:1005C000FE7FFE0C300C300C3000000000024002B8
:1005D000400FF81FF81A401A401FF00FF802580297
:1005E000581FF81FF0024002400000000000000009
:1005F000000E100E300E7000E001C0038007000EE8
:10060000700C700870000000000000000000000F77
:10061000001980198019800F000F080F9819F81819
:10062000F018E019F00F980000000000000000072B
:1006300000070007000E000000000000000000009E
:1006400000000000000000000000000000000000AA
:10065000F001C0038007000E000E000E000E000720
:1006600000038001C000F000000000000000000F47
:1006700000038001C000E000700070007000700096
:10068000E001C003800F0000000000000000000136
:10069000801188099007E007E03FFC3FFC07E00776
:1006A000E0099011880180000000000000000000B7
:1006B0000000000180018001800FF00FF001800137
:1006C0008001800000000000000000000000000029
:1006D000000000000000000000000000000000001A
:1006E000000700070007000E0000000000000000E7
:1006F0000000000000000000001FF81FF8000000CC
:1007000000000000000000000000000000000000E9
:1007100000000000000000000000000000000000D9
:1007200000070007000700000000000000000000B4
:10073000020006000E001C0038007000E001C0033B
:100740008007000E001C0000000000000000000FE9
:10075000F01C381C781CF81CF81DB81DB81F381F79
:10076000381E381C380FF0000000000000000001A7
:1007700080018003801F801F80038003800380032B
:1007800080038003801FF000000000000000000FC5
:10079000E01C701C380038007000E001C0038007C6
:1007A000000E381C381FF800000000000000000F89
:1007B000E01C701C380038007003C003C0007000DB
:1007C000381C381C700FE000000000000000000022
:1007D000E001E003E006E00CE018E01FF81FF8007D
:1007E000E000E000E003F800000000000000001F4F
:1007F000F81C001C001C001C001FE01FF00078000B
:10080000381C381C700FE0000000000000000003DE
:10081000E007000E001C001C001FF01FF81C381C15
:10082000381C381C380FF000000000000000001FCA
:10083000FC1C1C1C1C1C1C001C0038007000E0016F
:10084000C003800380038000000000000000000F50
:10085000F01C381C381C381F3807E007E01CF81C57
:10086000381C381C380FF000000000000000000F9A
:10087000F01C381C381C381C381FF80FF8003800E2
:1008800038007000E007C000000000000000000019
:100890000000000380038003800000000003800349
:1008A0008003800000000000000000000000000045
:1008B0000000000380038003800000000003800329
:1008C00080038007000000000000000000007000AE
:1008D000E001C0038007000E001C001C000E000792
:1008E00000038001C000E000700000000000000074
:1008F00000000000003FFC3FFC000000003FFC3F08
:10090000FC0000000000000000000000001C000EC1
:10091000000700038001C000E00070007000E001EB
:10092000C0038007000E001C000000000003C00F81
:10093000F01E7818380038007000E001C001C000D7
:1009400000000001C001C001C0000000000FF81C41
:100950001C1C1C1C1C1C1C1CFC1CFC1CFC1CFC1C57
:10096000001C001C001FF007F8000000000000033E
:10097000C007E00E701C381C381C381C381FF81CCF
:10098000381C381C381C3800000000000000001F14
:10099000F00E380E380E380E380FF00FF00E380EFD
:1009A000380E380E381FF00000000000000000076D
:1009B000F00E381C381C001C001C001C001C001C05
:1009C000001C380E3807F000000000000000001F77
:1009D000E00E700E380E380E380E380E380E380E07
:1009E000380E380E701FE000000000000000001FED
:1009F000F80E180E080E000E300FF00FF00E300E2D
:100A0000000E080E181FF800000000000000001F74
:100A1000F80E180E080E000E300FF00FF00E300E0C
:100A2000000E000E001F0000000000000000000784
:100A3000F00E381C381C381C001C001C001CF81C54
:100A4000381C380E3807F800000000000000001CB9
:100A5000701C701C701C701C701FF01FF01C701C30
:100A6000701C701C701C700000000000000000076B
:100A7000F001C001C001C001C001C001C001C0013E
:100A8000C001C001C007F00000000000000000012C
:100A9000FC007000700070007000700070387038DA
:100AA00070387038700FE000000000000000001E79
:100AB000380E380E700EE00FC00F800F800FC00E82
:100AC000E00E700E381E3800000000000000001F0D
:100AD000000E000E000E000E000E000E000E000EA6
:100AE000080E180E381FF800000000000000001C5F
:100AF0001C1E3C1F7C1FFC1FFC1DDC1C9C1C1C1CAA
:100B00001C1C1C1C1C1C1C00000000000000001C05
:100B10001C1C1C1E1C1F1C1F9C1DDC1CFC1C7C1C8C
:100B20003C1C1C1C1C1C1C000000000000000003DE
:100B3000E007F00E381C1C1C1C1C1C1C1C1C1C1C64
:100B40001C0E3807F003E000000000000000001F4A
:100B5000F00E380E380E380E380FF00FF00E000E73
:100B6000000E000E001F0000000000000000000347
:100B7000E00F780E381C1C1C1C1C1C1C1C1C7C1C34
:100B8000FC0FF80FF8003800FC0000000000001F08
:100B9000F00E380E380E380E380FF00FF00E700EC3
:100BA000380E380E381E3800000000000000000F1C
:100BB000F01C381C381C381C000FE007F000381CF3
:100BC000381C381C380FF000000000000000001F27
:100BD000FC19CC11C401C001C001C001C001C00199
:100BE000C001C001C007F000000000000000001CB0
:100BF000701C701C701C701C701C701C701C701C95
:100C0000701C701C700FE000000000000000001C51
:100C1000701C701C701C701C701C701C701C701C74
:100C2000700EE007C0038000000000000000001C00
:100C30001C1C1C1C1C1C1C1C1C1C9C1C9C1C9C0F81
:100C4000F80FF80770077000000000000000001C9B
:100C5000701C701C700EE007C00380038007C00E7C
:100C6000E01C701C701C7000000000000000001CE4
:100C7000701C701C701C701C700EE007C003800399
:100C800080038003800FE000000000000000001FD0
:100C9000F81C381838107000E001C0038007000EFF
:100CA000081C181C381FF800000000000000000796
:100CB000F00700070007000700070007000700070C
:100CC000000700070007F00000000000000000100F
:100CD0000018001C000E000700038001C000E000A7
:100CE000700038001C000700000000000000000732
:100CF000F0007000700070007000700070007000F4
:100D0000700070007007F000000000000001800318
:100D1000C007E00E701C380000000000000000005A
:100D200000000000000000000000000000000000C3
:100D300000000000000000000000000000000000B3
:100D4000000000000000007FFF7FFF000000001C8B
:100D5000001C000700070000000000000000000069
:100D60000000000000000000000000000000000083
:100D7000000000000000000FE0007000700FF01C89
:100D8000701C701C700FD800000000000000001ED6
:100D9000000E000E000E000FF00E380E380E380E4A
:100DA000380E380E381BF000000000000000000074
:100DB000000000000000000FE01C701C701C001CF4
:100DC000001C701C700FE00000000000000000001C
:100DD000F80070007000700FF01C701C701C701C0C
:100DE000701C701C700FD800000000000000000094
:100DF000000000000000000FE01C701C701FF01CC1
:100E0000001C701C700FE0000000000000000003D8
:100E1000E007700770070007001FE01FE0070007EA
:100E200000070007001FC0000000000000000000D5
:100E3000000000000000000FD81C701C701C701C0B
:100E4000700FF007F000701C700FE0000000001E33
:100E5000000E000E000E000EF00F380F380E380E88
:100E6000380E380E381E3800000000000000000167
:100E7000C001C001C000000FC001C001C001C0011D
:100E8000C001C001C00FF800000000000000000019
:100E90007000700070000003F000700070007000BF
:100EA00070007000701C700CF007E0000000001E65
:100EB000000E000E000E000E380E700EE00FC00E79
:100EC000E00E700E381E3800000000000000000F19
:100ED000C001C001C001C001C001C001C001C0010A
:100EE000C001C001C00FF8000000000000000000B9
:100EF000000000000000001FF81C9C1C9C1C9C1C97
:100F00009C1C9C1C9C1C9C0000000000000000001D
:100F1000000000000000001FE01C701C701C701C12
:100F2000701C701C701C70000000000000000000AD
:100F3000000000000000000FE01C701C701C701C02
:100F4000701C701C700FE00000000000000000002A
:100F5000000000000000001BF00E380E380E380EA6
:100F6000380E380FF00E000E001F000000000000C9
:100F7000000000000000001FB038E038E038E03822
:100F8000E038E01FE000E000E001F00000000000B9
:100F9000000000000000001EF00FF80F380E000ED9
:100FA000000E000E001F0000000000000000000006
:100FB000000000000000000FE01C301C300F800318
:100FC000E0187018700FE000000000000000000042
:100FD000000100030007001FF007000700070007DB
:100FE000000770077003E000000000000000000030
:100FF000000000000000001C701C701C701C701CA5
:10100000701C701C700FD800000000000000000071
:10101000000000000000001C701C701C701C701C84
:10102000700EE007C0038000000000000000000018
:10103000000000000000001C1C1C1C1C1C1C9C1C34
:101040009C0FF8077007700000000000000000000F
:10105000000000000000001CE01CE00FC00780073B
:10106000800FC01CE01CE000000000000000000039
:10107000000000000000000E380E380E380E380E4A
:101080003807F003E000E001C01F8000000000000E
:10109000000000000000001FE018E011C0038007FE
:1010A000000E201C601FE000000000000000000196
:1010B000F803800380038007001C001C0007000366
:1010C000800380038001F800000000000001C001DF
:1010D000C001C001C001C001C001C001C001C00108
:1010E000C001C001C001C001C00000000000001F1D
:1010F0008001C001C001C000E00038003800E001FC
:10110000C001C001C01F80000000000000000003FB
:10111000C006600660066003C0000000000000001A
:1011200000000000000000000000000011241FBEAD
:10113000CFEFD0E1DEBFCDBF1AE0A0E0B1E0E6E640
:10114000F1E800E00BBF02C007900D92AA3FB10783
:10115000D9F72DE0AAEFBAE001C01D92AE3BB2076D
:10116000E1F70E94CA3B0C94A6400C940000FC01DD
:1011700060817181848195814091600D5091610DF4
:101180009C0197FF02C02F5F3F4F35952795DB01EC
:10119000A21BB30B4A175B07C4F097FD0196959508
:1011A0008795860F971F841795077CF022813381DE
:1011B00040918D0D50918E0D4217530734F0205EF3
:1011C0003F4F81E0241735070CF480E081700895CB
:1011D000CF93DF93D82FC92F0E94B708882321F01F
:1011E000D093470BC093480BDF91CF910895209186
:1011F0009A02222329F02F9A80932A0B90932B0B8B
:1012000008956091A80D88E790E00E947C4060E01E
:1012100090E080E00C947C40882349F18091A30DFC
:10122000811104C08091270B8823C9F02091990275
:10123000229F9001112445E0429FC001439F900DE1
:10124000112497FD01969595879591958195910922
:1012500082509F4F9093A90D8093A80D04C01092C7
:10126000A90D1092A80D662329F00C9401098FEFA7
:1012700090E0F0CF08951F921FB61F9211248F9314
:101280009F9380910101909102018E3F91050CF492
:101290008F9A9F918F911F901FBE1F901895CF938B
:1012A000DF939DE0899FE0011124C156D44F98E05F
:1012B000899FF0011124E15BF44FF987E8871082E0
:1012C000118212821382148215821682178281E0A3
:1012D0008C8785E090E09A838983CE010E948C31CF
:1012E0008111FBCFDF91CF910895CF92DF92EF92E2
:1012F000FF921F93CF93DF9300D000D000D0CDB7E3
:10130000DEB7182F282F30E03E832D833DE0839FEA
:10131000F0011124E156F44FC380D480E580F680BB
:10132000C701B6016C5271408109910969837A83C2
:101330008B839C836A3A71058105910508F0DCC0B6
:101340002AE030E040E050E00E94DD3DC90120315C
:101350003105D9F07CE2C71A71E0D70AEAE0E29FD2
:10136000B001E39F700D1124C61AD70AA3E0CA1674
:10137000D10409F48BC0C8F4E1E0CE16D10481F1A8
:10138000F2E0CF16D10409F456C0812F26960FB68D
:10139000F894DEBF0FBECDBFDF91CF911F91FF90BC
:1013A000EF90DF90CF900C944F0964E0C616D10403
:1013B00061F7220F331FF901E159F44F2D813E816E
:1013C000A3E0220F331FAA95E1F7215B344F3A8344
:1013D0002983D9018C91808311968C918183D5CFFB
:1013E0008D819E8173E0880F991F7A95E1F7815B6B
:1013F000944F9A83898388E1829FF001839FF00D47
:101400001124E252F44F30E020E0A981BA818C919E
:1014100090E0982F882711964C911197840F911D79
:10142000819391932F5F3F4F1296BA83A983243003
:10143000310559F7AACFED81FE8153E0EE0FFF1F72
:101440005A95E1F7E15BF44FFA83E98388E1829FE3
:10145000F001839FF00D1124EA51F44F30E020E0B9
:10146000A981BA818C9190E0982F882711964C9190
:101470001197840F911D819391932F5F3F4F129687
:10148000BA83A9832430310559F77FCFED81FE81DE
:1014900073E0EE0FFF1F7A95E1F7E15BF44FFA83FB
:1014A000E98368E1629FF001639FF00D1124E2512E
:1014B000F44F50E040E0A981BA812C9130E0322F06
:1014C000222711966C911197260F311D219331938C
:1014D0004F5F5F4F1296BA83A9834430510559F785
:1014E000892B09F052CF8091300B882309F44DCF1E
:1014F00081E080932F0B49CFB4EFCB16B7EEDB061C
:10150000B6E0EB06B8E1FB0609F4CAC108F086C0F4
:10151000F2E3CF16D104E104F10409F4A0C108F00C
:1015200049C03EE1C316D104E104F10409F458C1F5
:1015300068E2C616D104E104F10409F026CFED817A
:10154000FE8193E0EE0FFF1F9A95E1F7E15BF44F08
:10155000808190E0B0E0A0E0DC01992788274181FC
:1015600050E070E060E0762F652F542F4427840F01
:10157000951FA61FB71F2281820F911DA11DB11DAE
:10158000A058B1098093430B9093440BA093450B53
:10159000B093460B84E090E09093420B8093410B14
:1015A0008091400B8111F1CE81E08093400B8093BC
:1015B0000401EBCE75E3C716D104E104F10409F48C
:1015C000CBC084EFC81685EED80686E0E80688E131
:1015D000F80609F0DACEED81FE8173E0EE0FFF1F11
:1015E0007A95E1F7E15BF44F808190E0982F8827AE
:1015F0002181820F911D9093020B8093010B8281B8
:1016000090E0982F88272381820F911D9093040BDF
:101610008093030B84818093050BB7CE97EEC91698
:1016200090E5D9069FEFE90698E1F90609F45BC158
:1016300008F04FC0B4EFCB16B8EEDB06B6E0EB0611
:10164000B8E1FB0609F48FC1E5EECE16E0E5DE0653
:10165000EFEFEE06E8E1FE0609F097CE2D813E8120
:1016600043E0220F331F4A95E1F7215B344F3A8361
:101670002983D9018C9190E0982F882711962C917D
:101680001197820F911D9093FC0A8093FB0A12968A
:101690008C91129790E0982F882713962C9113978E
:1016A000820F911D9093FE0A8093FD0A14968C91EF
:1016B00014978093FF0A15968C918093000B8CE011
:1016C00090E09093370B8093360B81E08093FA0A79
:1016D0005CCEF8EECF16F0E5DF06FFEFEF06F8E19F
:1016E000FF0609F052CE2D813E8183E0220F331F89
:1016F0008A95E1F7215B344F3A832983D9018C9194
:1017000090E0982F882711962C911197820F911DA8
:101710009093120B8093110B12968C91129790E07C
:10172000982F882713962C911397820F911D9093D1
:10173000140B8093130B14968C9114978093150BB4
:1017400015968C918093160B8CE090E090933B0B58
:1017500080933A0B83E004C12D813E8153E0220F38
:10176000331F5A95E1F7215B344F3A832983D9011E
:101770008C918093830D11968C9111978093840D99
:1017800012968C9112978093850D13968C911397D6
:101790008093860D14968C911497982F9F70909338
:1017A000870D282F30E064E0359527956A95E1F79D
:1017B00023702093880D82958695869583708093FB
:1017C000890D15968C91159780938A0D16968C919C
:1017D000169780938B0D17968C9180938C0DD5CD99
:1017E000ED81FE8143E0EE0FFF1F4A95E1F7E15BDB
:1017F000F44FFA83E98390E080E0A981BA812D91CA
:10180000BA83A983FC01EB52F44F20830196883000
:10181000910599F710922D0B81E080933D0B9091EB
:10182000DA0B9F3F41F48093300B8BE894E0909368
:101830009201809391018091DB0B881F8827881F7C
:101840008093270B81E02091A80D3091A90D2F3FA7
:10185000310509F480E060E00E940C0996CD2D81ED
:101860003E8183E0220F331F8A95E1F7215B344FDD
:101870003A832983E7E9FBE0A981BA818D91BA8394
:10188000A9838193BBE0EF39FB07B1F784E090E0D7
:1018900090933F0B80933E0B81E080933C0B75CD82
:1018A000ED81FE81A3E0EE0FFF1FAA95E1F7E15B5A
:1018B000F44F808190E0982F88272181820F911D1D
:1018C00090930D0B80930C0B828190E0982F8827CA
:1018D0002381820F911D90930F0B80930E0B8481B7
:1018E0008093100B52CD2D813E8173E0220F331F68
:1018F0007A95E1F7215B344F3A832983D9018C91A2
:1019000090E0982F882711962C911197820F911DA6
:101910009093070B8093060B12968C91129790E090
:10192000982F882713962C911397820F911D9093CF
:10193000090B8093080B14968C91149780930A0BD3
:1019400015968C9180930B0B8CE090E09093390B63
:101950008093380B8091000182300CF016CD82E02C
:101960008093000112CDED81FE8143E0EE0FFF1F59
:101970004A95E1F7E15BF44F808190E0982F88274A
:101980002181820F911D9093180B8093170B8281F8
:1019900090E0982F88272381820F911D90931A0B36
:1019A0008093190B848180931B0BEFCC1F920F92B5
:1019B0000FB60F9211240BB60F920F931F932F9314
:1019C0003F934F935F936F937F938F939F93AF93C7
:1019D000BF93CF93EF93FF938091320B9091330B92
:1019E00001969093330B8093320B8F9880912A0B42
:1019F00090912B0B181619060CF040C08091820DA7
:101A00008823B1F12F9A2E981092820D8091260B87
:101A1000811118C08091320B9091330B87709927F8
:101A2000892B81F40FE91BE0C0E0C8010E94EE346D
:101A3000811128C08C2F0E947509035F1F4FCF5F53
:101A4000C43099F7FF91EF91CF91BF91AF919F91E2
:101A50008F917F916F915F914F913F912F911F9146
:101A60000F910F900BBE0F900FBE0F901F90189507
:101A70002F982E9A81E08093820DC8CF85B18F7305
:101A800085B9C4CF8230C9F68C2F0E944F09D5CFBB
:101A9000CF93C82F80912E0B8C1771F081E080932B
:101AA000040110924E0B60E00E940C0988E790E060
:101AB0009093290B8093280BC0932E0BCF91089500
:101AC000EBEBF1E090E080E02191820F911D21E0AD
:101AD000EB3CF207C9F79093240B8093230B0895F6
:101AE0002F923F924F925F926F927F928F929F922E
:101AF000AF92BF92CF92DF92EF92FF920F931F931C
:101B0000CF93DF93CDB7DEB762970FB6F894DEBF01
:101B10000FBECDBF6F837887712C612C9C01990F0C
:101B2000440B550B2D873E874F87588B2F81388567
:101B300062167306CCF062960FB6F894DEBF0FBE45
:101B4000CDBFDF91CF911F910F91FF90EF90DF906C
:101B5000CF90BF90AF909F908F907F906F905F904D
:101B60004F903F902F9008952F9A2E986D857E85E7
:101B70008F8598890E94F83E4B015C012BEA3AEA76
:101B80004AEA50E469839A828B83BC8269817A81B4
:101B90008B819C810E94AD3F8B018A8B998B20E0C9
:101BA00030E040E850E469817A818B819C810E9419
:101BB000AD3F6B017C0120E030E040E85FE309834A
:101BC0001A838A898B8399899C8369817A818B8125
:101BD0009C810E94503E87FD41C120E03FEF4FE7CE
:101BE00057E4C982DA82EB82FC8269817A818B8137
:101BF0009C810E94A83F18160CF07BC020E030E0CA
:101C00004AE754E489829A82AB82BC8269817A81F4
:101C10008B819C810E94553E69877A878B879C8740
:101C200020E030E04AE755E469837A839B859B8313
:101C30008C858C8369817A818B819C810E94AD3FE8
:101C40001B012C0120E030E040E85FE369833A8229
:101C50008B835C8269817A818B819C810E94503E5A
:101C600087FD44C020E03FEF4FE757E469817A8168
:101C70008B819C810E94A83F181654F520E030E02B
:101C800040E251E4998599838A858A839B859B8369
:101C90008C858C8369817A818B819C810E94AD3F88
:101CA00069837A838B839C8369817A818B819C8110
:101CB0000E94C73ECB01009729F44E814A95F1F767
:101CC0004E833CC0E0E9F1E03197F1F70197F3CFA3
:101CD00029823A824B825C8269817A818B819C81E4
:101CE0000E94C73ECB010197F1F7E7CF81E090E07A
:101CF000FACF20E030E04FE753E409831A839A8952
:101D00009B8389898C8369817A818B819C810E94E4
:101D1000A83F18160CF094C0C982DA82EB82FC82CC
:101D200069817A818B819C810E94C73E69837A8315
:101D30008B839C8389819A810197F1F72F982E9A42
:101D400020E030E040E85FE309831A838A898B83CF
:101D500099899C8369817A818B819C810E94503E04
:101D600087FDCEC020E03FEF4FE757E4C982DA821B
:101D7000EB82FC8269817A818B819C810E94A83FE1
:101D800018160CF087C020E030E04AE754E489825E
:101D90009A82AB82BC8269817A818B819C810E940C
:101DA000553E6B017C0120E030E04AE755E4698351
:101DB000DA828B83FC8269817A818B819C810E948B
:101DC000AD3F8B018A87998720E030E040E85FE3F0
:101DD00069831A838B839C8369817A818B819C813F
:101DE0000E94503E87FD53C020E03FEF4FE757E48D
:101DF00069817A818B819C810E94A83F1816BCF56D
:101E000020E030E040E251E4C982DA82EB82FC82D9
:101E100069817A818B819C810E94AD3F69837A833D
:101E20008B839C8369817A818B819C810E94C73ED0
:101E3000CB010097B1F45D815A95F1F75D834EC0F7
:101E400009831A839A899B8329892C8369817A81E2
:101E50008B819C810E94C73E6E832FCF31E03E83F1
:101E60002CCFE0E9F1E03197F1F70197E2CF098358
:101E70001A832A852B8339853C8369817A818B81FA
:101E80009C810E94C73ECB010197F1F7D4CF81E03E
:101E900090E0FACF20E030E04FE753E409831A8363
:101EA0008A898B8399899C8369817A818B819C81C2
:101EB0000E94A83F1816B4F4C982DA82EB82FC8231
:101EC00069817A818B819C810E94C73E69837A8374
:101ED0008B839C8389819A810197F1F78FEF681A30
:101EE000780A24CE09831A832A892B8339893C8373
:101EF00069817A818B819C810E94C73E6D839BCFD3
:101F000041E04D8398CFFC01DC010D900020E9F702
:101F10001197CD018E1B9F0B8130910539F41282F0
:101F20008081818380E3808382E090E0DF01A80FDD
:101F3000B91F2C9111962C9311970197E80FF91F57
:101F400080818C938EE2808308950F931F93CF93AB
:101F5000DF93CDB7DEB72A970FB6F894DEBF0FBE7A
:101F6000CDBF8C01F80101900020E9F73197E01B0B
:101F7000F10BE330F10518F1C8018E0F9F1FDC0152
:101F80002C9111962C93DF011197AD01400F511F39
:101F9000DA012C91DC012C933297E00FF11F808144
:101FA000DA018C938EE280832A960FB6F894DEBF16
:101FB0000FBECDBFDF91CF911F910F91089563EDBB
:101FC00074E0CE0101960E942C40B801CE0101962A
:101FD0000E942140BE016F5F7F4FC8010E942C40CC
:101FE000C1CF0F931F93CF93DF93CDB7DEB72A975F
:101FF0000FB6F894DEBF0FBECDBF8C01F801019083
:102000000020E9F73197E01BF10BE430F10558F1BE
:10201000A8014E0F5F1FDA018C9111968C93CF01AE
:102020000197800F911FDC012C91DA012C93DF01C5
:102030001297AD01400F511FDA012C91DC012C9356
:102040003397E00FF11F8081DA018C938EE2808359
:102050002A960FB6F894DEBF0FBECDBFDF91CF91A9
:102060001F910F91089563ED74E0CE0101960E94D7
:102070002C40B801CE0101960E942140BE016F5F45
:102080007F4FC8010E942C40B9CFCF93DF93D82F48
:10209000C92FCB0120919B022223D1F049E0469F1A
:1020A0009001479F300D1124C90165E070E00E9446
:1020B000C93DCB014AE06D2F7C2F80960E943340B2
:1020C00065E974E08D2F9C2FDF91CF910C94214016
:1020D0004AE06D2F7C2F0E94334069E974E0F2CF13
:1020E000AF92BF92CF92DF92EF92FF920F931F9326
:1020F000CF93DF93CDB7DEB761970FB6F894DEBF0D
:102100000FBECDBF6C837D838E839F8381E08093E0
:10211000260B5A8749878D87288782E090E09B832A
:102120008A83CE0101960E948C318111FACFCE01B3
:1021300001960E94EE348130D1F3002309F457C098
:10214000802F90E0B0E0A0E08E879F87A88BB98BAE
:10215000BC01CD010E94F63E5B016C0120E030E045
:102160004AE755E46E87BF86888BD98A6E857F855E
:10217000888999890E94AD3F7B018C0120E030E085
:1021800040E85FE36E87FF86888B198B6E857F85BD
:10219000888999890E94503E87FD4FC020E03FEF1B
:1021A0004FE757E46E857F85888999890E94A83F0B
:1021B0001816ACF520E030E040E251E4AE86BF8670
:1021C000C88AD98A6E857F85888999890E94AD3FA2
:1021D0006E877F87888B998B6E857F8588899989A3
:1021E0000E94C73ECB0120E931E0009799F410929C
:1021F000260B61960FB6F894DEBF0FBECDBFDF9100
:10220000CF911F910F91FF90EF90DF90CF90BF90F3
:10221000AF900895F9013197F1F70197E6CFEE8677
:10222000FF86088B198B6E857F85888999890E9426
:10223000C73ECB010197F1F7DACF81E090E0FACF0A
:102240000F938091220B811123C081E080938F0B2B
:102250008091200B9091210BFC01E658FD4F2081CD
:102260002093900B8B30910534F409973CF082E079
:1022700080938F0B03C00B97029760F000E022E081
:102280004FE85BE06FE170E080E090E00E9470104A
:102290000F91089583E0ECCFCF93DF93D82F83E5A0
:1022A00091E00E94B708C091220B8823A1F1C15090
:1022B000C093220BC23071F48091300B882389F0D7
:1022C00081E08093220B8091970B81110AC01092BC
:1022D000220B07C0C130B9F3C7FF03C082E080936F
:1022E000220B85E091E00E94B708882389F0D11184
:1022F0000FC085E090E09093810D8093800D109247
:10230000250B10921F0B10921E0B81E0809304018D
:10231000DF91CF91089586E491E00E94B708882369
:10232000A9F0CF5FC093220BC13061F48091970B6D
:102330008111D7CF82E08093220B8091300B8111E5
:10234000C6CFCFCFC230C9F314F6CBCFC11118C15D
:1023500089E391E00E94B708882331F18091200B36
:102360009091210B01979093210B8093200B20914A
:10237000300B222369F0382F292F0197FC01EF5EE3
:10238000FD4F41814423B9F33093200B2093210B5F
:102390008091200B9091210B97FF06C082E290E084
:1023A0009093210B8093200B8CE291E00E94B70860
:1023B000882319F18091200B9091210B0196909325
:1023C000210B8093200B2091300B222361F09C0184
:1023D0000196F901EF5EFD4F40814423C1F3309334
:1023E000210B2093200B8091200B9091210B839740
:1023F00021F41092210B1092200B8FE191E00E94AA
:10240000B70881115AC082E191E00E94B70821E02B
:1024100030E0882309F465CF4091200B5091210BC7
:102420004431510509F04CC02130310549F491E0A7
:1024300080E020918E022F3709F490E0292F382F69
:10244000FA01EC5CFD4F6081F091300BFF2321F02D
:10245000DA01AF5EBD4F6C9170E0FF2361F08091B7
:102460002F0B882341F04630510529F484E08093F6
:102470005D026CE070E0DA01A95ABD4F8C9190E0EA
:10248000DA01A658BD4FEC912E0F311D28173907E0
:102490002CF0C901621773070CF4CB018C93FF2356
:1024A00009F45BC04730510509F057C0843008F487
:1024B00018CF83E08093810214CF2FEF3FEFACCF92
:1024C0004331510591F42130310519F580918D0288
:1024D0008F3F09F0B5CF80918E02806880938E0285
:1024E00010928D0230E020E0ABCF4531510509F06C
:1024F000A7CF21303105F9F480918F028F3F09F089
:102500009FCF8091900280688093900210928F02FA
:10251000E9CF2F3F320731F780918D02811190CFA3
:1025200080918E0287FF8CCF8F7780938E028FEF02
:1025300080938D02D7CF2F3F3207A1F680918F0273
:1025400081117ECF8091900287FF7ACF8F77809321
:1025500090028FEF80938F02C5CF495051094430CC
:10256000510510F40E9420118091200B9091210BB5
:102570004F9709F0B6CE60E081E00E940C09B1CE21
:10258000C13009F068C089E391E00E94B708882350
:1025900059F080911C0B90911D0B019797FD50C035
:1025A00090931D0B80931C0B8CE291E00E94B70866
:1025B000882371F080911C0B90911D0B9C012F5F63
:1025C0003F4F099709F43FC030931D0B20931C0B1C
:1025D0008FE191E00E94B70881113AC082E191E059
:1025E0000E94B70841E050E0882309F47ACE809138
:1025F000970B8F70813029F48CE38093ED028093E8
:10260000EE0220911C0B30911D0BF901E551FD4F9D
:102610006081F901EB50FD4F808190E0F901ED57A9
:10262000F24F2081240F352F311D2817390734F040
:10263000862F90E0281739070CF4C901808351CE0A
:1026400089E090E0ADCF10921D0B10921C0BC0CF13
:102650004FEF5FEFCCCFC23009F043CE8CE291E078
:102660000E94B708882391F080911E0B90911F0B58
:1026700001968031910514F08FE090E097FF02C041
:1026800090E080E090931F0B80931E0B89E391E014
:102690000E94B708882399F020911E0B30911F0BE0
:1026A000215031092031310514F02FE030E037FF9F
:1026B00002C030E020E030931F0B20931E0B8FE10F
:1026C00091E00E94B7088823A9F0E0911E0BF091D9
:1026D0001F0BE554FE4F2081422F4150550BCA017C
:1026E000222329F14D30510514F08CE090E0843024
:1026F00000F1808382E191E00E94B708882309F409
:10270000F0CDE0911E0BF0911F0BE554FE4F2081A0
:1027100030E02F5F3F4F2D30310514F02CE030E0DA
:102720002430310514F424E030E02083DACD80E059
:10273000DECF1082DFCFCF930E94EB3A9093610DF2
:102740008093600D0E941D3B382F292F80938D0DA3
:1027500090938E0D8091A60D9091A70D8B309105D1
:102760008CF4FC013197EE0FFF1FDF01A655B24F2D
:102770004091600D5091610D4D935C93E157F24F84
:10278000308321832091A80D3091A90D2F3F310571
:1027900089F44E9769F461E081E00E940C0982E0BF
:1027A00090E00E94F70810924E0B81E080930401A4
:1027B000CF9108954091250B41110BC08E319105A9
:1027C00041F480914E0B8111F3CF81E080934E0B49
:1027D000EDCF8330910509F0ACC06091AA0D7091E6
:1027E000AB0D2091AC0D3091AD0DCB01821B930B45
:1027F00097FF03C0C901861B970B0B97CCF6E0919E
:102800008F0DF091900D8091910D9091920DBF01DF
:10281000681B790B77FF03C0BC016E1B7F0B6B300D
:10282000710534F6E091AE0DF091AF0DB9016E1B5C
:102830007F0B77FF03C0BF01621B730B6B30710509
:102840000CF0B6CF6091930D7091940D9C01261BF6
:10285000370B37FF03C09B01281B390B2B30310589
:102860000CF0A6CF80914E0B882371F181EA91E0A4
:102870000E94E8088091D30B9091D40B892B21F012
:102880008091300B882341F0489B02C0659904C0B9
:102890008EEA91E00E94E80884E991E00E94E8084D
:1028A00087E891E00E94E8088AE791E00E94E80842
:1028B0008091470B9091480B892B09F479CF82E0E6
:1028C00090E0CF910C94F7084423D9F083E591E090
:1028D0000E94E80886E491E00E94E80889E391E01C
:1028E0000E94E8088CE291E00E94E8088FE191E004
:1028F0000E94E80882E191E00E94E80885E091E00A
:10290000D5CF80912E0B9091310B943029F082E03D
:1029100090E00E94F708CCCF9091300B892BB9F74B
:102920008DE691E00E94E80880E691E00E94E808C8
:10293000EECF8630910561F581E99DE0C1E041E08F
:10294000FC0122813381029660817181261B370B45
:102950002530310524F42C3F3F4FC4F040E0C0E067
:102960002DE08939920761F7442331F081E08093AB
:10297000A30D61E00E940C09CC2309F419CF109239
:10298000A30D61E081E0CF910C940C0940E0E8CF09
:102990008E3191050CF40CCF442309F409CF66E085
:1029A00070E00E94C93D892B09F002CF81E0CF91F0
:1029B0000C944C110F931F93CF93DF938091A80D2C
:1029C0009091A90D8F3F910509F4FFC00091A60DCC
:1029D0001091A70D033011050CF4F7C04091AA0D1A
:1029E0005091AB0D2091AC0D3091AD0DCA01821B01
:1029F000930B97FF03C0C901841B950B0B970CF039
:102A0000E4C060918F0D7091900D8091910D909127
:102A1000920DAB01481B590B57FF03C0AC01461B7D
:102A2000570B4B3051050CF0D0C06091AE0D70913A
:102A3000AF0DA901461B570B57FF03C0AB01421B4B
:102A4000530B4B3051050CF0C0C04091930D509189
:102A5000940D9C01241B350B37FF03C09A01281BE2
:102A6000390B2B3031050CF0B0C080914E0B882310
:102A700009F4A0C081EA91E00E94B708882389F098
:102A80008091470B9091480B815A914051F481E01D
:102A900090E09093810D8093800D10924E0B809367
:102AA000040184E991E00E94B708882391F08091A5
:102AB000470B9091480B8459914059F482E090E083
:102AC0009093810D8093800D10924E0B81E0809346
:102AD00004018EEA91E00E94B708882339F18091C1
:102AE000470B9091480B8E5A914001F58091D30B82
:102AF0009091D40B892B21F08091300B8823B1F079
:102B0000489B02C0659912C083E090E09093810DCC
:102B10008093800D81E08093250B8091300B811193
:102B20002FC010924E0B81E08093040187E891E062
:102B30000E94B708882389F08091470B9091480B39
:102B40008758914051F48091300B882351F187E2EE
:102B500090E09093810D8093800D8AE791E00E9430
:102B6000B708882371F18091470B9091480B8A57E1
:102B7000914039F510924E0B81E08093040121C001
:102B8000EAE7F2E0A1E1B2E02DE932E091918D9126
:102B9000891718F4EF01219788832E173F07B1F7A3
:102BA000C0CF8FEF90E09093A90D8093A80D0E9465
:102BB0000109D3CF8091250B882361F080E00E942A
:102BC0004C111092480B1092470BDF91CF911F913F
:102BD0000F91089580912E0B8823A9F09091970270
:102BE000992321F0982F9D7F943069F0813120F056
:102BF00080E00E94480DC0CF86E090E09093810D68
:102C00008093800DB9CFC091310BC43009F04CC016
:102C10008DE691E00E94B708882329F18091300B5E
:102C2000811121C080911E0B90911F0B282F082E1F
:102C3000000C330B01968031910514F090E080E098
:102C40002817390729F430931F0B20931E0BB9CF97
:102C5000FC01E554FE4F4081442361F390931F0B28
:102C600080931E0BAECF80E691E00E94B7088823C8
:102C7000D9F08091300B811117C080911E0B90917B
:102C80001F0B282F082E000C330B019797FF02C053
:102C90008FE090E028173907B1F2FC01E554FE4FB0
:102CA0004081442391F3DACF8091470B9091480BF8
:102CB000892B09F086CF0E3111050CF082CF80915F
:102CC000600D9091610D813A91050CF43FC081E057
:102CD0008C0F8093310B813009F58091970B811116
:102CE00021C082E08093310B8091FA0A81111AC0D1
:102CF00083E08093310B8091230B9091240B892BDF
:102D0000D9F08091310B8530B9F08091310B882357
:102D1000A9F08091310BC8132FCF53CF823021F30C
:102D2000833049F38091310B843059F78091230B24
:102D30009091240B892B49F71092310B80913D0B18
:102D40008111E7CF81E08093310BE3CF8FEF8C0FC0
:102D50008093310B811109C080913D0B882339F09C
:102D60008091310B8230A1F50EC087FF27C084E02F
:102D70008093310B8091230B9091240B892B81F749
:102D800082E08093310B8091FA0A811125C081E0A5
:102D90008093310B8091970B8111BBCF1092310B37
:102DA0008091300B882309F4B4CF809181029091F7
:102DB000400B892B09F0ADCF84E0C5CF8430D1F230
:102DC000833071F68091230B9091240B892BC1F2F3
:102DD0008091310B8130F1F28091310B811199CFCB
:102DE000DFCF1F920F920FB60F9211240BB60F92E6
:102DF0002F933F934F935F936F937F938F939F9303
:102E0000AF93BF93EF93FF932091A80D3091A90D3D
:102E100040910101509102014217530774F4C90116
:102E2000841B950B8031910514F08FE090E0840FA6
:102E3000951F90930201809301018091010190916F
:102E40000201281739077CF4AC01421B530B9A018D
:102E50004031510514F02FE030E0821B930B90932A
:102E60000201809301018091340B9091350B18166B
:102E7000190634F08FEF90E09093020180930101E6
:102E80008091010187BD0E94E43A882309F45AC069
:102E90000E945E3B8091A60D9091A70D01969093A4
:102EA000A70D8093A60D0E949B1380912A0B9091F1
:102EB0002B0B8D395FEF95072CF0019790932B0B1F
:102EC00080932A0B80912A0B90912B0B892B09F46C
:102ED0002F9880912A0B90912B0B883F9F4FFCF4E9
:102EE00080912E0B8823D9F090919702992319F0A5
:102EF0008D7F8430A1F08091280B9091290B1816BA
:102F000019066CF488E090E00E94F7088091280B85
:102F10009091290B01979093290B8093280BFF9197
:102F2000EF91BF91AF919F918F917F916F915F9141
:102F30004F913F912F910F900BBE0F900FBE0F90AE
:102F40001F9018958091A60D9091A70D181619063F
:102F500014F40E94DA141092A70D1092A60D8FEFB0
:102F60009FEF9093610D8093600D90938E0D8093F1
:102F70008D0D9BCF8FEF87B990EC94B981B9879A6B
:102F800083B3836083BB8AB188698AB9589A759A7A
:102F900082E084BD93E090936E008093810081E095
:102FA00080936F0008958F929F92AF92BF92CF92BD
:102FB000DF92EF92FF920F931F93CF93DF93CDB7E2
:102FC000DEB7E7970FB6F894DEBF0FBECDBF81E343
:102FD00090E00E9470406CAB7DAB8EAB9FAB6E3EC1
:102FE0007F4F804C910509F067C0CE0101966C01BE
:102FF0007C0104E010E0B12CA12CC8010E946840C3
:10300000D7018D937D01A80EB11C0F5F1F4F0732B2
:10301000110599F77E01B4E2EB0EF11C4701C801DE
:103020000E946840982F9F70F4019083982F92958A
:103030009F709183A80EB11C0F5F1F4FF2E08F0E9F
:10304000911C0F32110559F78FE290E00E947640F3
:10305000A816B90679F5EAE7F2E0C6018396D6012B
:103060002D916D012193A817B907C9F7EBEBF1E09A
:10307000C7014096D7012D917D012193A817B9076B
:10308000C9F760E090E080E00E947C4082E0E79633
:103090000FB6F894DEBF0FBECDBFDF91CF911F9169
:1030A0000F91FF90EF90DF90CF90BF90AF909F90E7
:1030B0008F90089581E0EBCF80E0E9CFCF92DF924F
:1030C000EF92FF920F931F93CF93DF93F8940AE749
:1030D00012E0C4E0D0E0F12CE12CF80161918F0105
:1030E000CE010E947C40F80131978081E80EF11CEE
:1030F0002196C732D10589F78BEBC82E81E0D82EF7
:10310000F601808111811295107F180F612FCE0179
:103110000E947C40E10EF11CF2E0CF0ED11C219602
:10312000CF32D10569F7B7018FE290E00E9491405C
:103130004EEE5FEF60EC70E081E390E00E9489402A
:1031400060E090E080E00E947C407894DF91CF9135
:103150001F910F91FF90EF90DF90CF900895EF9225
:10316000FF920F93CF93DF93CBEBD1E08FE8E82E64
:103170008BE0F82ED701FE0181818295807F9081BE
:10318000890F8D93329681E0EB3CF807A9F704E1B3
:1031900028E04FE85BE064E270E080E090E00E94AD
:1031A0007010EAE7F2E0AFE8BBE081918D9382E036
:1031B000E238F807D1F704E128E04FE85BE060E28D
:1031C00070E080E090E00E947010A2E8B2E0EFE8CA
:1031D000FBE08D9181938BE0E739F807D1F704E1AB
:1031E00028E04FE85BE061E270E080E090E00E9460
:1031F0007010AAE8B2E0EFE8FBE08D9181938BE0DC
:10320000E739F807D1F704E128E04FE85BE062E234
:1032100070E080E090E00E947010E2E9F2E08191BD
:10322000D7018D937D01B7E9EB16BBE0FB06B9F73B
:1032300004E128E04FE85BE063E270E080E090E0CA
:103240000E9470108091830D80938F0B8091840D6C
:103250008093900B8091850D8093910B8091860DCA
:103260008093920B8091880D8295807F9091890D3B
:103270009295990F990F907C890F9091870D890FE6
:103280008093930B80918A0D8093940B80918B0D8A
:103290008093950B80918C0D8093960B28E04FE8DE
:1032A0005BE064E370E080E090E00E947010809149
:1032B000300B882369F0199281E0CB3CD807D9F70D
:1032C0008091800290912F0B9923B9F08093BB01DC
:1032D0000E945E1810928F0B05E021E04FE85BE042
:1032E0006FE170E080E090E00E947010DF91CF917C
:1032F0000F91FF90EF900C94600D98E09093BB01BC
:1033000088508093BC01E4CFEF92FF920F931F93FC
:10331000CF93DF93EC018091D30B9091D40B019765
:103320003FEEE32E3BE7F32E8430910538F4880F0F
:10333000991FFC01E95FFC4FE080F18080919702CA
:10334000882399F080912E0B982F9D7F943069F4FB
:103350009091310BE12C28EFF22E943031F0863031
:1033600021F1843011F4C4EBD4E086E891E30E94AB
:103370000E39870123E130E04FE351E070E060E077
:1033800090E080E00E94DE380FEF1FEF21E042E086
:1033900050E060EA70E0CE010E94B13ADF91CF9137
:1033A0001F910F91FF90EF900895CDE9D4E0DDCF0C
:1033B000EF92FF920F931F9380910401882321F0D5
:1033C00086E891E30E940E39109204010AE812E5A2
:1033D00028E730E049E350E06CE370E090E080E003
:1033E0000E94DE3821E430E04FE351E06CE370E00E
:1033F00090E080E00E94DE3828E730E04FE351E0C3
:103400006CE370E081E191E00E94DE3828E730E073
:103410004FE351E062E770E090E080E00E94DE3828
:103420008AE8E82E82E5F82E0DE315E623E042E473
:1034300050E060EA70E08EEC94E00E94B13A96E8C9
:10344000E92E91E3F92E0FEE1BE721E041E950E070
:1034500060EA70E085ED94E00E94B13A1F910F910F
:10346000FF90EF9008958F929F92AF92BF92CF926C
:10347000DF92EF92FF920F931F93CF93DF93CDB71D
:10348000DEB76C970FB6F894DEBF0FBECDBFA0902D
:10349000DC0BB12C8091D80B9091D90B882E912CFC
:1034A000982C8824890E911C8091DB0BD82EE894EF
:1034B000D7F880910401882309F4B5C01092040163
:1034C000E091D30BF091D40BEE0FFF1FE15FFA4FA9
:1034D00065917491CE0101960E941A408091300B43
:1034E00062EE74E0811102C060EF74E082E69DE05C
:1034F0000E942C40BE016F5F7F4F82E69DE00E94DC
:10350000214082E69DE00E94841926E8E22E21E314
:10351000F22E0DE315E621E04EE150E060E170E0AF
:103520008AEF94E00E944F3A21E048E550E060E1E4
:1035300070E08EED98E00E944F3A21E042E950E0C1
:1035400060E170E082E095E00E944F3A8091300B9C
:10355000882309F417C221E04AEC50E060E170E0F2
:1035600088E095E00E944F3AA114B10499F080914F
:10357000300B811125C086E8E82E81E3F82E0DE39B
:1035800015E621E04AEC50E064E670E088E095E062
:103590000E944F3A24E62D1598F08091300B81114E
:1035A0000FC006E8E02E01E3F02E0DE315E621E062
:1035B0004AEC50E06CEA70E081E195E00E944F3AFD
:1035C00016E8E12E11E3F12E0DE315E621E04AECB9
:1035D00050E064EF70E08CEE98E00E944F3A0FEEFE
:1035E0001BE720E330E047E151E064E270E083EF65
:1035F00090E00E94DE380AE812E52EE230E045E174
:1036000051E066E270E085EF90E00E94DE380FEE58
:103610001BE720EC30E04CE251E06EE270E08EED12
:1036200090E00E94DE388091430B9091440BA09172
:10363000450BB091460BBC01CD0124E630E040E0E3
:1036400050E00E94DD3DD4010E940C3E6D8B7E8BCC
:103650008F8B988F97FF0DC09B01AC0150954095C3
:10366000309521953F4F4F4F5F4F2D8B3E8B4F8BAA
:10367000588F8114910409F093C166E175E082E6E8
:103680009DE00E942C40B6E8EB2EB1E3FB2E0FEF3D
:103690001FEF22E040E350E060E170E082E69DE051
:1036A0000E944F3A8091430B9091440BA091450B9F
:1036B000B091460B9C01AD012E5C3F4F4F4F5F4FC9
:1036C000298F3A8F4B8F5C8FCA01B90124E630E015
:1036D00040E050E00E94DD3DC90160919802662300
:1036E00021F088279927821B930B2091410B309161
:1036F000420B232B09F07DC12091300B211179C1A0
:1037000066E175E082E69DE00E942C40A6E8EA2E84
:10371000A1E3FA2E0FEF1FEF22E04AE650E060E14E
:1037200070E082E69DE00E944F3A8091410B9091BB
:10373000420B892B09F082C18091300B81117EC12F
:1037400066E175E082E69DE00E942C40F6E8EF2EEF
:10375000F1E3FF2E0FEF1FEF22E044EA50E060E1BB
:1037600070E082E69DE00E944F3A8091300B81111B
:10377000CDC18091DA0B4AE062E67DE090E00E94E4
:10378000334082E69DE00E94830F6DE175E082E6A2
:103790009DE00E94214021E04CED50E060E170E0AE
:1037A00082E69DE00E944F3AA114B10409F47DC164
:1037B000B5016852710982E69DE00E944510609152
:1037C000300BFCEA6F02B00111246C597F4FE6E820
:1037D000EE2EE1E3FE2E0FEF1FEF21E04CED50E067
:1037E00082E69DE00E944F3A24E62D1568F1809113
:1037F000300B811129C08D2D90E005966AE070E0B4
:103800000E94C93DCB014AE062E67DE02AE0DC018E
:103810002A9FC0012B9F900D11240E9433406EE21D
:1038200075E082E69DE00E94214056E8E52E51E3D6
:10383000F52E0FEF1FEF21E04CED50E06CEA70E049
:1038400082E69DE00E944F3A8091D60BA090D70B64
:1038500090E0982F8827A80EB92EB11C29EC30E0F3
:10386000D5010E94053E22E030E040E050E00E9499
:10387000DD3D2D8B3E8B4F8B588F20917A02B2E32A
:103880002B9F90011124032E000C440B550B6D89C6
:103890007E898F89988D0E94DD3D49016901253619
:1038A00031051CF034E6C32ED12CD7FE02C0D12C3A
:1038B000C12C80919C02813009F016C1F4E6AF164C
:1038C000B1040CF004C14AE062E67DE0C5010E944B
:1038D000334082E69DE00E94830F62E375E082E65A
:1038E0009DE00E94214026E8E22E21E3F22E0FEF18
:1038F0001FEF21E04CED50E064EF70E082E69DE0C8
:103900000E944F3A2EE82C9DC0012D9D900D112450
:1039100064E670E00E94C93D28E2821691040CF42E
:10392000ECC09DE3892E95E6992E8EEB90E05C012C
:10393000A61AB70A0AE812E595014AE251E060E3E7
:1039400070E080EE90E00E94DE3884012EEB30E0E3
:103950004AE251E0B50180EE90E00E94DE386C96BC
:103960000FB6F894DEBF0FBECDBFDF91CF911F9190
:103970000F91FF90EF90DF90CF90BF90AF909F900E
:103980008F90089596E8E92E91E3F92E0DE315E660
:1039900021E04AEC50E060E170E08DE095E0E2CD9E
:1039A00038EE831633E09306C4F48091230B909194
:1039B000240B181619068CF44AE062E67DE0C40177
:1039C0000E94334082E69DE00E94830F6DE175E026
:1039D00082E69DE00E94214056CEC4016AE070E07C
:1039E0000E94C93DCB014AE062E67DE00E9433407F
:1039F000EDCF9C0197FF04C022273327281B390BEA
:103A0000283E334084F44AE062E67DE00E94334081
:103A100082E69DE00E94830F61E275E082E69DE010
:103A20000E94214073CE6AE070E00E94C93DCB0144
:103A30004AE062E67DE00E943340EECF8D899E89A8
:103A4000AF89B88D8038E6E99E07E8E9AE07B10591
:103A5000D4F4BC01CD0120E137E240E050E00E9407
:103A6000DD3D89014AE062E67DE0C8010E94334005
:103A700082E69DE00E94830F65E275E082E69DE0AC
:103A80000E94214063CE6D897E898F89988D20EABE
:103A900036E841E050E00E94DD3D89014AE062E6FF
:103AA0007DE0C8010E943340E7CF8091300B88232E
:103AB00041F166E8E62E61E3F62E0FEF1FEF21E0FD
:103AC0004CED50E060E170E089E295E08BCEC501FD
:103AD00005966AE070E00E94C93DCB014AE062E6CB
:103AE0007DE00E943340F9CE4AE062E67DE0C60107
:103AF0000E9433406EE275E0F2CE812C8CEF982E5E
:103B000014CF34E63D1508F49FCE75CEA114B10450
:103B100009F04ECECECF2F923F924F925F926F928E
:103B20007F928F929F92AF92BF92CF92DF92EF924D
:103B3000FF920F931F93CF93DF93CDB7DEB76997B3
:103B40000FB6F894DEBF0FBECDBF809189022091E1
:103B5000230B3091240B409197028B3FD8F4609156
:103B6000D30B7091D40B6330710529F09091300B19
:103B7000992309F40EC15AE0859F3001112460E3B6
:103B8000661A68EF760A121613060CF445C0198EF1
:103B9000188E49C08B3F09F0FCC0121613060CF0BA
:103BA000FDC08091D30B9091D40B8330910509F423
:103BB000DFC05091300B5111DBC0029719F4413036
:103BC00009F4D6C088E8682E83E1782E25C0D70195
:103BD000ED91FD917D01E817F9070CF4CF016E1608
:103BE0007F060CF43F01BFEFAB1ABB0AAC14BD0457
:103BF00074F3685E7F4FEDE06E357E0709F0C0C05C
:103C0000680E791E77FE03C0FFEF6F1A7F0A759466
:103C100067945AE0650E711C80E491E0B9010E943E
:103C2000C93D798F688F888D998D829FB001839F60
:103C3000700D929F700D112480E491E0861B970B0C
:103C400097FD0196DC01B595A795BB8BAA8BB1E0DA
:103C5000BF87213A31050CF01F8680918802882E9B
:103C6000912CE8EC8E0E911C20908702312CF6E905
:103C70002F0E311C442339F080918A0290E0880E87
:103C8000991E281A390A9401221933093A8729877B
:103C90004BEB51E058874F831E821D821A82198296
:103CA000AF81B8852D91B887AF83E88DF98D4981B3
:103CB0005A81E49FC001E59F900DF49F900D11245F
:103CC0004A885B88480E591EBA016F5F7F4F6E9F0E
:103CD000A0016F9F500D7E9F500D1124BA01681BEB
:103CE000790B7E876D878F85681B7109798B688B4F
:103CF000A981BA81BC83AB83E22F220FFF0BFD8B1E
:103D0000EC8B8CE04D815E81849F9001859F300D0E
:103D100011243F8B2E8B8B813981831BE82FF0E0A0
:103D20004C895D89E417F5070CF442C06D817E81F2
:103D30006F5F7F4F7E836D8360317105A1F569965A
:103D40000FB6F894DEBF0FBECDBFDF91CF911F91AC
:103D50000F91FF90EF90DF90CF90BF90AF909F902A
:103D60008F907F906F905F904F903F902F9008952D
:103D70000BEB11E06EED7BE0712C612C88E893E198
:103D8000D801ED918D01CE2ED12C7B01B12CA12C2F
:103D90002DCFE8E86E2EE3E17E2EF5CE78E8672E93
:103DA00073E1772EF4CE6B817C817A83698378CF3F
:103DB0006E897F89E60FF71FEE0FFF1FE252F44F67
:103DC00020813181C9016AE070E00E94C93D62151D
:103DD00073057CF0861697060CF45DC0A12C4CEFA1
:103DE000B42E621673064CF02DE3A22E25E6B22EF9
:103DF00004C0B101A12C38EFB32E62197309A8E2F7
:103E0000A69FC001A79F900D112469857A850E9405
:103E1000C93DFB013596FC87EB872B813C812F5FE9
:103E20003F4F3C832B832EEE30E02E1B3F0B06E8EA
:103E300011E3C888D988C40CD51CA60169EB70E0D1
:103E400072018FEFE81AF80AC7010E94DE386FEEA0
:103E500070E0AB85BC856A1B7B0B85012FEE30E0E3
:103E6000A601C7010E94DE38C20163E070E00E9433
:103E7000C93D6B018D859E85840D951D63E070E0C5
:103E80000E94C93D8B010C151D053CF4288D398D10
:103E9000420E531E40CFB401ADCF7601EE0CFF1C95
:103EA000EC0CFD1CBFEFEB1AFB0A2FEF3FEF42ECCF
:103EB00050E0B701C7010E941E392FEF3FEF4AEED5
:103EC00050E0B701C7010E941E39809197028823F4
:103ED000F1F080918A02E0E58E9FC001112469858E
:103EE0007A850E94C93D5B01AB014E535F4F2FEFB6
:103EF0003FEFB701C7010E941E394AEE50E04A1950
:103F00005B092FEF3FEFB701C7010E941E39FFEF9A
:103F1000CF1ADF0AB8CFCF92DF92EF92FF920F93C2
:103F20001F93CF93DF93CDB7DEB764970FB6F894A6
:103F3000DEBF0FBECDBF80910401882309F451C0BC
:103F400010920401E091D30BF091D40BEE0FFF1F00
:103F5000E15FFA4F65917491CE0101960E941A407B
:103F60008091300B66E375E0811102C06DE375E06E
:103F700082E69DE00E942C40BE016F5F7F4F82E68B
:103F80009DE00E94214082E69DE00E94841946E85F
:103F9000E42E41E3F42E0DE315E621E048E250E083
:103FA00060E170E085E495E00E944F3A21E048E24C
:103FB00050E06AEA70E082E595E00E944F3A21E025
:103FC0004EE650E060E170E08EE595E00E944F3AE9
:103FD00021E04EE650E06AEA70E088E695E00E9453
:103FE0004F3A8091D80B9091D90BC82ED12CDC2C54
:103FF000CC24C90ED11CC114D10409F07BC066E1E8
:1040000075E082E69DE00E942C4026E8E22E21E346
:10401000F22E0FEF1FEF22E04CE350E060E170E082
:1040200082E69DE00E944F3A8091DC0B682F70E0A1
:10403000811189C066E175E082E69DE00E942C4016
:1040400096E8E92E91E3F92E0FEF1FEF22E04CE303
:1040500050E06AEA70E082E69DE00E944F3ACD2887
:1040600009F078C066E175E082E69DE00E942C4090
:1040700086E8E82E81E3F82E0FEF1FEF22E042E8FA
:1040800050E060E170E082E69DE00E944F3A80914E
:10409000DA0B4AE062E67DE090E00E94334082E67F
:1040A0009DE00E94830F64E775E082E69DE00E9438
:1040B000214022E042E850E06AEA70E082E69DE0BA
:1040C0000E944F3A8091230B9091240B18161906E9
:1040D00014F40E948B1D64960FB6F894DEBF0FBED9
:1040E000CDBFDF91CF911F910F91FF90EF90DF90A7
:1040F000CF90089588EEC81683E0D806C4F4809166
:10410000230B9091240B181619068CF44AE062E6F2
:104110007DE0C6010E94334082E69DE00E94830F4D
:1041200064E775E082E69DE00E9421406ECFC60103
:104130006AE070E00E94C93DCB014AE062E67DE0A2
:104140000E943340EDCF6852710982E69DE00E94E3
:10415000451076CF8091DB0B8F7790E005966AE073
:1041600070E00E94C93DCB014AE062E67DE02AE0B2
:10417000FC012E9FC0012F9F900D11240E943340FF
:104180006EE275E082E69DE00E94214071CF8F9241
:104190009F92AF92BF92EF92FF920F931F93CF9394
:1041A000DF9300D000D0CDB7DEB780910401882323
:1041B00009F44DC0109204018091970B8F708130EB
:1041C00031F0823009F427C184E995E002C087E725
:1041D00095E00E94841956E8E52E51E3F52E0DE393
:1041E00015E621E04EE150E060E170E089EA95E0FB
:1041F0000E944F3A21E04EE150E06AEA70E084EB21
:1042000095E00E944F3A21E048E550E060E170E01F
:104210008EEB95E00E944F3A21E048E550E06AEAD3
:1042200070E08AEC95E00E944F3A21E042E950E0CC
:1042300060E170E088E095E00E944F3A21E042E9B9
:1042400050E06AEA70E085ED95E00E944F3A809177
:104250003E0B90913F0B181619060CF0DFC08091B1
:104260009D0B807890E0880F991F0091980B080FA4
:10427000192F111D20919E0B30E0D8010E94053EA0
:1042800069837A838B839C832FEF30E040E050E09A
:104290000E94DD3D49014AE062E67DE0C8010E94DE
:1042A00033406DE175E082E69DE00E94214046E8E2
:1042B000E42E41E3F42E0FEF1FEF22E040E350E045
:1042C00060E170E082E69DE00E944F3A8091990B98
:1042D0004AE062E67DE025E0829FC00111240E9451
:1042E000334061E275E082E69DE00E94214022E0D9
:1042F00040E350E06AEA70E082E69DE00E944F3AB7
:104300004AE062E67DE0C4010E9433406DE175E061
:1043100082E69DE00E94214022E04AE650E060E112
:1043200070E082E69DE00E944F3A80919B0B4AE04C
:1043300062E67DE025E0829FC00111240E943340A7
:1043400061E275E082E69DE00E94214022E04AE6BB
:1043500050E06AEA70E082E69DE00E944F3A609188
:104360009C0B70E082E69DE00E94451022E044EA4A
:1043700050E060E170E082E69DE00E944F3A80915B
:104380009D0B8F774AE062E67DE090E00E9433402B
:104390006EED75E082E69DE00E94214022E044EA55
:1043A00050E06AEA70E082E69DE00E944F3A809118
:1043B000970B82958F70E82FF0E000E01CEF8930BA
:1043C00051F00FEE1BE7813031F000EE17E088234B
:1043D00011F000E018EFEE0FFF1FEB52FD4F26E843
:1043E000E22E21E3F22E21E042ED50E060EA70E09F
:1043F000808191810E94B13A0F900F900F900F90A1
:10440000DF91CF911F910F91FF90EF90BF90AF90F0
:104410009F908F90089585E895E0DBCE63EE75E080
:1044200082E69DE00E942C4086E8E82E81E3F82E8B
:104430000FEF1FEF22E040E350E060E170E082E622
:104440009DE00E944F3A22E040E350E06AEA70E0CB
:1044500082E69DE00E944F3A22E04AE650E060E1A9
:1044600070E082E69DE00E944F3A22E04AE650E08A
:104470006AEA70E082E69DE00E944F3A22E044EA58
:1044800050E060E170E082E69DE00E944F3A22E059
:1044900044EA50E06AEA70E082E69DE00E944F3A0A
:1044A00000E018EF21E042ED50E060EA70E089EEB4
:1044B00095E0A0CF4F925F926F927F928F929F92E2
:1044C000AF92BF92CF92DF92EF92FF920F931F9322
:1044D000CF93DF93409100012091030B3091040BA7
:1044E0004203C001439F900D11241AE0C12ED12C2C
:1044F000893E93401CF4CC24C394D12C80910401B8
:10450000882309F454C01092040184E796E00E94C5
:104510008419C6E8EC2EC1E3FC2E0DE315E621E07C
:104520004EE150E060E170E08CEF95E00E944F3A80
:1045300021E04EE150E06AEA70E089E096E00E94F6
:104540004F3A21E04AE550E060E170E084E196E016
:104550000E944F3A21E04AE550E06AEA70E081E2C9
:1045600096E00E944F3A21E046E950E060E170E0B9
:104570008DE296E00E944F3A21E046E950E06CE37C
:1045800070E084EC95E00E944F3A21E046E950E06B
:1045900064E870E08FE096E00E944F3A21E046E93F
:1045A00050E06CEC70E08DE895E00E944F3A40914D
:1045B0000001042E000C550BBBEFAB2EBAE0BB2E56
:1045C000F50130E020E090E080E0241735070CF49E
:1045D0001CC16AE070E00E94C93DCB014AE062E67E
:1045E0007DE00E9433406DE175E082E69DE00E942F
:1045F0002140A6E8EA2EA1E3FA2E0FEF1FEF22E0FA
:1046000042E350E060E170E082E69DE00E944F3AB4
:104610008091FD0A9091FE0A2091080B3091090BC0
:10462000820F931F2091130B3091140B820F931F55
:10463000B6010E94C93DCB014AE062E67DE00E94DE
:10464000334031E0C316D10421F482E69DE00E949C
:10465000830F61E275E082E69DE00E942140F6E86A
:10466000EF2EF1E3FF2E0FEF1FEF22E042E350E0C9
:104670006AEA70E082E69DE00E944F3A80918D02E6
:1046800090E0C0918E02C7FD9395CF7720910001F5
:104690003C2F2303E00111244AE062E67DE00E9402
:1046A00033406DE175E082E69DE00E942140E6E83E
:1046B000EE2EE1E3FE2E0FEF1FEF22E04EE650E07C
:1046C00060E170E082E69DE00E944F3A2AE02C9F74
:1046D000C0012D9F900D1124B6010E94C93DCB0150
:1046E0004AE062E67DE00E94334081E0C816D104D2
:1046F00021F482E69DE00E94830F61E275E082E68C
:104700009DE00E94214056E8E52E51E3F52E0FEF83
:104710001FEF22E04EE650E06AEA70E082E69DE09C
:104720000E944F3A66E3662E6BE0762ECAEAD0E02E
:10473000912C812C7AE0472E512CEFEF8E1A9E0A95
:104740004AE062E67DE0C4010E94334046E8E42E80
:1047500041E3F42E0FEF1FEF21E0AE0160E170E0C6
:1047600082E69DE00E944F3AF50180819181B2017D
:104770000E94C93DCB014AE062E67DE00E943340E1
:1047800064E775E082E69DE00E94214021E0AE01F1
:104790006CE370E082E69DE00E944F3AF501828171
:1047A0009381B6010E94C93DCB014AE062E67DE0FB
:1047B0000E943340F1E0CF16D10421F482E69DE05F
:1047C0000E94830F6FE276E082E69DE00E94214026
:1047D00036E8E32E31E3F32E0FEF1FEF21E0AE01B9
:1047E00064E870E082E69DE00E944F3AF301819117
:1047F00091913F01892B99F400E018EF21E0AE017F
:104800006CEC70E082E396E01AC0608171818617DB
:1048100097070CF4CB012F5F3F4F3B96D6CEF501A7
:104820008285882341F126E8E22E21E3F22E00E082
:1048300018EF21E0AE016CEC70E08BE396E00E9493
:104840004F3A6496FBE0AF0EB11C23E08216910450
:1048500009F073CFDF91CF911F910F91FF90EF90EF
:10486000DF90CF90BF90AF909F908F907F906F9090
:104870005F904F900895848196E8E92E91E3F92E98
:1048800080FF09C000E018EF21E0AE016CEC70E0A1
:1048900084E496E0D4CF81FF09C000E018EF21E066
:1048A000AE016CEC70E08DE496E0C9CF82FF09C0E8
:1048B00000E018EF21E0AE016CEC70E086E596E0D8
:1048C000BECF83FF09C000E018EF21E0AE016CEC21
:1048D00070E08FE596E0B3CF84FD8ECF00EE17E059
:1048E00021E0AE016CEC70E088E696E0A8CFEF9294
:1048F000FF920F931F9380910001833031F41F9139
:104900000F91FF90EF900C945A228091040188231C
:1049100081F11092040181E796E00E94841956E823
:10492000E52E51E3F52E0DE315E621E048E250E0D7
:1049300060E170E083E896E00E944F3A21E048E2AF
:1049400050E06AEA70E08FE896E00E944F3A21E07A
:104950004EE650E060E170E08BE996E00E944F3A4D
:1049600021E04EE650E06AEA70E081E296E00E94C3
:104970004F3A8091FB0A9091FC0A181619060CF028
:1049800094C06AE070E00E94C93DCB014AE062E653
:104990007DE00E9433406DE175E082E69DE00E947B
:1049A000214046E8E42E41E3F42E0FEF1FEF22E012
:1049B0004CE350E060E170E082E69DE00E944F3AF7
:1049C0008091FD0A9091FE0A181619060CF074C029
:1049D0004AE062E67DE00E94334082E69DE00E946C
:1049E000830F61E275E082E69DE00E94214036E897
:1049F000E32E31E3F32E0FEF1FEF22E04CE350E004
:104A00006AEA70E082E69DE00E944F3A8091010BD5
:104A10009091020B6AE070E00E94C93DCB014AE030
:104A200062E67DE00E9433406DE175E082E69DE044
:104A30000E94214022E042E850E060E170E082E61E
:104A40009DE00E944F3A4AE062E67DE08091030BD0
:104A50009091040B0E94334082E69DE00E94830FF8
:104A600061E275E082E69DE00E94214022E042E89A
:104A700050E06AEA70E082E69DE00E944F3A809141
:104A8000360B9091370B892BF1F400E018EF21E001
:104A900048EC50E060EA70E087EA96E00E94B13AA4
:104AA0001F910F91FF90EF90089563EE75E082E6FD
:104AB0009DE00E942C4075CF66E175E082E69DE0A6
:104AC0000E942C4094CF8091050B882371F026E83A
:104AD000E22E21E3F22E00E018EF21E048EC50E056
:104AE00060EA70E08BEB96E0D9CF8091FF0A96E800
:104AF000E92E91E3F92E80FF0AC000E018EF21E0D3
:104B000048EC50E060EA70E08FEC96E0C7CF81FFA0
:104B10000AC000E018EF21E048EC50E060EA70E0E5
:104B200083EE96E0BBCF82FF0AC000E018EF21E0E1
:104B300048EC50E060EA70E087EF96E0AFCF83FF8B
:104B40000AC000E018EF21E048EC50E060EA70E0B5
:104B50008BE097E0A3CF84FF0AC000E018EF21E0CC
:104B600048EC50E060EA70E08FE197E097CF00EE0C
:104B700017E021E048EC50E060EA70E083E397E062
:104B80008DCF2F923F924F925F926F927F928F9232
:104B90009F92AF92BF92CF92DF92EF92FF920F93CC
:104BA0001F93CF93DF93CDB7DEB764970FB6F8941A
:104BB000DEBF0FBECDBFABEBEA2EA1E0FA2ED701D0
:104BC00090E080E01D861E861F86188A1C8A1B8A3C
:104BD0001A8A198A912C812C18E8612E13E1712E02
:104BE00008E13D91332359F1089FF001099FF00D31
:104BF0001124E252F44F21E0182F419151914615B2
:104C0000570518F4198B2A8B3A018416950618F467
:104C10001B8B2C8B4A01052E000C660B770BAD8489
:104C2000BE84CF84D888A40EB51EC61ED71EAD86FE
:104C3000BE86CF86D88A41E0420F3213D6C1019694
:104C40008031910571F60091230B1091240B212CDA
:104C5000312C2101101611066CF46D857E858F852F
:104C600098899801012E000C440B550B0E94DD3DE4
:104C700019012A01EFE6FBE02FE83BE0B12CA12C63
:104C8000D12CC12CD7018D917D01882381F08081A9
:104C9000882329F0C80ED11CBFEFAB1ABB0A818153
:104CA000882329F0C80ED11C8FEFA81AB80A3296B3
:104CB0002E173F0739F792E0A916B1042CF0C60170
:104CC000B5010E94C93D6B0180910401882309F45C
:104CD00067C0109204014AE0BE016F5F7F4FC801B8
:104CE0000E94334067E477E082E69DE00E942C401A
:104CF000BE016F5F7F4F82E69DE00E94214066E526
:104D000077E082E69DE00E94214082E69DE00E94DD
:104D100084198091300BF6E8EF2EF1E3FF2E0DE3BE
:104D200015E621E048E250E060E170E0882309F4F4
:104D30005EC1809181029091400B892B09F057C18F
:104D400085E495E00E944F3A8091300BE6E8EE2E24
:104D5000E1E3FE2E0DE315E621E048E250E06AEAC9
:104D600070E0882309F446C182E595E00E944F3A3D
:104D700076E8E72E71E3F72E0DE315E621E04EE627
:104D800050E060E170E082E797E00E944F3A21E056
:104D90004EE650E06AEA70E08EE797E00E944F3AF4
:104DA0008091300B882309F428C18091400B9091A9
:104DB0008102892B09F021C16D857E858F859889B7
:104DC00024E630E040E050E00E94DD3D89014AE009
:104DD00062E67DE0C8010E94334082E69DE00E94C9
:104DE000830F64E775E082E69DE00E94214066E85B
:104DF000E62E61E3F62E0FEF1FEF22E04CE350E0CA
:104E000060E170E082E69DE00E944F3A8091300BB5
:104E1000882309F40FC18091DC0B882309F40AC1AF
:104E20006091DC0B6852770B82E69DE00E94451092
:104E300022E04CE350E06AEA70E082E69DE00E94E6
:104E40004F3AC30105962AE0C22ED12CB6010E942A
:104E5000B53DCB014AE062E67DE00E94334082E648
:104E60009DE00E94A50F6AE877E082E69DE00E943F
:104E7000214036E8E32E31E3F32E0FEF1FEF22E05F
:104E800042E850E060E170E082E69DE00E944F3A27
:104E90006CE877E0CE0101960E942C404AE062E681
:104EA0007DE0A9888A2D90E00E94334062E67DE093
:104EB000CE0101960E9421406EE877E0CE01019676
:104EC0000E9421404AE062E67DE0BA888B2D90E0A6
:104ED0000E94334062E67DE0CE0101960E942140AF
:104EE00069E278E0CE0101960E9421400FEE1BE7B7
:104EF00021E045EA50E060E170E0CE0101960E94B9
:104F00004F3AC4010596B6010E94B53DCB014AE077
:104F100062E67DE00E94334082E69DE00E94A50F9C
:104F20006AE877E082E69DE00E9421400FEF1FEFE4
:104F300022E042E850E06AEA70E082E69DE00E94EA
:104F40004F3A6CE877E0CE0101960E942C404AE08F
:104F500062E67DE0CB888C2D90E00E94334062E6D3
:104F60007DE0CE0101960E9421406EE877E0CE01FF
:104F700001960E9421404AE062E67DE0DC888D2DAA
:104F800090E00E94334062E67DE0CE0101960E94EF
:104F9000214069E278E0CE0101960E9421400FEEA7
:104FA0001BE721E045EA50E06AEA70E0CE01019695
:104FB0000E944F3A0E948B1D64960FB6F894DEBF94
:104FC0000FBECDBFDF91CF911F910F91FF90EF905A
:104FD000DF90CF90BF90AF909F908F907F906F9019
:104FE0005F904F903F902F900895242F06CE8DE52F
:104FF00097E0A8CE89E697E0B9CED201C101059627
:10500000A11DB11D8D879E87AF87B88BBC01CD01D7
:105010002AE030E040E050E00E94DD3D89014AE0B6
:1050200062E67DE0C8010E94334082E69DE00E9476
:10503000A50FD7CEAB2871F0B6016852710982E690
:105040009DE00E94451056E8E52E51E3F52E0FEF46
:105050001FEFEECE46E8E42E41E3F42E0FEF1FEFF4
:1050600022E04CE350E06AEA70E083EE95E0E7CEA0
:10507000EF92FF920F931F93CF93DF9380910401E0
:10508000882309F450C010920401D0E0C0E00AE87F
:1050900012E52FEE30E0AE0170E060E0CE010E943C
:1050A000DE382296C03481E0D80789F700E018EF97
:1050B00029EA30E04BE251E066E470E084E190E000
:1050C0000E94DE3810E000E025EA30E047E251E0DF
:1050D0006AE470E088E190E00E94DE38E0912E0BF7
:1050E000F0E0EE0FFF1FE254FC4F6591749182E6F1
:1050F0009DE00E941A40F12CE12C00E018EF21E025
:105100004AE550E060EA70E081E997E00E94B13A38
:105110000FEF1FEF21E042E850E060EA70E082E626
:105120009DE00E94B13ADF91CF911F910F91FF90C6
:10513000EF9008956F927F928F929F92AF92BF925D
:10514000DF92EF92FF920F931F93CF93DF93EC01C7
:10515000F62E0E94B708882349F0DD24D39480916D
:10516000470B9091480B8C179D0709F0D12C8D2D82
:105170008170D82E8C85882309F454C0D11054C076
:105180000E811F818091600D9091610D1816190696
:1051900054F480918D0D90918E0D181619061CF403
:1051A0007801D11002C0E12CF12C8A809B806880AC
:1051B00079802C813D81590137FF03C08FEFA81AF8
:1051C000B80AB594A794A60CB71C37FF02C02F5F8E
:1051D0003F4F35952795621A730A9401205E3F4F21
:1051E000A501B401C3010E94DE389401225E3F4F45
:1051F000A50142505109B4016E5F7F4F8701C30181
:1052000002960E94DE38088519854A815B81485FD5
:105210005F4F6881798121E08A859B850E94B13A40
:10522000DC8604C0D110ACCFF110AACFDF91CF91B2
:105230001F910F91FF90EF90DF90BF90AF909F90E4
:105240008F907F906F9008954F925F926F927F92B0
:105250008F929F92AF92BF92CF92DF92EF92FF9286
:105260000F931F93CF93DF9300D000D0CDB7DEB75D
:10527000809189026091300B8B3F08F05CC02091D7
:10528000D30B3091D40B2330310519F0662309F488
:1052900063C09AE0899F60011124A0E3CA1AA8EFB5
:1052A000DA0AB0900401BB20A9F110920401662330
:1052B00009F48EC04AE0BE016F5F7F4F8091230BDF
:1052C0009091240B0E9433406AE977E082E69DE0EA
:1052D0000E942C40BE016F5F7F4F82E69DE00E94DE
:1052E000214066E577E082E69DE00E94214082E66B
:1052F0009DE00E94841926E8E22E21E3F22E0DE3C0
:1053000015E621E048E250E06CE070E08EEC97E0BA
:105310000E944F3A8091300B882309F476C0109296
:105320001F0B10921E0B80912F0B8111A5C088E0DE
:10533000682E712CA4C08B3F79F48091230B90913F
:10534000240B1816190644F48091D30B9091D40BBA
:10535000039749F1611127C048E8C42E43E1D42ED8
:10536000A0CFD5014D915D915D01481759070CF40F
:10537000CA01C416D5060CF46A013196E815F90580
:1053800084F3285E3F4FE216F306C9F4C80ED91E17
:10539000D7FE03C0FFEFCF1ADF0AD594C7948AE087
:1053A000C80ED11C7ECF0BEB11E02EED3BE07EE56D
:1053B000E72E7DE0F72ED12CC12C88E893E1F8018F
:1053C000A1918F018A2E912C5901F0E0E0E0D6CF17
:1053D00089EA97E00E94841936E8E32E31E3F32E40
:1053E0000DE315E621E045EA50E06CE070E080EC6A
:1053F00097E00E944F3A21E045EA50E062EA70E00F
:1054000087EC97E00E944F3A76CF4AE062E67DE073
:1054100080911E0B90911F0B0E94334069E278E04F
:1054200082E69DE00E9421408091D30B9091D40BA5
:105430008330910509F496C0049709F096C080E086
:1054400098EF20919702222339F020912E0B2D7F87
:10545000243011F480E098EF7C010FEF1FEF21E082
:1054600042E050E062E171E082E69DE00E944F3A46
:105470008091300B811157CF9CE0692E712C912CBB
:10548000812CBCE04B2E1EE1512E0BE4A02E80910E
:105490001E0B90911F0BFC01E554FE4F2081281537
:1054A000190409F00CF464C0489EF001499EF00D07
:1054B0001124E80DF91DEE0FFF1FE252F44F4AE0F0
:1054C00062E67DE0808191810E94334082E69DE02A
:1054D0000E94F10FC4019595879595958795589EE3
:1054E000A001599E500D11244A5B5F4FC401837087
:1054F0009927A89EB001A99E700D1124645F7F4F6B
:10550000E6E8EE2EE1E3FE2E0FEF1FEF21E082E64C
:105510009DE00E944F3A9FEF891A990A6814790416
:1055200009F0B5CF8091300B882309F478C08091C1
:105530002F0B882321F10E948B1D0F900F900F904D
:105540000F90DF91CF911F910F91FF90EF90DF901F
:10555000CF90BF90AF909F908F907F906F905F9013
:105560004F90089580EE97E06CCF8FEE9BE769CF68
:1055700065E278E082E69DE00E942C40ABCF8EEDA4
:10558000A82E8BE0B82ED12CC12C9EE1892E2BE4C5
:10559000922E8091BC018C151D04D1F1CCF14AE012
:1055A00062E67DE0D50158968D919C910E94334032
:1055B00082E69DE00E94F10FC6019595879595952D
:1055C0008795889EA001899E500D11244E575F4FEC
:1055D000C60183709927989EB001999E700D112481
:1055E000645F7F4F06E8E02E01E3F02E0FEF1FEF20
:1055F00021E082E69DE00E944F3ABFEFCB1ADB0A22
:10560000E2E0AE0EB11CF8E0CF16D10411F693CF54
:1056100065E278E082E69DE00E942C40CDCFE091EB
:105620001E0BF0911F0BEE0FFF1FE159F44F61812C
:10563000611184C063EE75E082E69DE00E942C401B
:10564000E6E8EE2EE1E3FE2E0FEF1FEF21E045EA44
:1056500050E060E670E082E69DE00E944F3AE09103
:105660001E0BF0911F0BEE0FFF1FE159F44F6081ED
:1056700061116BC063EE75E082E69DE00E942C40F4
:1056800046E8E42E41E3F42E0FEF1FEF21E045EA58
:1056900050E066EF70E082E69DE00E944F3AF12C08
:1056A000E12C5CE0852E6EE1962E7BE4A72E8091A6
:1056B0001E0B90911F0B889EF001899EF00D112406
:1056C000EE0DFF1DEE0FFF1FE252F44F808191811E
:1056D00000E01CEFC816D90614F006E811E3C70174
:1056E0009595879595958795989EB001999E700D93
:1056F0001124970123703327A29EC001A39E900D11
:1057000011249B01275A3F4FAC01485B5F4F685AF9
:105710007F4F0C960E94DE388FEFE81AF80A9CE063
:10572000E916F10421F66B2D8DE691E00E949A288E
:105730006B2D80E691E00E949A28FFCE6852770B8D
:1057400082E69DE00E9445107BCF6852770B82E68F
:105750009DE00E94451094CFEF92FF920F931F930C
:10576000CF93C0910401CC2361F110920401F12C7C
:10577000E12C0AE812E52FEE30E0A70170E060E0CE
:10578000C7010E94DE3882E0E80EF11C80E4E816D2
:1057900081E0F80671F728EE30E048E151E064E17D
:1057A00070E088E290E00E94DE3810E000E026EE33
:1057B00030E046E151E066E170E08AE290E00E946C
:1057C000DE388091D30B9091D40B892B21F08091FE
:1057D000300B882371F1489B02C065992AC08FEE77
:1057E0009BE79093B5018093B4018FEF9FEF909367
:1057F000B7018093B6016C2F8EEA91E00E949A283F
:105800006C2F81EA91E00E949A286C2F84E991E044
:105810000E949A286C2F87E891E00E949A286C2FAA
:105820008AE791E0CF911F910F91FF90EF900C9438
:105830009A288AE892E59093B5018093B401D7CF76
:10584000CF92DF92EF92FF920F931F93CF93DF934C
:10585000CDB7DEB76C970FB6F894DEBF0FBECDBFE5
:10586000D0900401DD2009F469C0109204018091F8
:10587000300B882309F4EEC08CED97E00E94841968
:105880008091300B882321F080913C0B882379F0A4
:10589000F6E8EF2EF1E3FF2E0FEF1FEF22E04EE1CF
:1058A00050E068E070E083EF97E00E944F3AE6E84E
:1058B000EE2EE1E3FE2E0FEF1FEF22E04AE550E06F
:1058C00068E070E083EF97E00E944F3A22E046E9FB
:1058D00050E068E070E083EF97E00E944F3A8091DB
:1058E000300B882321F080913C0B882379F076E8F7
:1058F000E72E71E3F72E0FEF1FEF22E04EE150E0AD
:1059000060E271E085EF97E00E944F3A66E8E62E8C
:1059100061E3F62E0FEF1FEF22E04AE550E060E270
:1059200071E085EF97E00E944F3A22E046E950E0AF
:1059300060E271E085EF97E00E944F3A6D2D85E0BF
:1059400091E00E949A288091220B56E8E52E51E3BF
:10595000F52E823009F081C00DE315E621E048E222
:1059600050E060EA70E087EF97E00E94B13A21E0F2
:105970004AE550E060EA70E089E098E00E94B13AC0
:1059800021E046E950E060EA70E084E198E00E949E
:10599000B13A4AE0BE016F5F7F4F80911E0B90913C
:1059A0001F0B0E94334060E278E082E69DE00E9497
:1059B0002C40BE016F5F7F4F82E69DE00E94214038
:1059C00060E278E082E69DE00E9421400FEF1FEF49
:1059D00021E04EE650E060EA70E082E69DE00E9441
:1059E000B13AE0911E0BF0911F0BE554FE4F808100
:1059F0004AE0BE016F5F7F4F90E00E94334060E25B
:105A000078E082E69DE00E942C40BE016F5F7F4FF0
:105A100082E69DE00E94214060E278E082E69DE01F
:105A20000E94214021E04AEA50E060EA70E082E60C
:105A30009DE00E94B13A6C960FB6F894DEBF0FBE9F
:105A4000CDBFDF91CF911F910F91FF90EF90DF902D
:105A5000CF90089586EE97E011CF813009F091C084
:105A600000EE17E021E048E250E060EA70E08BE2EF
:105A700098E00E94B13A0DE315E621E04AE550E0D6
:105A800060EA70E08EE398E00E94B13A21E046E9D6
:105A900050E060EA70E089E498E00E94B13AE09159
:105AA0001C0BF0911D0BEE0FFF1FE355FD4F0FEF89
:105AB0001FEF21E04EE650E060EA70E080819181C6
:105AC0000E94B13A20911C0B30911D0BF901ED574A
:105AD000F24F4081842F90E0B90162507109623029
