:100000000C9496080C94B5080C94B5080C94B5089B
:100010000C94B5080C94B5080C94B5080C94B5086C
:100020000C94B5080C94B5080C94B5080C94B5085C
:100030000C94B5080C94B5080C94B5080C94F11602
:100040000C943B090C94D60C0C94B5080C94B50890
:100050000C94B5080C94B5080C94B5080C94B5082C
:100060000C94B5080C94B5080C94B5080C94B5081C
:100070000C94B5080C94B5080C94B5080C94B5080C
:100080000C94B5080C94B5080C94B5080C94B508FC
:100090000C94B5083503250316030703F402E202A6
:1000A000D002C002B0029E028D027C026A02580297
:1000B0004602340221021002FF01EC01D901C601FF
:1000C000B3019F018E017C016A0157014601320193
:1000D00020010F01FD00EC00DA00202020536F43C7
:1000E00020446973706C617920202000205573656D
:1000F0002046616872656E68656974200020202062
:100100002042757A7A6572204F6E20202020004EA2
:1001100069676874204272696768746E65737300FA
:100120005265762E2043757272656E742044697331
:100130007000202053746174696F6E617279204D74
:100140006F6465202000456E61626C6520507265A9
:100150006368617267650020506172616C6C656CE8
:1001600020537472696E6773200020204D504F3207
:100170002046756E6374696F6E20200020204D50FC
:100180004F312046756E6374696F6E202000202009
:100190004D50492046756E6374696F6E20200020B3
:1001A000202020536C6565702044656C61792020A7
:1001B000202000416C74204368617267652043759C
:1001C0007272656E7400416C742043686172676579
:1001D00020566F6C74616765004D617820436861DB
:1001E0007267652043757272656E74004D61782088
:1001F00043686172676520566F6C746167650020A3
:1002000020424D53204D61782054656D70202000B0
:100210002020424D53204D696E2054656D70202082
:10022000002020424D5320487973746572657369CC
:10023000732020002042616C616E636520566F6CF4
:1002400074616765200020424D53204D617820562F
:100250006F6C74616765200020424D53204D696EBC
:1002600020566F6C7461676520002054656D7020A6
:10027000476175676520436F6C6420002054656D8D
:100280007020476175676520486F7420004675656A
:100290006C20476175676520456D70747900204654
:1002A00075656C2047617567652046756C6C20002C
:1002B000202020546163686F20505052202020007D
:1002C000204D696E2049736F6C6174696F6E2000F8
:1002D000204D696E2041757820566F6C746167659A
:1002E000200045564D532054656D70205761726E45
:1002F000696E670020202054726970204375727205
:10030000656E7420202000205761726E2043757244
:1003100072656E7420002046756C6C20566F6C748C
:1003200061676520002020536F43205761726E691A
:100330006E67202000205061636B20436170616311
:10034000697479200086037B0373036A0360035A90
:10035000035303537461747573004572726F7200B6
:10036000556E64657274656D70004F766572746564
:100370006D70004C6F7720536F430054656D702093
:1003800067617567650047726F756E6400B603AB91
:1003900003A003950343747220617578207377007E
:1003A00048646C6967687420696E00416C742063EE
:1003B00068617267650057616B652075700006059E
:1003C000F504E104CC04BD04AD049D0489047A0461
:1003D0006A04570446043604260415040504F3038E
:1003E000E2034E6F20636F6D6D7320746F2045566E
:1003F0004D5300424D53202D20436F6D6D7320658A
:1004000072726F7200436F6E746163746F722066F4
:1004100061756C740050726563686172676520660F
:1004200061696C6564004C6F7720313256206261DF
:1004300074746572790049736F6C6174696F6E20B2
:100440006661756C74004F7665722D74656D7065AC
:10045000726174757265004C6F77206261747465A7
:1004600072792063686172676500424D53202D20C8
:10047000556E64657274656D7000424D53202D2079
:100480004F76657274656D700043686172676520B0
:10049000656E64656420627920424D5300424D537D
:1004A000202D20486967682063656C6C005368756F
:1004B00074646F776E20627920424D5300424D5331
:1004C000202D204C6F772063656C6C004F76657231
:1004D00063757272656E742073687574646F776E7D
:1004E000004F76657263757272656E742077617203
:1004F0006E696E6700436F727275707420736574F5
:1005000074696E6773004E6F206572726F72004679
:10051000053A053205290521051B055365747570DB
:100520000053746F70706564004368617267696E30
:10053000670052756E6E696E670050726563686120
:100540007267696E670049646C6500000000000016
:10055000000000000000000000000000000000009B
:100560000000000000000000000000000000000784
:10057000000F800F800F800F800F800700070000A2
:10058000000000070007000700000000000E380E02
:10059000380E380E38063000000000000000000061
:1005A000000000000000000000000000000C300C03
:1005B000300C307FFE7FFE0C300C300C300C307F66
:1005C000FE7FFE0C300C300C3000000000024002B8
:1005D000400FF81FF81A401A401FF00FF802580297
:1005E000581FF81FF0024002400000000000000009
:1005F000000E100E300E7000E001C0038007000EE8
:10060000700C700870000000000000000000000F77
:10061000001980198019800F000F080F9819F81819
:10062000F018E019F00F980000000000000000072B
:1006300000070007000E000000000000000000009E
:1006400000000000000000000000000000000000AA
:10065000F001C0038007000E000E000E000E000720
:1006600000038001C000F000000000000000000F47
:1006700000038001C000E000700070007000700096
:10068000E001C003800F0000000000000000000136
:10069000801188099007E007E03FFC3FFC07E00776
:1006A000E0099011880180000000000000000000B7
:1006B0000000000180018001800FF00FF001800137
:1006C0008001800000000000000000000000000029
:1006D000000000000000000000000000000000001A
:1006E000000700070007000E0000000000000000E7
:1006F0000000000000000000001FF81FF8000000CC
:1007000000000000000000000000000000000000E9
:1007100000000000000000000000000000000000D9
:1007200000070007000700000000000000000000B4
:10073000020006000E001C0038007000E001C0033B
:100740008007000E001C0000000000000000000FE9
:10075000F01C381C781CF81CF81DB81DB81F381F79
:10076000381E381C380FF0000000000000000001A7
:1007700080018003801F801F80038003800380032B
:1007800080038003801FF000000000000000000FC5
:10079000E01C701C380038007000E001C0038007C6
:1007A000000E381C381FF800000000000000000F89
:1007B000E01C701C380038007003C003C0007000DB
:1007C000381C381C700FE000000000000000000022
:1007D000E001E003E006E00CE018E01FF81FF8007D
:1007E000E000E000E003F800000000000000001F4F
:1007F000F81C001C001C001C001FE01FF00078000B
:10080000381C381C700FE0000000000000000003DE
:10081000E007000E001C001C001FF01FF81C381C15
:10082000381C381C380FF000000000000000001FCA
:10083000FC1C1C1C1C1C1C001C0038007000E0016F
:10084000C003800380038000000000000000000F50
:10085000F01C381C381C381F3807E007E01CF81C57
:10086000381C381C380FF000000000000000000F9A
:10087000F01C381C381C381C381FF80FF8003800E2
:1008800038007000E007C000000000000000000019
:100890000000000380038003800000000003800349
:1008A0008003800000000000000000000000000045
:1008B0000000000380038003800000000003800329
:1008C00080038007000000000000000000007000AE
:1008D000E001C0038007000E001C001C000E000792
:1008E00000038001C000E000700000000000000074
:1008F00000000000003FFC3FFC000000003FFC3F08
:10090000FC0000000000000000000000001C000EC1
:10091000000700038001C000E00070007000E001EB
:10092000C0038007000E001C000000000003C00F81
:10093000F01E7818380038007000E001C001C000D7
:1009400000000001C001C001C0000000000FF81C41
:100950001C1C1C1C1C1C1C1CFC1CFC1CFC1CFC1C57
:10096000001C001C001FF007F8000000000000033E
:10097000C007E00E701C381C381C381C381FF81CCF
:10098000381C381C381C3800000000000000001F14
:10099000F00E380E380E380E380FF00FF00E380EFD
:1009A000380E380E381FF00000000000000000076D
:1009B000F00E381C381C001C001C001C001C001C05
:1009C000001C380E3807F000000000000000001F77
:1009D000E00E700E380E380E380E380E380E380E07
:1009E000380E380E701FE000000000000000001FED
:1009F000F80E180E080E000E300FF00FF00E300E2D
:100A0000000E080E181FF800000000000000001F74
:100A1000F80E180E080E000E300FF00FF00E300E0C
:100A2000000E000E001F0000000000000000000784
:100A3000F00E381C381C381C001C001C001CF81C54
:100A4000381C380E3807F800000000000000001CB9
:100A5000701C701C701C701C701FF01FF01C701C30
:100A6000701C701C701C700000000000000000076B
:100A7000F001C001C001C001C001C001C001C0013E
:100A8000C001C001C007F00000000000000000012C
:100A9000FC007000700070007000700070387038DA
:100AA00070387038700FE000000000000000001E79
:100AB000380E380E700EE00FC00F800F800FC00E82
:100AC000E00E700E381E3800000000000000001F0D
:100AD000000E000E000E000E000E000E000E000EA6
:100AE000080E180E381FF800000000000000001C5F
:100AF0001C1E3C1F7C1FFC1FFC1DDC1C9C1C1C1CAA
:100B00001C1C1C1C1C1C1C00000000000000001C05
:100B10001C1C1C1E1C1F1C1F9C1DDC1CFC1C7C1C8C
:100B20003C1C1C1C1C1C1C000000000000000003DE
:100B3000E007F00E381C1C1C1C1C1C1C1C1C1C1C64
:100B40001C0E3807F003E000000000000000001F4A
:100B5000F00E380E380E380E380FF00FF00E000E73
:100B6000000E000E001F0000000000000000000347
:100B7000E00F780E381C1C1C1C1C1C1C1C1C7C1C34
:100B8000FC0FF80FF8003800FC0000000000001F08
:100B9000F00E380E380E380E380FF00FF00E700EC3
:100BA000380E380E381E3800000000000000000F1C
:100BB000F01C381C381C381C000FE007F000381CF3
:100BC000381C381C380FF000000000000000001F27
:100BD000FC19CC11C401C001C001C001C001C00199
:100BE000C001C001C007F000000000000000001CB0
:100BF000701C701C701C701C701C701C701C701C95
:100C0000701C701C700FE000000000000000001C51
:100C1000701C701C701C701C701C701C701C701C74
:100C2000700EE007C0038000000000000000001C00
:100C30001C1C1C1C1C1C1C1C1C1C9C1C9C1C9C0F81
:100C4000F80FF80770077000000000000000001C9B
:100C5000701C701C700EE007C00380038007C00E7C
:100C6000E01C701C701C7000000000000000001CE4
:100C7000701C701C701C701C700EE007C003800399
:100C800080038003800FE000000000000000001FD0
:100C9000F81C381838107000E001C0038007000EFF
:100CA000081C181C381FF800000000000000000796
:100CB000F00700070007000700070007000700070C
:100CC000000700070007F00000000000000000100F
:100CD0000018001C000E000700038001C000E000A7
:100CE000700038001C000700000000000000000732
:100CF000F0007000700070007000700070007000F4
:100D0000700070007007F000000000000001800318
:100D1000C007E00E701C380000000000000000005A
:100D200000000000000000000000000000000000C3
:100D300000000000000000000000000000000000B3
:100D4000000000000000007FFF7FFF000000001C8B
:100D5000001C000700070000000000000000000069
:100D60000000000000000000000000000000000083
:100D7000000000000000000FE0007000700FF01C89
:100D8000701C701C700FD800000000000000001ED6
:100D9000000E000E000E000FF00E380E380E380E4A
:100DA000380E380E381BF000000000000000000074
:100DB000000000000000000FE01C701C701C001CF4
:100DC000001C701C700FE00000000000000000001C
:100DD000F80070007000700FF01C701C701C701C0C
:100DE000701C701C700FD800000000000000000094
:100DF000000000000000000FE01C701C701FF01CC1
:100E0000001C701C700FE0000000000000000003D8
:100E1000E007700770070007001FE01FE0070007EA
:100E200000070007001FC0000000000000000000D5
:100E3000000000000000000FD81C701C701C701C0B
:100E4000700FF007F000701C700FE0000000001E33
:100E5000000E000E000E000EF00F380F380E380E88
:100E6000380E380E381E3800000000000000000167
:100E7000C001C001C000000FC001C001C001C0011D
:100E8000C001C001C00FF800000000000000000019
:100E90007000700070000003F000700070007000BF
:100EA00070007000701C700CF007E0000000001E65
:100EB000000E000E000E000E380E700EE00FC00E79
:100EC000E00E700E381E3800000000000000000F19
:100ED000C001C001C001C001C001C001C001C0010A
:100EE000C001C001C00FF8000000000000000000B9
:100EF000000000000000001FF81C9C1C9C1C9C1C97
:100F00009C1C9C1C9C1C9C0000000000000000001D
:100F1000000000000000001FE01C701C701C701C12
:100F2000701C701C701C70000000000000000000AD
:100F3000000000000000000FE01C701C701C701C02
:100F4000701C701C700FE00000000000000000002A
:100F5000000000000000001BF00E380E380E380EA6
:100F6000380E380FF00E000E001F000000000000C9
:100F7000000000000000001FB038E038E038E03822
:100F8000E038E01FE000E000E001F00000000000B9
:100F9000000000000000001EF00FF80F380E000ED9
:100FA000000E000E001F0000000000000000000006
:100FB000000000000000000FE01C301C300F800318
:100FC000E0187018700FE000000000000000000042
:100FD000000100030007001FF007000700070007DB
:100FE000000770077003E000000000000000000030
:100FF000000000000000001C701C701C701C701CA5
:10100000701C701C700FD800000000000000000071
:10101000000000000000001C701C701C701C701C84
:10102000700EE007C0038000000000000000000018
:10103000000000000000001C1C1C1C1C1C1C9C1C34
:101040009C0FF8077007700000000000000000000F
:10105000000000000000001CE01CE00FC00780073B
:10106000800FC01CE01CE000000000000000000039
:10107000000000000000000E380E380E380E380E4A
:101080003807F003E000E001C01F8000000000000E
:10109000000000000000001FE018E011C0038007FE
:1010A000000E201C601FE000000000000000000196
:1010B000F803800380038007001C001C0007000366
:1010C000800380038001F800000000000001C001DF
:1010D000C001C001C001C001C001C001C001C00108
:1010E000C001C001C001C001C00000000000001F1D
:1010F0008001C001C001C000E00038003800E001FC
:10110000C001C001C01F80000000000000000003FB
:10111000C006600660066003C0000000000000001A
:1011200000000000000000000000000011241FBEAD
:10113000CFEFD0E1DEBFCDBF1AE0A0E0B1E0E6E93D
:10114000F0E800E00BBF02C007900D92AA3EB10785
:10115000D9F72DE0AAEEBAE001C01D92AE3AB2076F
:10116000E1F70E94723B0C943E400C940000FC019D
:1011700060817181848195814091500D5091510D14
:101180009C0197FF02C02F5F3F4F35952795DB01EC
:10119000A21BB30B4A175B07C4F097FD0196959508
:1011A0008795860F971F841795077CF022813381DE
:1011B00040917D0D50917E0D4217530734F0205E13
:1011C0003F4F81E0241735070CF480E081700895CB
:1011D000CF93DF93D82FC92F0E94B708882321F01F
:1011E000D093370BC093380BDF91CF9108952091A6
:1011F0007E02222329F02F9A80931A0B90931B0BC7
:1012000008956091980D88E790E00E94144060E096
:1012100090E080E00C941440882349F18091930D74
:10122000811104C08091170B8823C9F020917D02A1
:10123000229F9001112445E0429FC001439F900DE1
:10124000112497FD01969595879591958195910922
:1012500082509F4F9093990D8093980D04C01092E7
:10126000990D1092980D662329F00C9401098FEFC7
:1012700090E0F0CF08951F921FB61F9211248F9314
:101280009F9380910101909102018E3F91050CF492
:101290008F9A9F918F911F901FBE1F901895CF938B
:1012A000DF939DE0899FE0011124C157D44F98E05E
:1012B000899FF0011124E15CF44FF987E8871082DF
:1012C000118212821382148215821682178281E0A3
:1012D0008C8785E090E09A838983CE010E94343127
:1012E0008111FBCFDF91CF910895CF92DF92EF92E2
:1012F000FF921F93CF93DF9300D000D000D0CDB7E3
:10130000DEB7182F282F30E03E832D833DE0839FEA
:10131000F0011124E157F44FC380D480E580F680BA
:10132000C701B6016C5271408109910969837A83C2
:101330008B839C836A3A71058105910508F0DCC0B6
:101340002AE030E040E050E00E94753DC9012031C4
:101350003105D9F07CE2C71A71E0D70AEAE0E29FD2
:10136000B001E39F700D1124C61AD70AA3E0CA1674
:10137000D10409F48BC0C8F4E1E0CE16D10481F1A8
:10138000F2E0CF16D10409F456C0812F26960FB68D
:10139000F894DEBF0FBECDBFDF91CF911F91FF90BC
:1013A000EF90DF90CF900C944F0964E0C616D10403
:1013B00061F7220F331FF901E15AF44F2D813E816D
:1013C000A3E0220F331FAA95E1F7215C344F3A8343
:1013D0002983D9018C91808311968C918183D5CFFB
:1013E0008D819E8173E0880F991F7A95E1F7815C6A
:1013F000944F9A83898388E1829FF001839FF00D47
:101400001124E253F44F30E020E0A981BA818C919D
:1014100090E0982F882711964C911197840F911D79
:10142000819391932F5F3F4F1296BA83A983243003
:10143000310559F7AACFED81FE8153E0EE0FFF1F72
:101440005A95E1F7E15CF44FFA83E98388E1829FE2
:10145000F001839FF00D1124EA52F44F30E020E0B8
:10146000A981BA818C9190E0982F882711964C9190
:101470001197840F911D819391932F5F3F4F129687
:10148000BA83A9832430310559F77FCFED81FE81DE
:1014900073E0EE0FFF1F7A95E1F7E15CF44FFA83FA
:1014A000E98368E1629FF001639FF00D1124E2522D
:1014B000F44F50E040E0A981BA812C9130E0322F06
:1014C000222711966C911197260F311D219331938C
:1014D0004F5F5F4F1296BA83A9834430510559F785
:1014E000892B09F052CF8091200B882309F44DCF2E
:1014F00081E080931F0B49CFB4EFCB16B7EEDB062C
:10150000B6E0EB06B8E1FB0609F4CAC108F086C0F4
:10151000F2E3CF16D104E104F10409F4A0C108F00C
:1015200049C03EE1C316D104E104F10409F458C1F5
:1015300068E2C616D104E104F10409F026CFED817A
:10154000FE8193E0EE0FFF1F9A95E1F7E15CF44F07
:10155000808190E0B0E0A0E0DC01992788274181FC
:1015600050E070E060E0762F652F542F4427840F01
:10157000951FA61FB71F2281820F911DA11DB11DAE
:10158000A058B1098093330B9093340BA093350B83
:10159000B093360B84E090E09093320B8093310B44
:1015A0008091300B8111F1CE81E08093300B8093DC
:1015B0000401EBCE75E3C716D104E104F10409F48C
:1015C000CBC084EFC81685EED80686E0E80688E131
:1015D000F80609F0DACEED81FE8173E0EE0FFF1F11
:1015E0007A95E1F7E15CF44F808190E0982F8827AD
:1015F0002181820F911D9093F20A8093F10A8281DA
:1016000090E0982F88272381820F911D9093F40AF0
:101610008093F30A84818093F50AB7CE97EEC916BA
:1016200090E5D9069FEFE90698E1F90609F45BC158
:1016300008F04FC0B4EFCB16B8EEDB06B6E0EB0611
:10164000B8E1FB0609F48FC1E5EECE16E0E5DE0653
:10165000EFEFEE06E8E1FE0609F097CE2D813E8120
:1016600043E0220F331F4A95E1F7215C344F3A8360
:101670002983D9018C9190E0982F882711962C917D
:101680001197820F911D9093EC0A8093EB0A1296AA
:101690008C91129790E0982F882713962C9113978E
:1016A000820F911D9093EE0A8093ED0A14968C910F
:1016B00014978093EF0A15968C918093F00A8CE032
:1016C00090E09093270B8093260B81E08093EA0AA9
:1016D0005CCEF8EECF16F0E5DF06FFEFEF06F8E19F
:1016E000FF0609F052CE2D813E8183E0220F331F89
:1016F0008A95E1F7215C344F3A832983D9018C9193
:1017000090E0982F882711962C911197820F911DA8
:101710009093020B8093010B12968C91129790E09C
:10172000982F882713962C911397820F911D9093D1
:10173000040B8093030B14968C9114978093050BE4
:1017400015968C918093060B8CE090E090932B0B78
:1017500080932A0B83E004C12D813E8153E0220F48
:10176000331F5A95E1F7215C344F3A832983D9011D
:101770008C918093730D11968C9111978093740DB9
:1017800012968C9112978093750D13968C911397E6
:101790008093760D14968C911497982F9F70909348
:1017A000770D282F30E064E0359527956A95E1F7AD
:1017B00023702093780D829586958695837080930B
:1017C000790D15968C91159780937A0D16968C91BC
:1017D000169780937B0D17968C9180937C0DD5CDB9
:1017E000ED81FE8143E0EE0FFF1F4A95E1F7E15CDA
:1017F000F44FFA83E98390E080E0A981BA812D91CA
:10180000BA83A983FC01EB53F44F208301968830FF
:10181000910599F710921D0B81E080932D0B90910B
:10182000CA0B9F3F41F48093200B81E794E0909393
:101830007C0180937B018091CB0B881F8827881FB8
:101840008093170B81E02091980D3091990D2F3FD7
:10185000310509F480E060E00E940C0996CD2D81ED
:101860003E8183E0220F331F8A95E1F7215C344FDC
:101870003A832983E7E8FBE0A981BA818D91BA8395
:10188000A9838193BBE0EF38FB07B1F784E090E0D8
:1018900090932F0B80932E0B81E080932C0B75CDB2
:1018A000ED81FE81A3E0EE0FFF1FAA95E1F7E15C59
:1018B000F44F808190E0982F88272181820F911D1D
:1018C0009093FD0A8093FC0A828190E0982F8827EC
:1018D0002381820F911D9093FF0A8093FE0A8481D9
:1018E0008093000B52CD2D813E8173E0220F331F78
:1018F0007A95E1F7215C344F3A832983D9018C91A1
:1019000090E0982F882711962C911197820F911DA6
:101910009093F70A8093F60A12968C91129790E0B2
:10192000982F882713962C911397820F911D9093CF
:10193000F90A8093F80A14968C9114978093FA0A06
:1019400015968C918093FB0A8CE090E09093290B84
:101950008093280B8091000182300CF016CD82E03C
:101960008093000112CDED81FE8143E0EE0FFF1F59
:101970004A95E1F7E15CF44F808190E0982F882749
:101980002181820F911D9093080B8093070B828118
:1019900090E0982F88272381820F911D90930A0B46
:1019A0008093090B848180930B0BEFCC1F920F92D5
:1019B0000FB60F9211240BB60F920F931F932F9314
:1019C0003F934F935F936F937F938F939F93AF93C7
:1019D000BF93CF93EF93FF938091220B9091230BB2
:1019E00001969093230B8093220B8F9880911A0B72
:1019F00090911B0B181619060CF040C08091720DC7
:101A00008823B1F12F9A2E981092720D8091160BA7
:101A1000811118C08091220B9091230B8770992718
:101A2000892B81F40FE81BE0C0E0C8010E949634C6
:101A3000811128C08C2F0E947509035F1F4FCF5F53
:101A4000C43099F7FF91EF91CF91BF91AF919F91E2
:101A50008F917F916F915F914F913F912F911F9146
:101A60000F910F900BBE0F900FBE0F901F90189507
:101A70002F982E9A81E08093720DC8CF85B18F7315
:101A800085B9C4CF8230C9F68C2F0E944F09D5CFBB
:101A9000CF93C82F80911E0B8C1771F081E080933B
:101AA000040110923E0B60E00E940C0988E790E070
:101AB0009093190B8093180BC0931E0BCF91089530
:101AC000EFE9F1E090E080E02191820F911D21E0AB
:101AD000EF3AF207C9F79093140B8093130B089514
:101AE0002F923F924F925F926F927F928F929F922E
:101AF000AF92BF92CF92DF92EF92FF920F931F931C
:101B0000CF93DF93CDB7DEB762970FB6F894DEBF01
:101B10000FBECDBF6F837887712C612C9C01990F0C
:101B2000440B550B2D873E874F87588B2F81388567
:101B300062167306CCF062960FB6F894DEBF0FBE45
:101B4000CDBFDF91CF911F910F91FF90EF90DF906C
:101B5000CF90BF90AF909F908F907F906F905F904D
:101B60004F903F902F9008952F9A2E986D857E85E7
:101B70008F8598890E94903E4B015C012BEA3AEADE
:101B80004AEA50E469839A828B83BC8269817A81B4
:101B90008B819C810E94453F8B018A8B998B20E031
:101BA00030E040E850E469817A818B819C810E9419
:101BB000453F6B017C0120E030E040E85FE30983B2
:101BC0001A838A898B8399899C8369817A818B8125
:101BD0009C810E94E83D87FD41C120E03FEF4FE737
:101BE00057E4C982DA82EB82FC8269817A818B8137
:101BF0009C810E94403F18160CF07BC020E030E032
:101C00004AE754E489829A82AB82BC8269817A81F4
:101C10008B819C810E94ED3D69877A878B879C87A9
:101C200020E030E04AE755E469837A839B859B8313
:101C30008C858C8369817A818B819C810E94453F50
:101C40001B012C0120E030E040E85FE369833A8229
:101C50008B835C8269817A818B819C810E94E83DC3
:101C600087FD44C020E03FEF4FE757E469817A8168
:101C70008B819C810E94403F181654F520E030E093
:101C800040E251E4998599838A858A839B859B8369
:101C90008C858C8369817A818B819C810E94453FF0
:101CA00069837A838B839C8369817A818B819C8110
:101CB0000E945F3ECB01009729F44E814A95F1F7CF
:101CC0004E833CC0E0E9F1E03197F1F70197F3CFA3
:101CD00029823A824B825C8269817A818B819C81E4
:101CE0000E945F3ECB010197F1F7E7CF81E090E0E2
:101CF000FACF20E030E04FE753E409831A839A8952
:101D00009B8389898C8369817A818B819C810E94E4
:101D1000403F18160CF094C0C982DA82EB82FC8234
:101D200069817A818B819C810E945F3E69837A837D
:101D30008B839C8389819A810197F1F72F982E9A42
:101D400020E030E040E85FE309831A838A898B83CF
:101D500099899C8369817A818B819C810E94E83D6D
:101D600087FDCEC020E03FEF4FE757E4C982DA821B
:101D7000EB82FC8269817A818B819C810E94403F49
:101D800018160CF087C020E030E04AE754E489825E
:101D90009A82AB82BC8269817A818B819C810E940C
:101DA000ED3D6B017C0120E030E04AE755E46983BA
:101DB000DA828B83FC8269817A818B819C810E948B
:101DC000453F8B018A87998720E030E040E85FE358
:101DD00069831A838B839C8369817A818B819C813F
:101DE0000E94E83D87FD53C020E03FEF4FE757E4F6
:101DF00069817A818B819C810E94403F1816BCF5D5
:101E000020E030E040E251E4C982DA82EB82FC82D9
:101E100069817A818B819C810E94453F69837A83A5
:101E20008B839C8369817A818B819C810E945F3E38
:101E3000CB010097B1F45D815A95F1F75D834EC0F7
:101E400009831A839A899B8329892C8369817A81E2
:101E50008B819C810E945F3E6E832FCF31E03E8359
:101E60002CCFE0E9F1E03197F1F70197E2CF098358
:101E70001A832A852B8339853C8369817A818B81FA
:101E80009C810E945F3ECB010197F1F7D4CF81E0A6
:101E900090E0FACF20E030E04FE753E409831A8363
:101EA0008A898B8399899C8369817A818B819C81C2
:101EB0000E94403F1816B4F4C982DA82EB82FC8299
:101EC00069817A818B819C810E945F3E69837A83DC
:101ED0008B839C8389819A810197F1F78FEF681A30
:101EE000780A24CE09831A832A892B8339893C8373
:101EF00069817A818B819C810E945F3E6D839BCF3B
:101F000041E04D8398CFFC01DC010D900020E9F702
:101F10001197CD018E1B9F0B8130910539F41282F0
:101F20008081818380E3808382E090E0DF01A80FDD
:101F3000B91F2C9111962C9311970197E80FF91F57
:101F400080818C938EE2808308950F931F93CF93AB
:101F5000DF93CDB7DEB72A970FB6F894DEBF0FBE7A
:101F6000CDBF8C01F80101900020E9F73197E01B0B
:101F7000F10BE330F10518F1C8018E0F9F1FDC0152
:101F80002C9111962C93DF011197AD01400F511F39
:101F9000DA012C91DC012C933297E00FF11F808144
:101FA000DA018C938EE280832A960FB6F894DEBF16
:101FB0000FBECDBFDF91CF911F910F9108956BE7B9
:101FC00074E0CE0101960E94C43FB801CE01019693
:101FD0000E94B93FBE016F5F7F4FC8010E94C43F9E
:101FE000C1CF0F931F93CF93DF93CDB7DEB72A975F
:101FF0000FB6F894DEBF0FBECDBF8C01F801019083
:102000000020E9F73197E01BF10BE430F10558F1BE
:10201000A8014E0F5F1FDA018C9111968C93CF01AE
:102020000197800F911FDC012C91DA012C93DF01C5
:102030001297AD01400F511FDA012C91DC012C9356
:102040003397E00FF11F8081DA018C938EE2808359
:102050002A960FB6F894DEBF0FBECDBFDF91CF91A9
:102060001F910F9108956BE774E0CE0101960E94D5
:10207000C43FB801CE0101960E94B93FBE016F5F17
:102080007F4FC8010E94C43FB9CFCF93DF93D82FB1
:10209000C92FCB0120917F022223D1F049E0469F36
:1020A0009001479F300D1124C90165E070E00E9446
:1020B000613DCB014AE06D2F7C2F80960E94CB3F83
:1020C0006DE774E08D2F9C2FDF91CF910C94B93F79
:1020D0004AE06D2F7C2F0E94CB3F61E874E0F2CF85
:1020E000AF92BF92CF92DF92EF92FF920F931F9326
:1020F000CF93DF93CDB7DEB761970FB6F894DEBF0D
:102100000FBECDBF6C837D838E839F8381E08093E0
:10211000160B5A8749878D87288782E090E09B833A
:102120008A83CE0101960E9434318111FACFCE010B
:1021300001960E9496348130D1F3002309F457C0F0
:10214000802F90E0B0E0A0E08E879F87A88BB98BAE
:10215000BC01CD010E948E3E5B016C0120E030E0AD
:102160004AE755E46E87BF86888BD98A6E857F855E
:10217000888999890E94453F7B018C0120E030E0ED
:1021800040E85FE36E87FF86888B198B6E857F85BD
:10219000888999890E94E83D87FD4FC020E03FEF84
:1021A0004FE757E46E857F85888999890E94403F73
:1021B0001816ACF520E030E040E251E4AE86BF8670
:1021C000C88AD98A6E857F85888999890E94453F0A
:1021D0006E877F87888B998B6E857F8588899989A3
:1021E0000E945F3ECB0120E931E0009799F4109204
:1021F000160B61960FB6F894DEBF0FBECDBFDF9110
:10220000CF911F910F91FF90EF90DF90CF90BF90F3
:10221000AF900895F9013197F1F70197E6CFEE8677
:10222000FF86088B198B6E857F85888999890E9426
:102230005F3ECB010197F1F7DACF81E090E0FACF72
:102240000F938091120B811123C081E080937F0B4B
:102250008091100B9091110BFC01E25AFD4F2081EF
:102260002093800B8B30910534F409973CF082E089
:1022700080937F0B03C00B97029760F000E022E091
:102280004FE75BE06FE170E080E090E00E9470104B
:102290000F91089583E0ECCFCF93DF93D82F87E49D
:1022A00091E00E94B708C091120B8823A1F1C150A0
:1022B000C093120BC23071F48091200B882389F0F7
:1022C00081E08093120B8091870B81110AC01092DC
:1022D000120B07C0C130B9F3C7FF03C082E080937F
:1022E000120B85E091E00E94B708882389F0D11194
:1022F0000FC085E090E09093710D8093700D109267
:10230000150B10920F0B10920E0B81E080930401BD
:10231000DF91CF9108958CE391E00E94B708882364
:10232000A9F0CF5FC093120BC13061F48091870B8D
:102330008111D7CF82E08093120B8091200B811105
:10234000C6CFCFCFC230C9F314F6CBCFC11118C15D
:1023500081E391E00E94B708882331F18091100B4E
:102360009091110B01979093110B8093100B20917A
:10237000200B222369F0382F292F0197FC01EB5005
:10238000FE4F41814423B9F33093100B2093110B7E
:102390008091100B9091110B97FF06C082E290E0A4
:1023A0009093110B8093100B86E291E00E94B70886
:1023B000882319F18091100B9091110B0196909345
:1023C000110B8093100B2091200B222361F09C01B4
:1023D0000196F901EB50FE4F40814423C1F3309345
:1023E000110B2093100B8091100B9091110B839780
:1023F00021F41092110B1092100B8BE191E00E94CE
:10240000B70881115AC080E191E00E94B70821E02D
:1024100030E0882309F465CF4091100B5091110BE7
:102420004431510509F04CC02130310549F491E0A7
:1024300080E0209172022F3709F490E0292F382F85
:10244000FA01E85EFD4F6081F091200BFF2321F03F
:10245000DA01AB50BE4F6C9170E0FF2361F08091C8
:102460001F0B882341F04630510529F484E0809306
:1024700041026CE070E0DA01A55CBD4F8C9190E008
:10248000DA01A25ABD4FEC912E0F311D28173907E2
:102490002CF0C901621773070CF4CB018C93FF2356
:1024A00009F45BC04730510509F057C0843008F487
:1024B00018CF83E08093650214CF2FEF3FEFACCFAE
:1024C0004331510591F42130310519F580917102A4
:1024D0008F3F09F0B5CF80917202806880937202BD
:1024E0001092710230E020E0ABCF4531510509F088
:1024F000A7CF21303105F9F4809173028F3F09F0A5
:102500009FCF80917402806880937402109273024E
:10251000E9CF2F3F320731F780917102811190CFBF
:102520008091720287FF8CCF8F77809372028FEF3A
:1025300080937102D7CF2F3F3207A1F680917302AB
:1025400081117ECF8091740287FF7ACF8F7780933D
:1025500074028FEF80937302C5CF49505109443004
:10256000510510F40E9420118091100B9091110BD5
:102570004F9709F0B6CE60E081E00E940C09B1CE21
:10258000C13009F068C081E391E00E94B708882358
:1025900059F080910C0B90910D0B019797FD50C055
:1025A00090930D0B80930C0B86E291E00E94B7088C
:1025B000882371F080910C0B90910D0B9C012F5F83
:1025C0003F4F099709F43FC030930D0B20930C0B3C
:1025D0008BE191E00E94B70881113AC080E191E05F
:1025E0000E94B70841E050E0882309F47ACE809138
:1025F000870B8F70813029F48CE38093D102809314
:10260000D20220910C0B30910D0BF901E153FD4FDB
:102610006081F901E752FD4F808190E0F901ED58AA
:10262000F24F2081240F352F311D2817390734F040
:10263000862F90E0281739070CF4C901808351CE0A
:1026400089E090E0ADCF10920D0B10920C0BC0CF33
:102650004FEF5FEFCCCFC23009F043CE86E291E07E
:102660000E94B708882391F080910E0B90910F0B78
:1026700001968031910514F08FE090E097FF02C041
:1026800090E080E090930F0B80930E0B81E391E03C
:102690000E94B708882399F020910E0B30910F0B00
:1026A000215031092031310514F02FE030E037FF9F
:1026B00002C030E020E030930F0B20930E0B8BE133
:1026C00091E00E94B7088823A9F0E0910E0BF091E9
:1026D0000F0BE156FE4F2081422F4150550BCA018E
:1026E000222329F14D30510514F08CE090E0843024
:1026F00000F1808380E191E00E94B708882309F40B
:10270000F0CDE0910E0BF0910F0BE156FE4F2081C2
:1027100030E02F5F3F4F2D30310514F02CE030E0DA
:102720002430310514F424E030E02083DACD80E059
:10273000DECF1082DFCFCF930E94933A9093510D5A
:102740008093500D0E94C53A382F292F80937D0D1C
:1027500090937E0D8091960D9091970D8B30910501
:102760008CF4FC013197EE0FFF1FDF01A656B24F2C
:102770004091500D5091510D4D935C93E158F24FA3
:10278000308321832091980D3091990D2F3F310591
:1027900089F44E9769F461E081E00E940C0982E0BF
:1027A00090E00E94F70810923E0B81E080930401B4
:1027B000CF9108954091150B41110BC08E319105B9
:1027C00041F480913E0B8111F3CF81E080933E0B69
:1027D000EDCF8330910509F0ACC060919A0D7091F6
:1027E0009B0D20919C0D30919D0DCB01821B930B75
:1027F00097FF03C0C901861B970B0B97CCF6E0919E
:102800007F0DF091800D8091810D9091820DBF011F
:10281000681B790B77FF03C0BC016E1B7F0B6B300D
:10282000710534F6E0919E0DF0919F0DB9016E1B7C
:102830007F0B77FF03C0BF01621B730B6B30710509
:102840000CF0B6CF6091830D7091840D9C01261B16
:10285000370B37FF03C09B01281B390B2B30310589
:102860000CF0A6CF80913E0B882371F189E891E0AE
:102870000E94E8088091C30B9091C40B892B21F032
:102880008091200B882341F0489B02C0659904C0C9
:1028900084E991E00E94E8088EE791E00E94E80850
:1028A00083E791E00E94E80888E691E00E94E8084A
:1028B0008091370B9091380B892B09F479CF82E006
:1028C00090E0CF910C94F7084423D9F087E491E08D
:1028D0000E94E8088CE391E00E94E80881E391E01F
:1028E0000E94E80886E291E00E94E8088BE191E00E
:1028F0000E94E80880E191E00E94E80885E091E00C
:10290000D5CF80911E0B9091210B943029F082E05D
:1029100090E00E94F708CCCF9091200B892BB9F75B
:102920008DE591E00E94E80882E591E00E94E808C8
:10293000EECF8630910561F581E89DE0C1E041E090
:10294000FC0122813381029660817181261B370B45
:102950002530310524F42C3F3F4FC4F040E0C0E067
:102960002DE08938920761F7442331F081E08093AC
:10297000930D61E00E940C09CC2309F419CF109249
:10298000930D61E081E0CF910C940C0940E0E8CF19
:102990008E3191050CF40CCF442309F409CF66E085
:1029A00070E00E94613D892B09F002CF81E0CF9158
:1029B0000C944C110F931F93CF93DF938091980D3C
:1029C0009091990D8F3F910509F4FFC00091960DEC
:1029D0001091970D033011050CF4F7C040919A0D3A
:1029E00050919B0D20919C0D30919D0DCA01821B31
:1029F000930B97FF03C0C901841B950B0B970CF039
:102A0000E4C060917F0D7091800D8091810D909157
:102A1000820DAB01481B590B57FF03C0AC01461B8D
:102A2000570B4B3051050CF0D0C060919E0D70914A
:102A30009F0DA901461B570B57FF03C0AB01421B5B
:102A4000530B4B3051050CF0C0C04091830D509199
:102A5000840D9C01241B350B37FF03C09A01281BF2
:102A6000390B2B3031050CF0B0C080913E0B882320
:102A700009F4A0C089E891E00E94B708882389F092
:102A80008091370B9091380B8958914051F481E037
:102A900090E09093710D8093700D10923E0B809397
:102AA00004018EE791E00E94B708882391F080919D
:102AB000370B9091380B8E57914059F482E090E09B
:102AC0009093710D8093700D10923E0B81E0809376
:102AD000040184E991E00E94B708882339F18091CC
:102AE000370B9091380B8459914001F58091C30BBD
:102AF0009091C40B892B21F08091200B8823B1F099
:102B0000489B02C0659912C083E090E09093710DDC
:102B10008093700D81E08093150B8091200B8111C3
:102B20002FC010923E0B81E08093040183E791E077
:102B30000E94B708882389F08091370B9091380B59
:102B40008357914051F48091200B882351F187E203
:102B500090E09093710D8093700D88E691E00E9453
:102B6000B708882371F18091370B9091380B885604
:102B7000914039F510923E0B81E08093040121C011
:102B8000EEE5F2E0A5EFB1E021E832E091918D9120
:102B9000891718F4EF01219788832E173F07B1F7A3
:102BA000C0CF8FEF90E09093990D8093980D0E9485
:102BB0000109D3CF8091150B882361F080E00E943A
:102BC0004C111092380B1092370BDF91CF911F915F
:102BD0000F91089580911E0B8823A9F090917B029C
:102BE000992321F0982F9D7F943069F0813120F056
:102BF00080E00E94480DC0CF86E090E09093710D78
:102C00008093700DB9CFC091210BC43009F04CC036
:102C10008DE591E00E94B708882329F18091200B6F
:102C2000811121C080910E0B90910F0B282F082E3F
:102C3000000C330B01968031910514F090E080E098
:102C40002817390729F430930F0B20930E0BB9CFB7
:102C5000FC01E156FE4F4081442361F390930F0B3A
:102C600080930E0BAECF82E591E00E94B7088823D7
:102C7000D9F08091200B811117C080910E0B90919B
:102C80000F0B282F082E000C330B019797FF02C063
:102C90008FE090E028173907B1F2FC01E156FE4FB2
:102CA0004081442391F3DACF8091370B9091380B18
:102CB000892B09F086CF0E3111050CF082CF80915F
:102CC000500D9091510D813A91050CF43FC081E077
:102CD0008C0F8093210B813009F58091870B811136
:102CE00021C082E08093210B8091EA0A81111AC0F1
:102CF00083E08093210B8091130B9091140B892B0F
:102D0000D9F08091210B8530B9F08091210B882377
:102D1000A9F08091210BC8132FCF53CF823021F31C
:102D2000833049F38091210B843059F78091130B44
:102D30009091140B892B49F71092210B80912D0B48
:102D40008111E7CF81E08093210BE3CF8FEF8C0FD0
:102D50008093210B811109C080912D0B882339F0BC
:102D60008091210B8230A1F50EC087FF27C084E03F
:102D70008093210B8091130B9091140B892B81F779
:102D800082E08093210B8091EA0A811125C081E0C5
:102D90008093210B8091870B8111BBCF1092210B67
:102DA0008091200B882309F4B4CF80916502909123
:102DB000300B892B09F0ADCF84E0C5CF8430D1F240
:102DC000833071F68091130B9091140B892BC1F213
:102DD0008091210B8130F1F28091210B811199CFEB
:102DE000DFCF1F920F920FB60F9211240BB60F92E6
:102DF0002F933F934F935F936F937F938F939F9303
:102E0000AF93BF93EF93FF932091980D3091990D5D
:102E100040910101509102014217530774F4C90116
:102E2000841B950B8031910514F08FE090E0840FA6
:102E3000951F90930201809301018091010190916F
:102E40000201281739077CF4AC01421B530B9A018D
:102E50004031510514F02FE030E0821B930B90932A
:102E60000201809301018091240B9091250B18168B
:102E7000190634F08FEF90E09093020180930101E6
:102E80008091010187BD0E948C3A882309F45AC0C1
:102E90000E94063B8091960D9091970D019690931C
:102EA000970D8093960D0E949B1380911A0B909121
:102EB0001B0B8D395FEF95072CF0019790931B0B3F
:102EC00080931A0B80911A0B90911B0B892B09F49C
:102ED0002F9880911A0B90911B0B883F9F4FFCF409
:102EE00080911E0B8823D9F090917B02992319F0D1
:102EF0008D7F8430A1F08091180B9091190B1816DA
:102F000019066CF488E090E00E94F7088091180B95
:102F10009091190B01979093190B8093180BFF91C7
:102F2000EF91BF91AF919F918F917F916F915F9141
:102F30004F913F912F910F900BBE0F900FBE0F90AE
:102F40001F9018958091960D9091970D181619065F
:102F500014F40E94DA141092970D1092960D8FEFD0
:102F60009FEF9093510D8093500D90937E0D809321
:102F70007D0D9BCF8FEF87B990EC94B981B9879A7B
:102F800083B3836083BB8AB188698AB9589A759A7A
:102F900082E084BD93E090936E008093810081E095
:102FA00080936F0008958F929F92AF92BF92CF92BD
:102FB000DF92EF92FF920F931F93CF93DF93CDB7E2
:102FC000DEB7E7970FB6F894DEBF0FBECDBF81E343
:102FD00090E00E9408406CAB7DAB8EAB9FAB6E3E29
:102FE0007F4F804C910509F067C0CE0101966C01BE
:102FF0007C0104E010E0B12CA12CC8010E9400402B
:10300000D7018D937D01A80EB11C0F5F1F4F0732B2
:10301000110599F77E01B4E2EB0EF11C4701C801DE
:103020000E940040982F9F70F4019083982F9295F2
:103030009F709183A80EB11C0F5F1F4FF2E08F0E9F
:10304000911C0F32110559F78FE290E00E940E405B
:10305000A816B90679F5EEE5F2E0C6018396D60129
:103060002D916D012193A817B907C9F7EFE9F1E098
:10307000C7014096D7012D917D012193A817B9076B
:10308000C9F760E090E080E00E94144082E0E7969B
:103090000FB6F894DEBF0FBECDBFDF91CF911F9169
:1030A0000F91FF90EF90DF90CF90BF90AF909F90E7
:1030B0008F90089581E0EBCF80E0E9CFCF92DF924F
:1030C000EF92FF920F931F93CF93DF93F8940EE547
:1030D00012E0C4E0D0E0F12CE12CF80161918F0105
:1030E000CE010E941440F80131978081E80EF11C56
:1030F0002196C732D10589F78FE9C82E81E0D82EF5
:10310000F601808111811295107F180F612FCE0179
:103110000E941440E10EF11CF2E0CF0ED11C21966A
:10312000CF32D10569F7B7018FE290E00E942940C4
:103130004EEE5FEF60EC70E081E390E00E94214092
:1031400060E090E080E00E9414407894DF91CF919D
:103150001F910F91FF90EF90DF90CF900895EF9225
:10316000FF920F93CF93DF93CFE9D1E08FE7E82E63
:103170008BE0F82ED701FE0181818295807F9081BE
:10318000890F8D93329681E0EF3AF807A9F704E1B1
:1031900028E04FE75BE064E270E080E090E00E94AE
:1031A0007010EEE5F2E0AFE7BBE081918D9382E035
:1031B000E636F807D1F704E128E04FE75BE060E28C
:1031C00070E080E090E00E947010A6E6B2E0EFE7C9
:1031D000FBE08D9181938BE0E738F807D1F704E1AC
:1031E00028E04FE75BE061E270E080E090E00E9461
:1031F0007010AEE6B2E0EFE7FBE08D9181938BE0DB
:10320000E738F807D1F704E128E04FE75BE062E236
:1032100070E080E090E00E947010E6E7F2E08191BB
:10322000D7018D937D01B7E8EB16BBE0FB06B9F73C
:1032300004E128E04FE75BE063E270E080E090E0CB
:103240000E9470108091730D80937F0B8091740D9C
:103250008093800B8091750D8093810B8091760D0A
:103260008093820B8091780D8295807F9091790D6B
:103270009295990F990F907C890F9091770D890FF6
:103280008093830B80917A0D8093840B80917B0DCA
:103290008093850B80917C0D8093860B28E04FE70F
:1032A0005BE064E370E080E090E00E947010809149
:1032B000200B882369F0199281E0CF3AD807D9F71B
:1032C0008091640290911F0B9923B9F080939F0124
:1032D0000E945E1810927F0B05E021E04FE75BE053
:1032E0006FE170E080E090E00E947010DF91CF917C
:1032F0000F91FF90EF900C94600D98E090939F01D8
:1033000088508093A001E4CFEF92FF920F931F9318
:10331000CF93DF93EC018091C30B9091C40B019785
:103320003FEEE32E3BE7F32E8530910538F4880F0E
:10333000991FFC01E551FD4FE080F18080917B02F7
:10334000882399F080911E0B982F9D7F943069F40B
:103350009091210BE12C28EFF22E943031F0863041
:1033600021F1843011F4CBE9D4E090E080E00E94B8
:10337000B638870123E130E04FE351E070E060E0D0
:1033800090E080E00E94863810E000E021E042E01A
:1033900050E060EA70E0CE010E94593ADF91CF918F
:1033A0001F910F91FF90EF900895C5E8D4E0DDCF15
:1033B000EF92FF920F931F9380910401882321F0D5
:1033C00090E080E00E94B63810920401F12CE12CCC
:1033D0000FEF1FEF21E04AE550E060EA70E084EB78
:1033E00094E00E94593A0FE110E021E042E850E0F9
:1033F00060EA70E086EC94E00E94593A8091500DAA
:103400009091510D853191053CF160917D0D709148
:103410007E0D9B012551310927313140E8F48C3272
:1034200021E09207CCF4AC014C5E5F4F0AE812E554
:103430009B0144970E94863860917D0D70917E0DAE
:103440008091500D9091510D9B012C5E3F4F645126
:103450007109AC010E9486381F910F91FF90EF9087
:1034600008958F929F92AF92BF92CF92DF92EF9288
:10347000FF920F931F93CF93DF93CDB7DEB76C9777
:103480000FB6F894DEBF0FBECDBFA090CC0BB12C11
:103490008091C80B9091C90B882E912C982C882470
:1034A000890E911C8091CB0BD82EE894D7F880918F
:1034B0000401882309F4ADC010920401E091C30B0C
:1034C000F091C40BEE0FFF1FE15FFA4F659174910D
:1034D000CE0101960E94B23F8091200B69ED74E00D
:1034E000811102C066EE74E082E59DE00E94C43F57
:1034F000BE016F5F7F4F82E59DE00E94B93F82E58C
:103500009DE00E948419F12CE12C0FE110E021E0F4
:103510004EE150E060E170E08FEE94E00E94F739F8
:1035200021E048E550E060E170E08DEC98E00E9419
:10353000F73921E042E950E060E170E087EF94E084
:103540000E94F7398091200B882309F431C221E0D1
:103550004AEC50E060E170E08DEF94E00E94F739B2
:10356000A114B10489F08091200B811121C0F12CAC
:10357000E12C0FE110E021E04AEC50E064E670E05D
:103580008DEF94E00E94F73924E62D1588F08091A4
:10359000200B81110DC0F12CE12C0FE110E021E096
:1035A0004AEC50E06CEA70E088E095E00E94F73960
:1035B000F12CE12C0FE110E021E04AEC50E064EF47
:1035C00070E08BED98E00E94F7390FEE1BE720E3E7
:1035D00030E047E151E064E270E083EF90E00E9468
:1035E00086380AE812E52EE230E045E151E066E275
:1035F00070E085EF90E00E9486380FEE1BE720EC2C
:1036000030E04CE251E06EE270E08EED90E00E941E
:1036100086388091330B9091340BA091350BB0918B
:10362000360BBC01CD0124E630E040E050E00E94C2
:10363000753DD4010E94A43D6D8B7E8B8F8B988F3E
:1036400097FF0DC09B01AC01509540953095219599
:103650003F4F4F4F5F4F2D8B3E8B4F8B588F8114B9
:10366000910409F0B1C16DE075E082E59DE00E9432
:10367000C43FF12CE12C0FEF1FEF22E040E350E0BC
:1036800060E170E082E59DE00E94F7398091330BA4
:103690009091340BA091350BB091360B9C01AD018C
:1036A0002E5C3F4F4F4F5F4F298F3A8F4B8F5C8F70
:1036B000CA01B90124E630E040E050E00E94753DC7
:1036C000C90160917C02662321F088279927821B1B
:1036D000930B2091310B3091320B232B09F09DC1BC
:1036E0002091200B211199C16DE075E082E59DE0EC
:1036F0000E94C43FF12CE12C0FEF1FEF22E04AE6BD
:1037000050E060E170E082E59DE00E94F739809131
:10371000310B9091320B892B09F0A4C18091200BC1
:103720008111A0C16DE075E082E59DE00E94C43F7B
:10373000F12CE12C0FEF1FEF22E044EA50E060E1B2
:1037400070E082E59DE00E94F7398091200B8111A5
:10375000EBC18091CA0B4AE062E57DE090E00E94F7
:10376000CB3F82E59DE00E94830F64E175E082E536
:103770009DE00E94B93F21E04CED50E060E170E037
:1037800082E59DE00E94F739A114B10409F4A1C1BA
:10379000B5016852710982E59DE00E944510609173
:1037A000200BFCEA6F02B00111246C597F4FF12C01
:1037B000E12C0FEF1FEF21E04CED50E082E59DE0A2
:1037C0000E94F73924E62D1558F18091200B8111C4
:1037D00027C08D2D90E005966AE070E00E94613D63
:1037E000CB014AE062E57DE02AE0DC012A9FC001CE
:1037F0002B9F900D11240E94CB3F65E275E082E57E
:103800009DE00E94B93FF12CE12C0FEF1FEF21E06A
:103810004CED50E06CEA70E082E59DE00E94F739E3
:103820008091C60BA090C70B90E0982F8827A80E18
:10383000B92EB11C29EC30E0D5010E949D3D22E05B
:1038400030E040E050E00E94753D2D8B3E8B4F8B69
:10385000588F20915E02B2E32B9F90011124032E1A
:10386000000C440B550B6D897E898F89988D0E94C1
:10387000753D6901253631051CF044E6C42ED12C76
:10388000D7FE02C0D12CC12C80918002813009F07A
:103890003DC1F4E6AF16B1040CF02BC14AE062E57D
:1038A0007DE0C5010E94CB3F82E59DE00E94830F31
:1038B00069E275E082E59DE00E94B93FF12CE12CC0
:1038C0000FEF1FEF21E04CED50E064EF70E082E578
:1038D0009DE00E94F73964E670E09B012C193D09D8
:1038E0004FE1429FC001439F900D11240E94613D12
:1038F000CB01880F991F680F791F8B0115950795CC
:103900006034710514F00FE110E0102F0027110F43
:10391000110F110F2EE72C9DC0012D9D900D11242C
:1039200064E670E00E94613D6034710514F06FE35D
:1039300070E085E0660F771F8A95E1F75801A60EC3
:10394000B71E2EE82C9DC0012D9D900D112464E61C
:1039500070E00E94613D8EEB90E06C01C61AD70AC0
:103960000AE812E596014AE251E060E370E080EE79
:1039700090E00E94863885012EEB30E04AE251E06B
:10398000B60180EE90E00E9486386C960FB6F894EF
:10399000DEBF0FBECDBFDF91CF911F910F91FF9082
:1039A000EF90DF90CF90BF90AF909F908F90089551
:1039B000F12CE12C0FE110E021E04AEC50E060E155
:1039C00070E082E095E0CACD38EE831633E09306CE
:1039D000C4F48091130B9091140B181619068CF4F3
:1039E0004AE062E57DE0C4010E94CB3F82E59DE0B4
:1039F0000E94830F64E175E082E59DE00E94B93F7B
:103A000038CEC4016AE070E00E94613DCB014AE01B
:103A100062E57DE00E94CB3FEDCF9C0197FF04C0A3
:103A200022273327281B390B283E334084F44AE0F1
:103A300062E57DE00E94CB3F82E59DE00E94830F1E
:103A400068E175E082E59DE00E94B93F53CE6AE0EF
:103A500070E00E94613DCB014AE062E57DE00E949A
:103A6000CB3FEECF8D899E89AF89B88D8038E6E94E
:103A70009E07E8E9AE07B105D4F4BC01CD0120E111
:103A800037E240E050E00E94753D89014AE062E57E
:103A90007DE0C8010E94CB3F82E59DE00E94830F3C
:103AA0006CE175E082E59DE00E94B93F41CE6D89F1
:103AB0007E898F89988D20EA36E841E050E00E94A7
:103AC000753D89014AE062E57DE0C8010E94CB3F77
:103AD000E7CF8091200B882311F1F12CE12C0FEF1F
:103AE0001FEF21E04CED50E060E170E080E295E0F6
:103AF00067CEC50105966AE070E00E94613DCB018A
:103B00004AE062E57DE00E94CB3FD2CE4AE062E52A
:103B10007DE0C6010E94CB3F65E275E0CBCE24E696
:103B20002D1508F47DCE55CEA114B10409F030CE88
:103B3000D4CF2F923F924F925F926F927F928F924B
:103B40009F92AF92BF92CF92DF92EF92FF920F932C
:103B50001F93CF93DF93CDB7DEB769970FB6F89475
:103B6000DEBF0FBECDBF80916D022091130B30914F
:103B7000140B40917B028B3FD8F46091C30B709182
:103B8000C40B6330710529F09091200B992309F43F
:103B90000CC15AE0859F3001112460E3661A68EF7A
:103BA000760A121613060CF445C0198E188E49C0F9
:103BB0008B3F09F0FAC0121613060CF0FBC080917F
:103BC000C30B9091C40B8330910509F4DDC0509173
:103BD000200B5111D9C0029719F4413009F4D4C017
:103BE00088E8682E83E1782E25C0D701ED91FD91FC
:103BF0007D01E817F9070CF4CF016E167F060CF46F
:103C00003F01BFEFAB1ABB0AAC14BD0474F3685E8E
:103C10007F4FEDE06E347E0709F0BEC0680E791E5E
:103C200077FE03C0FFEF6F1A7F0A759467945AE01E
:103C3000650E711C80E491E0B9010E94613D798FAD
:103C4000688F888D998D829FB001839F700D929FA0
:103C5000700D112480E491E0861B970B97FD01966F
:103C6000DC01B595A795BB8BAA8BB1E0BF87213A44
:103C700031050CF01F8680916C02882E912CE8ECA7
:103C80008E0E911C20906B02312CF6E92F0E311C08
:103C9000442339F080916E0290E0880E991E281A14
:103CA000390A9401221933093A8729874FE951E0EB
:103CB00058874F831E821D821A821982AF81B88570
:103CC0002D91B887AF83E88DF98D49815A81E49FA2
:103CD000C001E59F900DF49F900D11244A885B88E8
:103CE000480E591EBA016F5F7F4F6E9FA0016F9FF4
:103CF000500D7E9F500D1124BA01681B790B7E87F1
:103D00006D878F85681B7109798B688BA981BA8152
:103D1000BC83AB83E22F220FFF0BFD8BEC8B8CE07F
:103D20004D815E81849F9001859F300D11243F8BD2
:103D30002E8B8B815981851BE82FF0E06C897D8962
:103D4000E617F7070CF440C08D819E8101969E8393
:103D50008D834097A1F569960FB6F894DEBF0FBE2C
:103D6000CDBFDF91CF911F910F91FF90EF90DF902A
:103D7000CF90BF90AF909F908F907F906F905F900B
:103D80004F903F902F9008950FE911E06EEC7BE08B
:103D9000712C612C88E893E1D801ED918D01CE2E34
:103DA000D12C7B01B12CA12C2FCFF8E86F2EF3E1A1
:103DB0007F2EF7CEE8E86E2EE3E17E2EF6CE6B8105
:103DC0007C817A8369837ACF6E897F89E60FF71FBA
:103DD000EE0FFF1FE253F44F20813181C9016AE0E9
:103DE00070E00E94613D621573057CF086169706AF
:103DF0000CF45CC0A12C5CEFB52E621673064CF07F
:103E000020EEA22E27E0B22E04C0B1014FE1A42E75
:103E1000B12C6219730928E2269FC001279F900DDB
:103E2000112469857A850E94613DCB0105969C87A6
:103E30008B87AB81BC811196BC83AB832EEE30E0C7
:103E4000281B390B10E000E0C888D988C40CD51CA9
:103E5000A60169EB70E07201BFEFEB1AFB0AC70124
:103E60000E9486386FEE70E0EB85FC856E1B7F0B41
:103E700085012FEE30E0A601C7010E948638C201FD
:103E800063E070E00E94613D6B018D859E85840D2D
:103E9000951D63E070E00E94613D8B010C151D05CE
:103EA00054F4488D598D440E551E43CFB401A12CB6
:103EB00038EFB32EAECF7601EE0CFF1CEC0CFD1CE0
:103EC000FFEFEF1AFF0A2FEF3FEF42EC50E0B70190
:103ED000C7010E94C6382FEF3FEF4AEE50E0B7010E
:103EE000C7010E94C63880917B028823F1F080913F
:103EF0006E0220E5829FC001112469857A850E94A7
:103F0000613D5B01AB014E535F4F2FEF3FEFB701B8
:103F1000C7010E94C6384AEE50E04A195B092FEFEC
:103F20003FEFB701C7010E94C6383FEFC31AD30A5B
:103F3000B5CFCF92DF92EF92FF920F931F93CF9363
:103F4000DF93CDB7DEB764970FB6F894DEBF0FBE30
:103F5000CDBF80910401882309F44FC01092040161
:103F6000E091C30BF091C40BEE0FFF1FE15FFA4F1E
:103F700065917491CE0101960E94B23F8091200B11
:103F80006DE275E0811102C063E375E082E59DE0BA
:103F90000E94C43FBE016F5F7F4F82E59DE00E949B
:103FA000B93F82E59DE00E948419F12CE12C0FE1DC
:103FB00010E021E048E250E060E170E08AE395E043
:103FC0000E94F73921E048E250E06AEA70E087E4B5
:103FD00095E00E94F73921E04EE650E060E170E0A4
:103FE00083E595E00E94F73921E04EE650E06AEA69
:103FF00070E08DE595E00E94F7398091C80B9091B3
:10400000C90BC82ED12CDC2CCC24C90ED11CC11458
:10401000D10409F075C06DE075E082E59DE00E9475
:10402000C43FF12CE12C0FEF1FEF22E04CE350E0F6
:1040300060E170E082E59DE00E94F7398091CC0B51
:10404000682F70E0811185C06DE075E082E59DE02C
:104050000E94C43FF12CE12C0FEF1FEF22E04CE354
:1040600050E06AEA70E082E59DE00E94F739CD28D1
:1040700009F076C06DE075E082E59DE00E94C43FE6
:10408000F12CE12C0FEF1FEF22E042E850E060E15D
:1040900070E082E59DE00E94F7398091CA0B4AE00A
:1040A00062E57DE090E00E94CB3F82E59DE00E94CA
:1040B000830F69E675E082E59DE00E94B93F22E04A
:1040C00042E850E06AEA70E082E59DE00E94F7393C
:1040D0008091130B9091140B1816190614F40E947A
:1040E000991D64960FB6F894DEBF0FBECDBFDF9169
:1040F000CF911F910F91FF90EF90DF90CF90089597
:1041000088EEC81683E0D806C4F48091130B909112
:10411000140B181619068CF44AE062E57DE0C6011E
:104120000E94CB3F82E59DE00E94830F69E675E027
:1041300082E59DE00E94B93F74CFC6016AE070E05D
:104140000E94613DCB014AE062E57DE00E94CB3FE9
:10415000EDCF6852710982E59DE00E9445107ACF4B
:104160008091CB0B8F7790E005966AE070E00E941B
:10417000613DCB014AE062E57DE02AE0FC012E9F33
:10418000C0012F9F900D11240E94CB3F65E275E086
:1041900082E59DE00E94B93F73CF8F929F92AF92CC
:1041A000BF92EF92FF920F931F93CF93DF9300D0B4
:1041B00000D0CDB7DEB780910401882309F44BC04D
:1041C000109204018091870B8F70813031F0823022
:1041D00009F421C189E895E002C08CE695E00E94CF
:1041E0008419F12CE12C0FE110E021E04EE150E0C8
:1041F00060E170E08EE995E00E94F73921E04EE140
:1042000050E06AEA70E089EA95E00E94F73921E01F
:1042100048E550E060E170E083EB95E00E94F739FB
:1042200021E048E550E06AEA70E08FEB95E00E94FB
:10423000F73921E042E950E060E170E08DEF94E071
:104240000E94F73921E042E950E06AEA70E08AEC26
:1042500095E00E94F73980912E0B90912F0B181644
:1042600019060CF0DBC080918D0B807890E0880FF0
:10427000991F0091880B080F192F111D20918E0B8B
:1042800030E0D8010E949D3D69837A838B839C83B3
:104290002FEF30E040E050E00E94753D49014AE0D8
:1042A00062E57DE0C8010E94CB3F64E175E082E5F4
:1042B0009DE00E94B93FF12CE12C0FEF1FEF22E0AF
:1042C00040E350E060E170E082E59DE00E94F73954
:1042D0008091890B4AE062E57DE025E0829FC00184
:1042E00011240E94CB3F68E175E082E59DE00E94C9
:1042F000B93F22E040E350E06AEA70E082E59DE0E9
:104300000E94F7394AE062E57DE0C4010E94CB3F9C
:1043100064E175E082E59DE00E94B93F22E04AE653
:1043200050E060E170E082E59DE00E94F739809105
:104330008B0B4AE062E57DE025E0829FC0011124FD
:104340000E94CB3F68E175E082E59DE00E94B93FA5
:1043500022E04AE650E06AEA70E082E59DE00E94D1
:10436000F73960918C0B70E082E59DE00E9445106A
:1043700022E044EA50E060E170E082E59DE00E94C6
:10438000F73980918D0B8F774AE062E57DE090E010
:104390000E94CB3F63ED75E082E59DE00E94B93F4E
:1043A00022E044EA50E06AEA70E082E59DE00E9483
:1043B000F7398091870B82958F70E82FF0E000E04D
:1043C0001CEF893051F00FEE1BE7813031F000EE29
:1043D00017E0882311F000E018EFEE0FFF1FE754FD
:1043E000FD4FF12CE12C21E042ED50E060EA70E05D
:1043F000808191810E94593A0F900F900F900F90F9
:10440000DF91CF911F910F91FF90EF90BF90AF90F0
:104410009F908F9008958AE795E0E1CE68ED75E072
:1044200082E59DE00E94C43FF12CE12C0FEF1FEFCD
:1044300022E040E350E060E170E082E59DE00E9410
:10444000F73922E040E350E06AEA70E082E59DE05F
:104450000E94F73922E04AE650E060E170E082E530
:104460009DE00E94F73922E04AE650E06AEA70E0F7
:1044700082E59DE00E94F73922E044EA50E060E1E5
:1044800070E082E59DE00E94F73922E044EA50E0C6
:104490006AEA70E082E59DE00E94F73900E018EFDB
:1044A00021E042ED50E060EA70E08EED95E0A2CFB1
:1044B0004F925F926F927F928F929F92AF92BF9234
:1044C000CF92DF92EF92FF920F931F93CF93DF93E0
:1044D000409100012091F30A3091F40A4203C00197
:1044E000439F900D11244AE0C42ED12C893E934065
:1044F0001CF4CC24C394D12C80910401882309F4AA
:1045000052C01092040189E696E00E948419F12CB1
:10451000E12C0FE110E021E04EE150E060E170E0BD
:1045200081EF95E00E94F73921E04EE150E06AEA20
:1045300070E08EEF95E00E94F73921E04AE550E007
:1045400060E170E089E096E00E94F73921E04AE5F9
:1045500050E06AEA70E086E196E00E94F73921E0D7
:1045600046E950E060E170E082E296E00E94F739AF
:1045700021E046E950E06CE370E089EB95E00E94B1
:10458000F73921E046E950E064E870E084E096E025
:104590000E94F73921E046E950E06CEC70E082E8D7
:1045A00095E00E94F73940910001042E000C550B54
:1045B0002BEEA22E2AE0B22EF50130E020E090E0B2
:1045C00080E0241735070CF410C16AE070E00E9407
:1045D000613DCB014AE062E57DE00E94CB3F64E1B2
:1045E00075E082E59DE00E94B93FF12CE12C0FEFD0
:1045F0001FEF22E042E350E060E170E082E59DE0E1
:104600000E94F7398091ED0A9091EE0A2091F80A04
:104610003091F90A820F931F2091030B3091040B04
:10462000820F931FB6010E94613DCB014AE062E513
:104630007DE00E94CB3F31E0C316D10421F482E536
:104640009DE00E94830F68E175E082E59DE00E9495
:10465000B93FF12CE12C0FEF1FEF22E042E350E0D5
:104660006AEA70E082E59DE00E94F739809171026C
:1046700090E0C0917202C7FD9395CF772091000121
:104680003C2F2303E00111244AE062E57DE00E9413
:10469000CB3F64E175E082E59DE00E94B93FF12CDB
:1046A000E12C0FEF1FEF22E04EE650E060E170E0FA
:1046B00082E59DE00E94F7392AE02C9FC0012D9FE2
:1046C000900D1124B6010E94613DCB014AE062E5E4
:1046D0007DE00E94CB3F81E0C816D10421F482E541
:1046E0009DE00E94830F68E175E082E59DE00E94F5
:1046F000B93FF12CE12C0FEF1FEF22E04EE650E026
:104700006AEA70E082E59DE00E94F73986E2682E51
:104710008BE0782ECAEAD0E0912C812C9AE0492EC9
:10472000512CEFEF8E1A9E0A4AE062E57DE0C4014B
:104730000E94CB3FF12CE12C0FEF1FEF21E0AE01E7
:1047400060E170E082E59DE00E94F739F50180812B
:104750009181B2010E94613DCB014AE062E57DE0BA
:104760000E94CB3F69E675E082E59DE00E94B93F7B
:1047700021E0AE016CE370E082E59DE00E94F73934
:10478000F50182819381B6010E94613DCB014AE02F
:1047900062E57DE00E94CB3FF1E0CF16D10421F429
:1047A00082E59DE00E94830F64E276E082E59DE071
:1047B0000E94B93FF12CE12C0FEF1FEF21E0AE0179
:1047C00064E870E082E59DE00E94F739F301819191
:1047D00091913F01892B99F400E018EF21E0AE019F
:1047E0006CEC70E087E296E018C0608171818617FA
:1047F00097070CF4CB012F5F3F4F3B96E2CEF501BC
:104800008285882331F1F12CE12C00E018EF21E0C2
:10481000AE016CEC70E080E396E00E94F73964969C
:10482000FBE0AF0EB11C23E08216910409F079CFB2
:10483000DF91CF911F910F91FF90EF90DF90CF907C
:10484000BF90AF909F908F907F906F905F904F90B0
:1048500008958481F12CE12C80FF09C000E018EF5D
:1048600021E0AE016CEC70E089E396E0D6CF81FFE9
:1048700009C000E018EF21E0AE016CEC70E082E4CA
:1048800096E0CBCF82FF09C000E018EF21E0AE0137
:104890006CEC70E08BE496E0C0CF83FF09C000E0D1
:1048A00018EF21E0AE016CEC70E084E596E0B5CF46
:1048B00084FD92CF00EE17E021E0AE016CEC70E0D9
:1048C0008DE596E0AACFEF92FF920F931F93809110
:1048D0000001833031F41F910F91FF90EF900C9401
:1048E000582280910401882371F11092040186E618
:1048F00096E00E948419F12CE12C0FE110E021E0F8
:1049000048E250E060E170E088E796E00E94F73905
:1049100021E048E250E06AEA70E084E896E00E9414
:10492000F73921E04EE650E060E170E080E996E082
:104930000E94F73921E04EE650E06AEA70E086E135
:1049400096E00E94F7398091EB0A9091EC0A1816D4
:1049500019060CF090C06AE070E00E94613DCB0146
:104960004AE062E57DE00E94CB3F64E175E082E5CC
:104970009DE00E94B93FF12CE12C0FEF1FEF22E0E8
:104980004CE350E060E170E082E59DE00E94F73981
:104990008091ED0A9091EE0A181619060CF072C07B
:1049A0004AE062E57DE00E94CB3F82E59DE00E9407
:1049B000830F68E175E082E59DE00E94B93FF12C2C
:1049C000E12C0FEF1FEF22E04CE350E06AEA70E0C9
:1049D00082E59DE00E94F7398091F10A9091F20AF8
:1049E0006AE070E00E94613DCB014AE062E57DE053
:1049F0000E94CB3F64E175E082E59DE00E94B93FF3
:104A000022E042E850E060E170E082E59DE00E9433
:104A1000F7394AE062E57DE08091F30A9091F40A6B
:104A20000E94CB3F82E59DE00E94830F68E175E024
:104A300082E59DE00E94B93F22E042E850E06AEA48
:104A400070E082E59DE00E94F7398091260B9091FD
:104A5000270B892BF1F400E018EF21E048EC50E03F
:104A600060EA70E08CE996E00E94593A1F910F913C
:104A7000FF90EF90089568ED75E082E59DE00E945B
:104A8000C43F79CF6DE075E082E59DE00E94C43FB0
:104A900096CF8091F50A882361F0F12CE12C00E09B
:104AA00018EF21E048EC50E060EA70E080EB96E01F
:104AB000DBCF8091EF0AF12CE12C80FF0AC000E0EF
:104AC00018EF21E048EC50E060EA70E084EC96E0FA
:104AD000CBCF81FF0AC000E018EF21E048EC50E0A6
:104AE00060EA70E088ED96E0BFCF82FF0AC000E088
:104AF00018EF21E048EC50E060EA70E08CEE96E0C0
:104B0000B3CF83FF0AC000E018EF21E048EC50E08B
:104B100060EA70E080E097E0A7CF84FF0AC000E081
:104B200018EF21E048EC50E060EA70E084E197E0A3
:104B30009BCF00EE17E021E048EC50E060EA70E027
:104B400088E297E091CF2F923F924F925F926F92BF
:104B50007F928F929F92AF92BF92CF92DF92EF920D
:104B6000FF920F931F93CF93DF93CDB7DEB7649778
:104B70000FB6F894DEBF0FBECDBF3FE9E32E31E0A4
:104B8000F32ED70190E080E01D861E861F86188ACE
:104B90001C8A1B8A1A8A198A912C812C48E8642E57
:104BA00043E1742E08E13D91332359F1089FF00150
:104BB000099FF00D1124E253F44F21E0182F419189
:104BC00051914615570518F4198B2A8B3A01841612
:104BD000950618F41B8B2C8B4A01052E000C660BD6
:104BE000770BAD84BE84CF84D888A40EB51EC61EB4
:104BF000D71EAD86BE86CF86D88A41E0420F3213DB
:104C0000CCC101968031910571F60091130B109182
:104C1000140B212C312C2101101611066CF46D851A
:104C20007E858F8598899801012E000C440B550BC9
:104C30000E94753D19012A01EFE5FBE02FE73BE0FB
:104C4000B12CA12CD12CC12CD7018D917D018823B1
:104C500081F08081882329F0C80ED11CBFEFAB1AE8
:104C6000BB0A8181882329F0C80ED11C8FEFA81AB6
:104C7000B80A32962E173F0739F792E0A916B10409
:104C80002CF0C601B5010E94613D6B0180910401C9
:104C9000882309F461C0109204014AE0BE016F5FED
:104CA0007F4FC8010E94CB3F6CE377E082E59DE037
:104CB0000E94C43FBE016F5F7F4F82E59DE00E946E
:104CC000B93F6AE477E082E59DE00E94B93F82E562
:104CD0009DE00E9484198091200BF12CE12C0FE1C2
:104CE00010E021E048E250E060E170E0882309F440
:104CF00056C1809165029091300B892B09F04FC10C
:104D00008AE395E00E94F7398091200BF12CE12C89
:104D10000FE110E021E048E250E06AEA70E0882309
:104D200009F440C187E495E00E94F739F12CE12CA9
:104D30000FE110E021E04EE650E060E170E086E631
:104D400097E00E94F73921E04EE650E06AEA70E011
:104D500082E797E00E94F7398091200B882309F4BD
:104D600024C18091300B90916502892B09F01DC1FF
:104D70006D857E858F85988924E630E040E050E09F
:104D80000E94753D89014AE062E57DE0C8010E940C
:104D9000CB3F82E59DE00E94830F69E675E082E5E6
:104DA0009DE00E94B93FF12CE12C0FEF1FEF22E0B4
:104DB0004CE350E060E170E082E59DE00E94F7394D
:104DC0008091200B882309F40DC18091CC0B88239E
:104DD00009F408C16091CC0B6852770B82E59DE025
:104DE0000E94451022E04CE350E06AEA70E082E560
:104DF0009DE00E94F739C30105962AE0C22ED12C0E
:104E0000B6010E944D3DCB014AE062E57DE00E9483
:104E1000CB3F82E59DE00E94A50F66E075E082E54C
:104E20009DE00E94B93FF12CE12C0FEF1FEF22E033
:104E300042E850E060E170E082E59DE00E94F739D1
:104E40006EE777E0CE0101960E94C43F4AE062E53A
:104E50007DE0A9888A2D90E00E94CB3F62E57DE04D
:104E6000CE0101960E94B93F60E877E0CE0101963D
:104E70000E94B93F4AE062E57DE0BA888B2D90E060
:104E80000E94CB3F62E57DE0CE0101960E94B93FD2
:104E900068E178E0CE0101960E94B93F0FEE1BE772
:104EA00021E045EA50E060E170E0CE0101960E9409
:104EB000F739C4010596B6010E944D3DCB014AE089
:104EC00062E57DE00E94CB3F82E59DE00E94A50F58
:104ED00066E075E082E59DE00E94B93F0FEF1FEFAD
:104EE00022E042E850E06AEA70E082E59DE00E943C
:104EF000F7396EE777E0CE0101960E94C43F4AE0A1
:104F000062E57DE0CB888C2D90E00E94CB3F62E58E
:104F10007DE0CE0101960E94B93F60E877E0CE01C6
:104F200001960E94B93F4AE062E57DE0DC888D2D64
:104F300090E00E94CB3F62E57DE0CE0101960E94A9
:104F4000B93F68E178E0CE0101960E94B93F0FEECB
:104F50001BE721E045EA50E06AEA70E0CE010196E5
:104F60000E94F7390E94991D64960FB6F894DEBF2F
:104F70000FBECDBFDF91CF911F910F91FF90EF90AA
:104F8000DF90CF90BF90AF909F908F907F906F9069
:104F90005F904F903F902F900895242F10CE81E581
:104FA00097E0B0CE8DE597E0BFCED201C101059666
:104FB000A11DB11D8D879E87AF87B88BBC01CD0128
:104FC0002AE030E040E050E00E94753D89014AE06F
:104FD00062E57DE0C8010E94CB3F82E59DE00E9432
:104FE000A50FDBCEAB2861F0B6016852710982E5EE
:104FF0009DE00E944510F12CE12C0FEF1FEFF2CE47
:10500000F12CE12C0FEF1FEF22E04CE350E06AEAB5
:1050100070E088ED95E0EDCEEF92FF920F931F9335
:10502000CF93DF9380910401882309F450C010923C
:105030000401D0E0C0E00AE812E52FEE30E0AE0156
:1050400070E060E0CE010E9486382296C03481E094
:10505000D80789F700E018EF29EA30E04BE251E089
:1050600066E470E084E190E00E94863810E000E0A1
:1050700025EA30E047E251E06AE470E088E190E040
:105080000E948638E0911E0BF0E0EE0FFF1FE25405
:10509000FC4F6591749182E59DE00E94B23FF12C36
:1050A000E12C00E018EF21E04AE550E060EA70E012
:1050B00083E897E00E94593A0FEF1FEF21E042E8A2
:1050C00050E060EA70E082E59DE00E94593ADF918D
:1050D000CF911F910F91FF90EF9008956F927F9263
:1050E0008F929F92AF92BF92DF92EF92FF920F93B7
:1050F0001F93CF93DF93EC01F62E0E94B70888230D
:1051000049F0DD24D3948091370B9091380B8C17A4
:105110009D0709F0D12C8D2D8170D82E8A8588238A
:1051200009F454C0D11054C00E811F818091500DDC
:105130009091510D1816190654F480917D0D90919F
:105140007E0D181619061CF47801D11002C0E12C4E
:10515000F12C8A809B80688079802C813D81590167
:1051600037FF03C08FEFA81AB80AB594A794A60C0E
:10517000B71C37FF02C02F5F3F4F35952795621A46
:10518000730A9401205E3F4FA501B401C3010E9440
:1051900086389401225E3F4FA50142505109B40167
:1051A0006E5F7F4F8701C30102960E9486384A8155
:1051B0005B81485F5F4F688179810FEF1FEF21E0CE
:1051C000888599850E94593ADA8604C0D110ACCFFF
:1051D000F110AACFDF91CF911F910F91FF90EF9027
:1051E000DF90BF90AF909F908F907F906F900895C9
:1051F0004F925F926F927F928F929F92AF92BF92E7
:10520000CF92DF92EF92FF920F931F93CF93DF9392
:1052100000D000D0CDB7DEB780916D026091200B39
:105220008B3F08F0CBC02091C30B3091C40B2330CF
:10523000310519F0662309F4D2C09AE0899F600114
:105240001124A0E3CA1AA8EFDA0AB0900401BB2027
:1052500099F110920401662309F4FDC04AE0BE01F1
:105260006F5F7F4F8091130B9091140B0E94CB3F87
:105270006CE877E082E59DE00E94C43FBE016F5F6D
:105280007F4F82E59DE00E94B93F6AE477E082E5C6
:105290009DE00E94B93F82E59DE00E948419F12CB7
:1052A000E12C0FE110E021E048E250E06CE070E01A
:1052B0008EEB97E00E94F7398091200B882309F448
:1052C000E5C010920F0B10920E0B80911F0B78E02F
:1052D000672E712C811111C1912C812C4CE0442E30
:1052E0005EE1552E6BE4A62E80910E0B90910F0B74
:1052F000FC01E156FE4F20812815190409F00CF439
:1053000009C1489EF001499EF00D1124E80DF91DD8
:10531000EE0FFF1FE253F44F4AE062E57DE080812B
:1053200091810E94CB3F82E59DE00E94F10FC40174
:105330009595879595958795589EA001599E500DF6
:1053400011244A5B5F4FC40183709927A89EB00166
:10535000A99E700D1124645F7F4FF12CE12C0FEF9B
:105360001FEF21E082E59DE00E94F7399FEF891A47
:10537000990A6814790409F0B7CF8091200B88232B
:1053800009F41DC180911F0B882309F4CAC00E9433
:10539000991D0F900F900F900F90DF91CF911F915B
:1053A0000F91FF90EF90DF90CF90BF90AF909F90C4
:1053B0008F907F906F905F904F9008958B3F79F41E
:1053C0008091130B9091140B1816190644F48091D8
:1053D000C30B9091C40B039749F1611127C0F8E802
:1053E000CF2EF3E1DF2E31CFD5014D915D915D01DF
:1053F000481759070CF4CA01C416D5060CF46A0103
:105400003196E815F90584F3285E3F4FE216F3065E
:10541000C9F4C80ED91ED7FE03C0FFEFCF1ADF0AAA
:10542000D594C7948AE0C80ED11C0FCF0FE911E0C4
:105430002EEC3BE0BEE4EB2EBDE0FB2ED12CC12CCC
:1054400088E893E1F801A1918F018A2E912C5901EE
:10545000F0E0E0E0D6CF8AE997E00E948419F12CD1
:10546000E12C0FE110E021E045EA50E06CE070E053
:1054700080EB97E00E94F73921E045EA50E062EACC
:1054800070E087EB97E00E94F73909CF4AE062E5C8
:105490007DE080910E0B90910F0B0E94CB3F68E155
:1054A00078E082E59DE00E94B93F8091C30B909126
:1054B000C40B8330910529F1009731F1049739F538
:1054C00080E098EF20917B02222339F020911E0B7F
:1054D0002D7F243011F480E098EF7C0110E000E093
:1054E00021E042E050E062E171E082E59DE00E944F
:1054F000F7398091200B8111E8CEECE06E2E712CF3
:10550000EBCE8FE190E0DECF8FEE9BE7DBCF80EE3E
:1055100097E0D8CF64E178E082E59DE00E94C43F47
:1055200006CF1EECA12E1BE0B12ED12CC12C0EE11A
:10553000802E8BE4982E8091A0018C151D04C1F162
:10554000BCF14AE062E57DE0D50158968D919C91D1
:105550000E94CB3F82E59DE00E94F10FC601959528
:10556000879595958795889EA001899E500D112459
:105570004E575F4FC60183709927989EB001999E40
:10558000700D1124645F7F4FF12CE12C0FEF1FEFA2
:1055900021E082E59DE00E94F739BFEFCB1ADB0ADC
:1055A000E2E0AE0EB11CF8E0CF16D10421F6EFCE4A
:1055B00064E178E082E59DE00E94C43FCFCFE091B6
:1055C0000E0BF0910F0BEE0FFF1FE15AF44F6181AC
:1055D00061117EC068ED75E082E59DE00E94C43FE8
:1055E000F12CE12C0FEF1FEF21E045EA50E060E6DF
:1055F00070E082E59DE00E94F739E0910E0BF0919A
:105600000F0BEE0FFF1FE15AF44F6081611167C06D
:1056100068ED75E082E59DE00E94C43FF12CE12C2D
:105620000FEF1FEF21E045EA50E066EF70E082E502
:105630009DE00E94F7394CE0842E5EE1952E6BE4EC
:10564000A62E80910E0B90910F0B889EF001899EE3
:10565000F00D1124EE0DFF1DEE0FFF1FE253F44F6E
:105660008081918100E01CEFC816D90614F010E08B
:1056700000E0C7019595879595958795989EB0010F
:10568000999E700D1124970123703327A29EC001AB
:10569000A39E900D11249B01275A3F4FAC01485BFC
:1056A0005F4F685A7F4F0C960E9486388FEFE81A3A
:1056B000F80A9CE0E916F10421F66B2D8DE591E0E6
:1056C0000E946E286B2D82E591E00E946E2861CECB
:1056D0006852770B82E59DE00E94451081CF6852A9
:1056E000770B82E59DE00E94451098CFEF92FF92E4
:1056F0000F931F93CF93C0910401CC2361F11092BB
:105700000401F12CE12C0AE812E52FEE30E0A701AC
:1057100070E060E0C7010E94863882E0E80EF11C6C
:1057200080E4E81681E0F80671F728EE30E048E101
:1057300051E064E170E088E290E00E94863810E079
:1057400000E026EE30E046E151E066E170E08AE2FA
:1057500090E00E9486388091C30B9091C40B892BF6
:1057600021F08091200B882341F1489B02C065996C
:1057700024C08FE190E090939B0180939A016C2F5D
:1057800084E991E00E946E286C2F89E891E00E94E4
:105790006E286C2F8EE791E00E946E286C2F83E7B5
:1057A00091E00E946E286C2F88E691E0CF911F91C6
:1057B0000F91FF90EF900C946E288AE892E5DBCF72
:1057C000CF92DF92EF92FF920F931F93CF93DF93CD
:1057D000CDB7DEB76C970FB6F894DEBF0FBECDBF66
:1057E000D0900401DD2009F461C010920401809181
:1057F000200B882309F4E6C08CEC97E00E94841902
:105800008091200B882321F080912C0B882369F054
:10581000F12CE12C0FEF1FEF22E04EE150E068E0A9
:1058200070E082EE97E00E94F739F12CE12C0FEF47
:105830001FEF22E04AE550E068E070E082EE97E07A
:105840000E94F73922E046E950E068E070E082EE1D
:1058500097E00E94F7398091200B882321F08091F6
:105860002C0B882369F0F12CE12C0FEF1FEF22E0C5
:105870004EE150E060E271E084EE97E00E94F7397B
:10588000F12CE12C0FEF1FEF22E04AE550E060E23F
:1058900071E084EE97E00E94F73922E046E950E09B
:1058A00060E271E084EE97E00E94F7396D2D85E0AB
:1058B00091E00E946E288091120BF12CE12C00EEF9
:1058C00017E021E048E250E060EA70E0823009F041
:1058D0007CC086EE97E00E94593A0FE110E021E08B
:1058E0004AE550E060EA70E088EF97E00E94593A9C
:1058F00021E046E950E060EA70E083E098E00E9431
:10590000593A4AE0BE016F5F7F4F80910E0B909134
:105910000F0B0E94CB3F6FE078E082E59DE00E9494
:10592000C43FBE016F5F7F4F82E59DE00E94B93F9B
:105930006FE078E082E59DE00E94B93F0FEF1FEF36
:1059400021E04EE650E060EA70E082E59DE00E94D2
:10595000593AE0910E0BF0910F0BE156FE4F80810A
:105960004AE0BE016F5F7F4F90E00E94CB3F6FE047
:1059700078E082E59DE00E94C43FBE016F5F7F4FEB
:1059800082E59DE00E94B93F6FE078E082E59DE00E
:105990000E94B93F21E04AEA50E060EA70E082E507
:1059A0009DE00E94593A6C960FB6F894DEBF0FBE88
:1059B000CDBFDF91CF911F910F91FF90EF90DF90BE
:1059C000CF90089586ED97E019CF813009F088C017
:1059D0008AE198E00E94593A0FE110E021E04AE59F
:1059E00050E060EA70E08DE298E00E94593A21E0D0
:1059F00046E950E060EA70E088E398E00E94593A96
:105A0000E0910C0BF0910D0BEE0FFF1FEF56FD4FC9
:105A10000FEF1FEF21E04EE650E060EA70E080817A
:105A200091810E94593A20910C0B30910D0BF90194
:105A3000ED58F24F4081842F90E0B9016250710916
:105A40006230710518F02930310521F45AE0459F84
:105A5000C00111242730310581F4880F991FFC0102
:105A6000E757FD4F6081718182E59DE00E94C43F50
:105A7000F12CE12C0FEF1FEF8DCF25503109223093
:105A8000310530F4880F991FFC01EF57FD4FEACF25
:105A90004AE0BE016F5F7F4F0E94CB3F63E178E039
:105AA00082E59DE00E94C43FBE016F5F7F4F82E5AB
:105AB0009DE00E94B93FE0910C0BF0910D0BEE0FB1
:105AC000FF1FEB55FD4F6081718182E59DE00E94D3
:105AD000B93F63E178E082E59DE00E94B93FC8CF1D
