:100000000C9496080C94B5080C94B5080C94B5089B
:100010000C94B5080C94B5080C94B5080C94B5086C
:100020000C94B5080C94B5080C94B5080C94B5085C
:100030000C94B5080C94B5080C94B5080C94E145E3
:100040000C94EA160C94A72D0C94B5080C94B508E2
:100050000C94B5080C94B5080C94B5080C94B5082C
:100060000C94B5080C94B5080C94B5080C94B5081C
:100070000C94B5080C94B5080C94B5080C94B5080C
:100080000C94B5080C94B5080C94B5080C94B508FC
:100090000C94B50800000000000000000000000003
:1000A0000000000000000000000000000000000050
:1000B000000000000000000007000F800F800F808C
:1000C0000F800F80070007000000000007000700F6
:1000D0000700000000000E380E380E380E380630CB
:1000E0000000000000000000000000000000000010
:1000F0000000000000000C300C300C307FFE7FFE52
:100100000C300C300C300C307FFE7FFE0C300C308D
:100110000C3000000000024002400FF81FF81A40A7
:100120001A401FF00FF8025802581FF81FF0024043
:10013000024000000000000000000E100E300E70A3
:1001400000E001C0038007000E700C700870000012
:1001500000000000000000000F00198019801980C5
:100160000F000F080F9819F818F018E019F00F9801
:1001700000000000000000000700070007000E005C
:10018000000000000000000000000000000000006F
:10019000000000000000000000F001C00380070024
:1001A0000E000E000E000E000700038001C000F0DC
:1001B00000000000000000000F00038001C000E00C
:1001C000007000700070007000E001C003800F003C
:1001D000000000000000000001801188099007E085
:1001E00007E03FFC3FFC07E007E009901188018031
:1001F00000000000000000000000000001800180FD
:1002000001800FF00FF001800180018000000000EC
:1002100000000000000000000000000000000000DE
:1002200000000000000000000000070007000700B9
:100230000E000000000000000000000000000000B0
:1002400000001FF81FF80000000000000000000080
:10025000000000000000000000000000000000009E
:100260000000000000000000000007000700070079
:10027000000000000000000000020006000E001C4C
:100280000038007000E001C0038007000E001C0071
:1002900000000000000000000FF01C381C781CF863
:1002A0001CF81DB81DB81F381F381E381C380FF039
:1002B00000000000000000000180018003801F801A
:1002C0001F800380038003800380038003801FF06E
:1002D00000000000000000000FE01C701C38003817
:1002E000007000E001C0038007000E381C381FF8C2
:1002F00000000000000000000FE01C701C380038F7
:10030000007003C003C0007000381C381C700FE080
:10031000000000000000000000E001E003E006E053
:100320000CE018E01FF81FF800E000E000E003F820
:1003300000000000000000001FF81C001C001C0052
:100340001C001FE01FF0007800381C381C700FE004
:10035000000000000000000003E007000E001C0089
:100360001C001FF01FF81C381C381C381C380FF0FC
:1003700000000000000000001FFC1C1C1C1C1C1CBA
:10038000001C0038007000E001C00380038003807F
:1003900000000000000000000FF01C381C381C3862
:1003A0001F3807E007E01CF81C381C381C380FF019
:1003B00000000000000000000FF01C381C381C3842
:1003C0001C381FF80FF800380038007000E007C034
:1003D0000000000000000000000000000380038017
:1003E0000380000000000380038003800000000001
:1003F00000000000000000000000000003800380F7
:1004000003800000000003800380038007000000D9
:10041000000000000000007000E001C00380070041
:100420000E001C001C000E000700038001C000E04D
:1004300000700000000000000000000000003FFC11
:100440003FFC000000003FFC3FFC000000000000FB
:100450000000000000001C000E000700038001C027
:1004600000E00070007000E001C0038007000E0093
:100470001C000000000003C00FF01E781838003880
:10048000007000E001C001C00000000001C001C018
:1004900001C0000000000FF81C1C1C1C1C1C1C1CB4
:1004A0001CFC1CFC1CFC1CFC1C001C001C001FF089
:1004B00007F800000000000003C007E00E701C38C1
:1004C0001C381C381C381FF81C381C381C381C38C9
:1004D00000000000000000001FF00E380E380E383B
:1004E0000E380FF00FF00E380E380E380E381FF0A1
:1004F000000000000000000007F00E381C381C004F
:100500001C001C001C001C001C001C380E3807F0CE
:1005100000000000000000001FE00E700E380E38D2
:100520000E380E380E380E380E380E380E701FE0AA
:1005300000000000000000001FF80E180E080E005A
:100540000E300FF00FF00E300E000E080E181FF8D0
:1005500000000000000000001FF80E180E080E003A
:100560000E300FF00FF00E300E000E000E001F00C8
:10057000000000000000000007F00E381C381C3896
:100580001C001C001C001CF81C381C380E3807F816
:1005900000000000000000001C701C701C701C702B
:1005A0001C701FF01FF01C701C701C701C701C70E5
:1005B000000000000000000007F001C001C001C001
:1005C00001C001C001C001C001C001C001C007F0ED
:1005D000000000000000000001FC007000700070CE
:1005E00000700070007038703870387038700FE02C
:1005F00000000000000000001E380E380E700EE0F3
:100600000FC00F800F800FC00EE00E700E381E3826
:1006100000000000000000001F000E000E000E0091
:100620000E000E000E000E000E080E180E381FF8F9
:1006300000000000000000001C1C1E3C1F7C1FFC72
:100640001FFC1DDC1C9C1C1C1C1C1C1C1C1C1C1CC6
:1006500000000000000000001C1C1C1C1E1C1F1CB5
:100660001F9C1DDC1CFC1C7C1C3C1C1C1C1C1C1C26
:10067000000000000000000003E007F00E381C1C22
:100680001C1C1C1C1C1C1C1C1C1C0E3807F003E032
:1006900000000000000000001FF00E380E380E3879
:1006A0000E380FF00FF00E000E000E000E001F00AF
:1006B000000000000000000003E00F780E381C1C52
:1006C0001C1C1C1C1C1C1C7C1CFC0FF80FF800388C
:1006D00000FC0000000000001FF00E380E380E383D
:1006E0000E380FF00FF00E700E380E380E381E3820
:1006F00000000000000000000FF01C381C381C38FF
:100700001C000FE007F000381C381C381C380FF0B4
:1007100000000000000000001FFC19CC11C401C043
:1007200001C001C001C001C001C001C001C007F08B
:1007300000000000000000001C701C701C701C7089
:100740001C701C701C701C701C701C701C700FE0E6
:1007500000000000000000001C701C701C701C7069
:100760001C701C701C701C701C700EE007C0038095
:1007700000000000000000001C1C1C1C1C1C1C1C99
:100780001C1C1C9C1C9C1C9C0FF80FF8077007700D
:1007900000000000000000001C701C701C700EE0C7
:1007A00007C00380038007C00EE01C701C701C7023
:1007B00000000000000000001C701C701C701C7009
:1007C0001C700EE007C003800380038003800FE0ED
:1007D00000000000000000001FF81C3818381070DE
:1007E00000E001C0038007000E081C181C381FF829
:1007F000000000000000000007F0070007000700ED
:10080000070007000700070007000700070007F0C0
:100810000000000000000000100018001C000E0086
:100820000700038001C000E000700038001C0007D2
:10083000000000000000000007F000700070007071
:10084000007000700070007000700070007007F0A1
:10085000000000000000018003C007E00E701C389B
:100860000000000000000000000000000000000088
:100870000000000000000000000000000000000078
:100880000000000000000000000000000000000068
:100890007FFF7FFF000000001C001C000700070016
:1008A0000000000000000000000000000000000048
:1008B0000000000000000000000000000000000038
:1008C0000FE0007000700FF01C701C701C700FD8CF
:1008D00000000000000000001E000E000E000E00D0
:1008E0000FF00E380E380E380E380E380E381BF05A
:1008F00000000000000000000000000000000000F8
:100900000FE01C701C701C001C001C701C700FE0A1
:10091000000000000000000000F80070007000708F
:100920000FF01C701C701C701C701C701C700FD899
:1009300000000000000000000000000000000000B7
:100940000FE01C701C701FF01C001C701C700FE06E
:10095000000000000000000003E0077007700700BF
:1009600007001FE01FE007000700070007001FC087
:100970000000000000000000000000000000000077
:100980000FD81C701C701C701C700FF007F00070EA
:100990001C700FE0000000001E000E000E000E0094
:1009A0000EF00F380F380E380E380E380E381E384D
:1009B000000000000000000001C001C001C00000F4
:1009C0000FC001C001C001C001C001C001C00FF8CB
:1009D00000000000000000000070007000700000C7
:1009E00003F00070007000700070007000701C70E8
:1009F0000CF007E0000000001E000E000E000E00CC
:100A00000E380E700EE00FC00EE00E700E381E385D
:100A100000000000000000000FC001C001C001C0C4
:100A200001C001C001C001C001C001C001C00FF878
:100A300000000000000000000000000000000000B6
:100A40001FF81C9C1C9C1C9C1C9C1C9C1C9C1C9C87
:100A50000000000000000000000000000000000096
:100A60001FE01C701C701C701C701C701C701C70B3
:100A70000000000000000000000000000000000076
:100A80000FE01C701C701C701C701C701C700FE040
:100A90000000000000000000000000000000000056
:100AA0001BF00E380E380E380E380E380FF00E00D0
:100AB0000E001F0000000000000000000000000009
:100AC0001FB038E038E038E038E038E01FE000E000
:100AD00000E001F000000000000000000000000045
:100AE0001EF00FF80F380E000E000E000E001F0053
:100AF00000000000000000000000000000000000F6
:100B00000FE01C301C300F8003E0187018700FE0ED
:100B100000000000000000000000010003000700CA
:100B20001FF007000700070007000770077003E0C9
:100B300000000000000000000000000000000000B5
:100B40001C701C701C701C701C701C701C700FD8EA
:100B50000000000000000000000000000000000095
:100B60001C701C701C701C701C700EE007C0038091
:100B70000000000000000000000000000000000075
:100B80001C1C1C1C1C1C1C9C1C9C0FF80770077058
:100B90000000000000000000000000000000000055
:100BA0001CE01CE00FC0078007800FC01CE01CE0A9
:100BB0000000000000000000000000000000000035
:100BC0000E380E380E380E380E3807F003E000E00D
:100BD00001C01F80000000000000000000000000B5
:100BE0001FE018E011C0038007000E201C601FE00A
:100BF000000000000000000001F803800380038073
:100C000007001C001C00070003800380038001F81C
:100C100000000000000001C001C001C001C001C00F
:100C200001C001C001C001C001C001C001C001C0BC
:100C300001C00000000000001F8001C001C001C011
:100C400000E00038003800E001C001C001C01F8092
:100C5000000000000000000003C00660066006609F
:100C600003C00000000000000000000000000000C1
:100C70000000000049646C65005072656368617231
:100C800067696E670052756E6E696E6700436861D2
:100C90007267696E670053746F70706564005365A6
:100CA00074757000740C790C850C8D0C960C9E0C70
:100CB0004E6F206572726F7200436F72727570743E
:100CC0002073657474696E6773004F76657263751F
:100CD0007272656E74207761726E696E67004F760E
:100CE000657263757272656E742073687574646F73
:100CF000776E00424D53202D204C6F772063656C3A
:100D00006C0053687574646F776E20627920424D71
:100D10005300424D53202D20486967682063656C5D
:100D20006C0043686172676520656E64656420626B
:100D30007920424D5300424D53202D204F7665724D
:100D400074656D7000424D53202D20556E646572A0
:100D500074656D70004C6F77206261747465727990
:100D600020636861726765004F7665722D74656DEA
:100D700070657261747572650049736F6C61746936
:100D80006F6E206661756C74004C6F77203132563F
:100D90002062617474657279005072656368617273
:100DA0006765206661696C656400436F6E7461639A
:100DB000746F72206661756C7400424D53202D2053
:100DC000436F6D6D73206572726F72004E6F20639A
:100DD0006F6D6D7320746F2045564D5300B00CB984
:100DE0000CCA0CDE0CF30C020D120D220D360D4553
:100DF0000D550D680D790D890D990DAA0DBA0DCC03
:100E00000D57616B6520757000416C7420636861DB
:100E10007267650048646C6967687420696E004396
:100E200074722061757820737700010E090E140E1C
:100E30001F0E47726F756E640054656D7020676198
:100E4000756765004C6F7720536F43004F7665726E
:100E500074656D7000556E64657274656D700045E3
:100E600072726F720053746174757300320E390EB2
:100E7000440E4C0E550E5F0E650E205061636B20C4
:100E8000436170616369747920002020536F4320AF
:100E90005761726E696E672020002046756C6C2069
:100EA000566F6C746167652000205761726E204335
:100EB000757272656E742000202020547269702053
:100EC00043757272656E742020200045564D532084
:100ED00054656D70205761726E696E6700204D69B0
:100EE0006E2041757820566F6C7461676520002014
:100EF0004D696E2049736F6C6174696F6E200020BC
:100F00002020546163686F20505052202020002020
:100F10004675656C2047617567652046756C6C2069
:100F2000004675656C20476175676520456D707476
:100F300079002054656D7020476175676520486FA2
:100F40007420002054656D702047617567652043EB
:100F50006F6C64200020424D53204D696E20566F07
:100F60006C74616765200020424D53204D617820EC
:100F7000566F6C7461676520002042616C616E631E
:100F80006520566F6C7461676520002020424D53C8
:100F9000204879737465726573697320200020207E
:100FA000424D53204D696E2054656D702020002005
:100FB00020424D53204D61782054656D70202000F3
:100FC0004D61782043686172676520566F6C74616B
:100FD0006765004D617820436861726765204375DD
:100FE0007272656E7400416C74204368617267654B
:100FF00020566F6C7461676500416C7420436861B2
:101000007267652043757272656E7400202020201F
:10101000536C6565702044656C6179202020200048
:1010200020204D50492046756E6374696F6E2020F4
:101030000020204D504F312046756E6374696F6EED
:1010400020200020204D504F322046756E63746979
:101050006F6E20200020506172616C6C656C2053B3
:101060007472696E67732000456E61626C65205012
:1010700072656368617267650020205374617469EA
:101080006F6E617279204D6F646520200052657625
:101090002E2043757272656E742044697370004E21
:1010A00069676874204272696768746E657373005B
:1010B0002020202042757A7A6572204F6E202020F1
:1010C0002000205573652046616872656E68656909
:1010D000742000202020536F4320446973706C619A
:1010E00079202020007A0E8A0E9A0EA90EB80ECB17
:1010F0000EDD0EEF0EFF0E0F0F210F320F430F55B7
:101100000F670F790F8B0F9E0FAF0FC00FD30FE636
:101110000FF90F0C10201031104310551068107982
:10112000108D109F10B010C210D3100011241FBEDC
:10113000CFEFD0E1DEBFCDBF1CE0A0E0B1E0E0ED3D
:10114000FDE900E00BBF02C007900D92A832B10785
:10115000D9F71EE0A8E2BCE001C01D92A83EB1078D
:10116000E1F70E94E7430C94E64E0C9400005C9873
:101170005F98E0E0F1E0E90FF11D908192B988B944
:10118000A098A09A5F9A08955C9A5F98E0E0F1E0D9
:10119000E90FF11D908192B988B9A098A09A5F9A41
:1011A00008950F931F938B010E94B708C8010E94F6
:1011B000C4081F910F910895CF92DF92EF92FF9292
:1011C0000F931F93CF93DF939C019093290C8093EF
:1011D000280C81E080932A0C5B9AA19A80E29EE41D
:1011E0000197F1F7A19880E69AEEFC013197F1F7AB
:1011F000A19A0197F1F75F9AA09A88EC90E040E9F4
:1012000051E0FA013197F1F70197D9F72230310512
:10121000B1F5C0E0D2E01881112309F1115082E04C
:10122000C82ED12CCC0EDD1E898190E00E94B7081B
:101230007E01C12FD0E0219687010C0F1D1F219741
:1012400005C0F701818190E00E94C4080894E11C68
:10125000F11CE016F106A9F7CC0DDD1DDCCF81E114
:1012600090E00E94B70880EB94E020E931E0F901BA
:101270003197F1F70197D9F789E290E04DC221301B
:10128000310509F051C185EE90E060EF78E70E94EA
:10129000D10881E090E060E071E00E94D10882E036
:1012A00090E060E072E00E94D10883E090E060E3AB
:1012B00070E10E94D10884E090E060E070E00E945C
:1012C000D10888E090E067E072E00E94D10889E0F0
:1012D00090E060E070E00E94D1088AE090E060E079
:1012E00070E00E94D1088CE090E060E070E00E9425
:1012F000D1088DE090E060E070E00E94D1088FE0BE
:1013000090E060E070E00E94D10880E190E060E051
:1013100070E00E94D10881E190E067E070E00E94F7
:10132000D10882E190E060E070E00E94D10883E1A2
:1013300090E060E070E00E94D10887E090E061E01A
:1013400070E00E94D10880ED97E020E931E0F901DA
:101350003197F1F70197D9F780E190E060E976E104
:101360000E94D10881E190E067E272E00E94D1081A
:1013700084EF91E020E931E0F9013197F1F701972D
:10138000D9F782E190E06DE070E00E94D10884EF2F
:1013900091E020E931E0F9013197F1F70197D9F7B0
:1013A00083E190E060E072E10E94D10889E290E080
:1013B0006AE070E00E94D1088BE290E06DE070E09E
:1013C0000E94D10884EF91E020E931E0F9013197E2
:1013D000F1F70197D9F780E290E060E070E00E94B9
:1013E000D10881E290E060E070E00E94D10880E3E3
:1013F00090E060E070E00E94D10881E390E064E05A
:1014000074E00E94D10882E390E063E070E00E9403
:10141000D10885E390E065E074E00E94D10886E39E
:1014200090E068E078E00E94D10887E390E067E010
:1014300074E00E94D10888E390E063E073E00E94CA
:10144000D10889E390E067E077E00E94D1088CE35F
:1014500090E064E075E00E94D1088DE390E068E0E0
:1014600078E00E94D10880E590E060E070E00E94A2
:10147000D10881E590E06FEE70E00E94D10882E52E
:1014800090E060E070E00E94D10883E590E06FE3B7
:1014900071E00E94D10880E690E060E077EA0E9467
:1014A000D10881E690E061E070E00E94D1088AE610
:1014B00090E060E070E00E94D10880E890E060E099
:1014C00070E00E94D10881E890E060E070E00E9446
:1014D000D10882E890E060E070E00E94D10883E8E3
:1014E00090E060E070E00E94D10884E890E060E065
:1014F00070E00E94D10885E890E060E070E00E9412
:10150000D10880E990E060E170E00E94D10882E9B2
:1015100090E060E070E00E94D10887E090E063E333
:1015200071E00E94D108FAC080E090E061E070E0D4
:101530000E94D10883E090E064EA78EA0E94D10832
:101540008CE090E060E070E00E94D1088DE090E0D7
:101550006CE078E00E94D1088EE090E060E07BE2F1
:101560000E94D1088EE190E067EB70E00E94D10804
:1015700081E090E06FE37BE20E94D10882E090E09E
:1015800060E076E00E94D10880E190E060E070E0E9
:101590000E94D10881E190E060E770E60E94D108E6
:1015A00085E090E060E070E00E94D10886E090E085
:1015B00060E070E00E94D10886E190E06CE17FEE8F
:1015C0000E94D10887E190E063E070E00E94D108BA
:1015D00087E090E063E372E00E94D1088BE090E046
:1015E00060E070E00E94D1088FE090E060E070E081
:1015F0000E94D10881E490E060E070E00E94D10890
:1016000082E490E060E070E00E94D10888E490E01D
:1016100060E070E00E94D10889E490E06FE371E03F
:101620000E94D1088AE490E060E070E00E94D10856
:101630008BE490E060E070E00E94D10884E490E0E8
:1016400060E07FEE0E94D10885E490E060E070E009
:101650000E94D10886E490E06FE371E00E94D10817
:1016600080E390E067E077E00E94D10881E390E0BA
:1016700064E072E00E94D10882E390E064E072E0EE
:101680000E94D10883E390E062E075E00E94D108F7
:1016900084E390E067E075E00E94D10885E390E084
:1016A00064E072E00E94D10886E390E064E072E0BA
:1016B0000E94D10887E390E062E075E00E94D108C3
:1016C0008AE390E062E073E00E94D1088BE390E04F
:1016D00062E073E00E94D10883E290E060E070E095
:1016E0000E94D10884E290E060E070E00E94D1089E
:1016F00085E290E060E070E80E94D1088FE490E01D
:1017000060E070E00E94D1088EE490E060E070E05C
:101710000E94D10882E290E00E94B7085F9ADF91B0
:10172000CF911F910F91FF90EF90DF90CF90089590
:10173000CF92DF92EF92FF920F931F93CF93DF939D
:10174000EB01890120E431E06901C81AD90A790165
:10175000E41AF50A8091280C9091290C82309105A9
:1017600059F58AE290E00E94B7088D2F90E00E9420
:10177000C408CE0190700E94C408812F90E00E949E
:10178000C408C80190700E94C4088BE290E00E94D7
:10179000B7088F2D90E00E94C408C70190700E9486
:1017A000C4088D2D90E00E94C408C60190700E946C
:1017B000C4088CE290E03CC00197E1F480E290E044
:1017C0000E94D10881E290E0B7010E94D10880E533
:1017D00090E0BE010E94D10882E590E0B7010E942E
:1017E000D10881E590E0B8010E94D10883E590E03E
:1017F000B6011AC0702F66276C0F7D1F84E490E03D
:101800000E94D10885E490E0B7010E94D10886E4E7
:1018100090E0B6010E94D1088EE490E0BE010E94E3
:10182000D1088FE490E0B7010E94D10882E290E0F5
:101830000E94B708DF91CF911F910F91FF90EF9019
:10184000DF90CF900895AF92BF92CF92DF92EF9248
:10185000FF920F931F93CF93DF935C01F62EE72E39
:101860006A01E9010E94980BC8010E94C4085F98B0
:101870002F2D3E2DC901AC0109C0A098A09A2F5F61
:101880003F4FC216D306C8F74F5F5F4FC417D50747
:1018900010F09501F6CF5F9ADF91CF911F910F91D4
:1018A000FF90EF90DF90CF90BF90AF9008950F938F
:1018B0001F938C0180E090E060E070E040E451E034
:1018C0002FEE30E00E94230C1F910F9108950F938B
:1018D0001F93FB01DA018901BA01AF019D010E944A
:1018E000230C1F910F9108950F931F93FC01DB01AF
:1018F000842F890150E04F5F5F4F90E0BF019D0151
:101900000E94230C1F910F9108958F929F92AF9286
:10191000BF92CF92DF92EF92FF920F931F93B82E58
:10192000892E6B01A42E952E7901642F752FA601A7
:1019300098010E94670C8B2D982D6A2D792DA70197
:1019400098010E94670CC601B7014B2D98010E94B7
:10195000740CC601B7014A2D98010E94740C1F91A6
:101960000F91FF90EF90DF90CF90BF90AF909F903E
:101970008F9008952F923F924F925F926F927F9235
:101980008F929F92AF92BF92CF92DF92EF92FF928F
:101990000F931F93DF93CF93CDB7DEB763970FB647
:1019A000F894DEBF0FBECDBF382F6B015E834D8331
:1019B0000A871B87EC86FD86422F50E05C834B83B1
:1019C00084EF9FEFBC01469FC001479F900D569F3B
:1019D000900D1124805C9E4F8C159D0508F4A6C0C7
:1019E0008FE090E0841B950BF4E0880F991FFA9527
:1019F000E1F7ED81FE818E179F0708F497C05F988D
:101A0000832F90E08097E5E0880F991FEA95E1F732
:101A10000894C108D108440F551F58874F833A01D5
:101A200063E0660C771C6A95E1F7641A750A6C0C22
:101A30007D1C0894C11CD11C35E9432E30E0532E87
:101A4000480E591E1A8219829C012B543F4F398B24
:101A5000288B60C09401220D331DC601B901A3017A
:101A60000E94980B720101E010E0F7018491BB2401
:101A7000282F30E03F872E870115110511F48B2D9B
:101A800002C08B2D8E5F4E855F8502C055954795B0
:101A90008A95E2F740FD04C05C855987AD8403C098
:101AA0006A856987AB841B8A1A8A89859A2D0E9468
:101AB000C4088A899B8901969B8B8A8BEB81FC8168
:101AC0008E179F0794F3B394F6E0BF16A9F6015062
:101AD00010400894E108F1082FEF0F3F120729F694
:101AE0000894811C911C4B815C81841695060CF432
:101AF000B1CF69817A818F819885680F791F7A8348
:101B00006983E2E0F0E04E0E5F1E288939894216B3
:101B1000530659F029803A80369427944D815E818E
:101B2000240E351E88249924DECF5F9A63960FB663
:101B3000F894DEBF0FBECDBFCF91DF911F910F9103
:101B4000FF90EF90DF90CF90BF90AF909F908F90DD
:101B50007F906F905F904F903F902F90089580B34B
:101B6000836180BB889A899A8C9A08958FB18695F3
:101B7000869580958170089580917E0C90917F0C60
:101B80008639910530F486E990E090937F0C80933C
:101B90007E0C80917E0C90917F0C8F569F4030F090
:101BA0008EE69FE090937F0C80937E0C80912A0CB0
:101BB00020917E0C30917F0C882329F08EE69FE0E7
:101BC000821B930B03C02659304EC901A3E0880F36
:101BD000991FAA95E1F76FE570E00E94C34D2FE3CE
:101BE00031E0261B370BC901089580917C0C909140
:101BF0007D0C883C910530F488EC90E090937D0C4E
:101C000080937C0C80917C0C90917D0C8D539F4037
:101C100030F08CE39FE090937D0C80937C0C2091BE
:101C20007C0C30917D0CC901880F991F820F931F86
:101C3000880F991F805B94406CE570E00E94C34D53
:101C40002FEE30E0261B370BC9010895899890E0EC
:101C500087FF02C08C9A01C08C98899A89989F5FEF
:101C6000983011F0880FF4CF089520E030E080E044
:101C7000220F331F899A89987B9B02C02F5F3F4FA9
:101C80008F5F8C30A9F7C90108958F929F92AF9210
:101C9000BF92CF92DF92EF92FF920F931F93CF9359
:101CA000DF93889800E010E0C0E0D0E0AA24BB24D5
:101CB00088249924EE24FF24CC24DD247A9908C0BA
:101CC00080E90E94260E899A89980E94350E8C011F
:101CD0007A9908C080ED0E94260E899A89980E9400
:101CE000350EEC01C80101978F5F9F4070F41C1600
:101CF0001D065CF480E1C030D8073CF4A00EB11E94
:101D00008C0E9D1E0894E11CF11C0894C11CD11C72
:101D100025E0C216D10491F6E114F10489F0C50161
:101D2000B7010E94D74D70937F0C60937E0CC40165
:101D3000B7010E94D74D70937D0C60937C0C0AC054
:101D40008FEF9FEF90937F0C80937E0C90937D0C90
:101D500080937C0C889ADF91CF911F910F91FF9017
:101D6000EF90DF90CF90BF90AF909F908F900895AD
:101D70002F923F924F925F926F927F928F929F929B
:101D8000AF92BF92CF92DF92EF92FF920F931F9389
:101D9000DF93CF9300D000D00F92CDB7DEB75C01B8
:101DA0004B015A8349832B8318012701DC010D90D5
:101DB0000020E9F76D010894C108D108C81AD90AB2
:101DC0008CE0289F300111241D821C8214C0EC81FC
:101DD000FD81EA0DFB1D8081B40149815A812B816F
:101DE000810172010E94BA0C860C971CEC81FD8166
:101DF0003196FD83EC838C819D818C159D053CF390
:101E00000F900F900F900F900F90CF91DF911F9137
:101E10000F91FF90EF90DF90CF90BF90AF909F9089
:101E20008F907F906F905F904F903F902F9008958C
:101E30009F92AF92BF92CF92DF92EF92FF920F9359
:101E40001F93382F992E6B015A01A82FB92FFD012E
:101E500001900020E9F73197EA1BFB0BCF01880FB7
:101E6000991F8E0F9F1F880F991F880F991F422F50
:101E700050E0BC01649FC001659F900D749F900D60
:101E8000112462E070E00E94D74DC61AD70A832F52
:101E9000992DB601A5010E94B80E1F910F91FF90D8
:101EA000EF90DF90CF90BF90AF909F90089590E01B
:101EB000892F8295807F8093ED00EEEEF0E0119205
:101EC000E83FF105E1F79F5F9F3091F7089520917A
:101ED000ED0090E0892F8295807F8093ED008091C6
:101EE000EF00807C19F42093ED0006C09F5F9F30C7
:101EF00089F72093ED009FEF892F08958091EF00DF
:101F0000807C11F48FEF08959091EE00892F807EF0
:101F1000803231F0803421F0803A11F0892F8F71B6
:101F20000895AC0120E006C08091FA00E40FF51F8F
:101F300080832F5F8091EF00E22FF0E090E08F70C0
:101F40009070E817F90784F308959F92AF92BF92BB
:101F5000CF92DF92EF92FF920F931F93882361F449
:101F6000DD24D394B3E0A8E062E072E050E011E039
:101F700040E0FF24F39454C08091E2008E7719F47E
:101F8000DD24D39409C08091E20090E08E779070B8
:101F900095958795D82ED3948091E3008E7011F497
:101FA000B1E009C08091E30090E08E70907095954B
:101FB0008795B82FBF5F8091E4008E70833010F456
:101FC00062E009C08091E40090E08E709070959579
:101FD0008795682F6F5F8091E4008077813110F4DE
:101FE00072E00CC08091E40090E08077907024E073
:101FF000959587952A95E1F7782F7F5F8B2F90E055
:10200000860F911D870F911D089714F4A8E004C056
:10201000AB2FAF5FA60FA70F51E010E041E0FF2408
:1020200090E0892F8295807F8093ED00EEEEF0E0C6
:102030001192E83FF105E1F79F5F9F3091F7EE24A1
:10204000E0E0F0E0CC2490E8A92E8AE0982EBB24B2
:10205000BA9481E0F81609F043C0F092D8003196A6
:102060008D2D8150880F8093E200272F269530E038
:102070002150304005E0220F331F0A95E1F78B2FE6
:1020800090E00197880F991F282B2093E300272FBA
:1020900030E02150304004E0220F331F0A95E1F771
:1020A000862F90E00197880F991F282B216020939D
:1020B000E400CF0123E0969587952A95E1F7809378
:1020C000E5001092ED001092EE00A092EF009092C9
:1020D000D8008091D90082FFFCCFB092DA00EE24C4
:1020E00001E03AC08091EE0090E085FF10C0809141
:1020F000EF008F738093EF001092D8008091D90089
:1021000082FDFCCF00E010E0CC24C39481C08F712D
:102110009070892B11F010E041E08091DA00282FB7
:1021200030E085FF11C0EE2041F48091DA0080623A
:102130008093DA00EE24E39407C08091DA00806295
:102140008093DA0010E041E02F703070232B21F0F3
:1021500010E0FF24F39403C0113021F256C0511156
:102160006F5F6930F8F07830E8F0A93111F0AF5FB7
:1021700005C080E4D81621F0D394A8E062E014C032
:102180008091EF008F738093EF001092D8008091C0
:10219000D90082FDFCCFA8E062E072E050E000E0F0
:1021A000CC2436C0663010F4762F0AC0262F30E0DB
:1021B000872F90E001968217930714F47F5F672FB3
:1021C000B72FB60FB095BA0F8B2F8150883040F6DD
:1021D000472F50E0262F30E02F5F3F4F2B0F311D50
:1021E000CA01880F991F880F991F821793070CF453
:1021F000B7CFCA01880F991F840F951F2817390779
:102200000CF4AECF51E011E003C0413009F4A7CF88
:1022100040E0013009F41DCF8C2D1F910F91FF90EC
:10222000EF90DF90CF90BF90AF909F90089581E0A6
:102230008093D80086E08093E2008CE08093E300F6
:1022400087E38093E40081E008951F93CF93DF93A9
:10225000EC018985882309F486C08F3109F483C095
:102260008F3F09F480C088818295807F8093ED0044
:102270000E947E0F182F803271F0813218F488236B
:1022800041F069C0803409F45CC0803A09F063C051
:1022900002C081E069C08091EF008F708E838F81D2
:1022A00098850E94910F8091F00090E0847090706A
:1022B00095958795959587958A878091EF00FE0182
:1022C000329684FF2BC081E08B878091F300869546
:1022D0008695869583839091F2008091F300829594
:1022E000880F807E969596959695890F828390911A
:1022F000F1008091F2008295880F807E96959695E8
:102300009695890F81839091F0008091F1008295DC
:10231000880F807E96959695969511C01B86809124
:10232000F30082958695877081839091F200809169
:10233000F300880F880F880F929596959770890FF4
:102340008A8319878091EF008F738093EF0010923A
:10235000EE0080E009C019878091EF008F738093B1
:10236000EF001092EE0082E0DF91CF911F9108956F
:102370000F931F93DF93CF9300D000D0CDB7DEB77C
:102380008C01DC0111968C9111978C30A9F419966F
:102390008C911997803669F48C918295807F809317
:1023A000ED008091EF008F738093EF001092EE00AC
:1023B0001C92F801118628C10E94670F982F8F3F49
:1023C00009F4EEC480E6D80119968C9319979C9372
:1023D0009295907F9093ED00EEEEF0E01192E83F41
:1023E000F105E1F7F8018181863009F4DCC187301D
:1023F00090F4833009F40AC1843030F4813011F153
:10240000823009F0C9C48CC0843009F451C18530D0
:1024100009F0C2C488C1893009F430C38A3038F465
:10242000873009F407C2883009F0B6C498C28A30F0
:1024300021F08B3009F0B0C40BC4D80116964C9132
:1024400090E0BCC3F80183853296882391F13281F4
:10245000932F9295969597708381880F880F880F98
:10246000980F9093F3002181822F82958695877033
:10247000330F330F330F830F8093F200D80112967E
:102480009C91220F220F220F892F829586958770AB
:10249000280F2093F100990F990F990F9093F00056
:1024A0008091EF0080618093EF00F801268190E039
:1024B00022C0D80112962C9181818295880F807E4E
:1024C000922F969596959695890F8093F300229575
:1024D000220F207E2093F2008091EF008F7EE3CFC9
:1024E000D8011796ED91FC911897E90FF11D8081A5
:1024F0008093FA009F5F921798F3F80182858823F2
:1025000021F08091F000846003C08091F0008B7F07
:102510008093F0008091EF00282B2093EF006AC099
:10252000D8011B968C91F8013296882391F1328163
:10253000932F9295969597708381880F880F880FB7
:10254000980F9093F3002181822F82958695877052
:10255000330F330F330F830F8093F200F801928112
:10256000220F220F220F892F829586958770280FC0
:102570002093F100990F990F990F9093F00080919B
:10258000EF0080618093EF00D80116962C9190E0C7
:1025900022C0D80112962C9181818295880F807E6D
:1025A000922F969596959695890F8093F300229594
:1025B000220F207E2093F2008091EF008F7EE2CFE9
:1025C000D8011796ED91FC911897E90FF11D8081C4
:1025D0008093FA009F5F921798F3F801128680911A
:1025E000F0008B7F8093F0008091EF009681892B23
:1025F0008093EF008091EF008F738093EF008091C4
:10260000EF0080648093EF0080E0CEC3D8011B967A
:102610008C91F8013296882361F13281932F929543
:10262000969597708381880F880F880F980F9093E5
:10263000F3002181822F829586958770330F330FA7
:10264000330F830F8093F200F8019281220F220F43
:10265000220F892F829586958770280F2093F1008D
:10266000990F990F990F9093F0008091EF0080617E
:1026700016C0D80112962C9181818295880F807E98
:10268000922F969596959695890F8093F3002295B3
:10269000220F207E2093F2008091EF008F7E8093A6
:1026A000EF0081E0F80182878091F00084609ACF8A
:1026B00019821A821B821C82FE0131963281932F6D
:1026C0009295969597708381880F880F880F980F41
:1026D0009093F7002181822F829586958770330F22
:1026E000330F330F830F8093F6009981220F220F4F
:1026F000220F892F829586958770280F2093F500E9
:10270000990F990F990F9093F4008091EF00D801E1
:1027100016969C91892B8093EF008091F4008B7F1B
:102720008093F40091C219821A821B821C82FE01DE
:1027300031963281932F9295969597708381880F69
:10274000880F880F980F9093F7002181822F829530
:1027500086958770330F330F330F830F8093F60006
:102760009981220F220F220F892F829586958770DB
:10277000280F2093F500990F990F990F9093F4006B
:102780008091EF00F8019681892B8093EF001286EB
:102790008091F40084608093F4008091F0008B7F3E
:1027A0008093F00051C219821A821B821C82FE01A2
:1027B00031963281932F9295969597708381880FE9
:1027C000880F880F980F9093F7002181822F8295B0
:1027D00086958770330F330F330F830F8093F60086
:1027E0009981220F220F220F892F8295869587705B
:1027F000280F2093F500990F990F990F9093F400EB
:102800008091EF00D80116969C911697892B8093A2
:10281000EF0081E01A968C938091F400846080939D
:10282000F4008091F00084608093F0008091EF00CC
:102830008F7D08C2F80183853296882369F1328141
:10284000932F9295969597708381880F880F880FA4
:10285000980F9093F3002181822F8295869587703F
:10286000330F330F330F830F8093F200D80112968A
:102870009C91220F220F220F892F829586958770B7
:10288000280F2093F100990F990F990F9093F00062
:102890008091EF00806116C0D80112962C91818141
:1028A0008295880F807E922F969596959695890FA2
:1028B0008093F3002295220F207E2093F2008091D6
:1028C000EF008F7E8093EF008FEF9FEFAFEFBFEFB2
:1028D00089839A83AB83BC83FE0131963281932F27
:1028E0009295969597708381880F880F880F980F1F
:1028F0009093F7002181822F829586958770330F00
:10290000330F330F830F8093F6009981220F220F2C
:10291000220F892F829586958770280F2093F500C6
:10292000990F990F990F9093F4008091EF00F8019F
:102930009681892B8093EF008091F4008B7F8093A8
:10294000F4008091F40081608093F4008091EF00A6
:102950008F738093EF008091EF00806853CED80191
:102960001B968C91F8013296882361F13281932F66
:102970009295969597708381880F880F880F980F8E
:102980009093F3002181822F829586958770330F73
:10299000330F330F830F8093F200F8019281220FDF
:1029A000220F220F892F829586958770280F2093FA
:1029B000F100990F990F990F9093F0008091EF001B
:1029C000806116C0D80112962C9181818295880F62
:1029D000807E922F969596959695890F8093F30019
:1029E0002295220F207E2093F2008091EF008F7EAF
:1029F0008093EF008FEF9FEFAFEFBFEF89839A8354
:102A0000AB83BC83FE0131963281932F92959695CC
:102A100097708381880F880F880F980F9093F70025
:102A20002181822F829586958770330F330F330F64
:102A3000830F8093F6009981220F220F220F892F96
:102A4000829586958770280F2093F500990F990F2E
:102A5000990F9093F4008091EF00F8019681892BF3
:102A60008093EF0012868091F40084608093F400DC
:102A70008091F0008B7F8093F00063CFD8011B968C
:102A80008C91F8013296882361F13281932F9295CF
:102A9000969597708381880F880F880F980F909371
:102AA000F3002181822F829586958770330F330F33
:102AB000330F830F8093F200F8019281220F220FCF
:102AC000220F892F829586958770280F2093F10019
:102AD000990F990F990F9093F0008091EF0080610A
:102AE00016C0D80112962C9181818295880F807E24
:102AF000922F969596959695890F8093F30022953F
:102B0000220F207E2093F2008091EF008F7E809331
:102B1000EF008FEF9FEFAFEFBFEF89839A83AB8317
:102B2000BC83FE0131963281932F929596959770D2
:102B30008381880F880F880F980F9093F700218169
:102B4000822F829586958770330F330F330F830F53
:102B50008093F6009981220F220F220F892F8295F0
:102B600086958770280F2093F500990F990F990F7C
:102B70009093F4008091EF00F8019681892B809367
:102B8000EF0081E082878091F40084608093F400FC
:102B90008091F00084608093F0008091EF008F7D41
:102BA0008093EF00CECED8011796ED91FC91189747
:102BB000E90FF11D80818093FA009F5F941798F3CD
:102BC00019821A821B821C82FE0131963281932F58
:102BD0009295969597708381880F880F880F980F2C
:102BE0009093F7002181822F829586958770330F0D
:102BF000330F330F830F8093F6009981220F220F3A
:102C0000220F892F829586958770280F2093F500D3
:102C1000990F990F990F9093F4008091EF00482B32
:102C20004093EF0081E0F80182878091F400846096
:102C30008093F4008091F00084608093F000809194
:102C4000EF0080628093EF008091F4008E7F7CCE55
:102C5000D8011B968C91F8013296882391F132812C
:102C6000932F9295969597708381880F880F880F80
:102C7000980F9093F3002181822F8295869587701B
:102C8000330F330F330F830F8093F200F8019281DB
:102C9000220F220F220F892F829586958770280F89
:102CA0002093F100990F990F990F9093F000809164
:102CB000EF0080618093EF00D80116964C9190E070
:102CC00022C0D80112962C9181818295880F807E36
:102CD000922F969596959695890F8093F30022955D
:102CE000220F207E2093F2008091EF008F7EE2CFB2
:102CF000D8011796ED91FC911897E90FF11D80818D
:102D00008093FA009F5F941798F38FEF9FEFAFEFD8
:102D1000BFEF89839A83AB83BC83FE0131963281F6
:102D2000932F9295969597708381880F880F880FBF
:102D3000980F9093F7002181822F82958695877056
:102D4000330F330F330F830F8093F6009981220FD7
:102D5000220F220F892F829586958770280F209346
:102D6000F500990F990F990F9093F4008091EF005F
:102D7000482B4093EF0081E0F80182878091F400B6
:102D800084608093F4008091F00084608093F00070
:102D90008091EF00806204CFD80119961C9234CC48
:102DA0008FE1F80181878FEF0F900F900F900F90B8
:102DB000CF91DF911F910F9108950E9417118823E1
:102DC00041F00E94570F8091D80082608093D80014
:102DD00081E008951F920F920FB60F9211248F93E6
:102DE0009F938091010B9091020B8E3F91050CF403
:102DF0008F9A9F918F910F900FBE0F901F901895F3
:102E0000482F8091470C8417B1F181E08093FF0A2D
:102E10001092800C8091CF0E882321F480914E0C6B
:102E20008823F9F08091460990E0889F9001899F5E
:102E3000300D989F300D1124C901880F991F880FFC
:102E4000991F820F931F62E070E00E94D74D70952A
:102E500061957F4F62507F4F7093D30E6093D20E77
:102E600004C01092D30E1092D20E88E790E0909397
:102E70004D0C80934C0C4093470C0895E4E0FAE02D
:102E800020E030E08191280F311D8AE0E431F8071D
:102E9000C9F73093520C2093510C08952F923F9212
:102EA0004F925F926F927F928F929F92AF92BF925A
:102EB000CF92DF92EF92FF920F931F93DF93CF9306
:102EC000CDB7DEB728970FB6F894DEBF0FBECDBFE3
:102ED0007A83698318861F829C01442737FD4095B9
:102EE000542F2B833C834D835E83DAC02F9A2E9818
:102EF0006B817C818D819E810E94844A1B012C0103
:102F00002BEA3AEA4AEA50E40E944E485B016C011F
:102F100020E030E040E85FE30E94544A882314F444
:102F200061E053C0C601B50120E030E04FE753E453
:102F30000E94F44918160CF044C0C201B10120E00F
:102F400030E04AE754E40E9448493B014C0120E04C
:102F500030E04AE755E40E944E487B018C0120E0B6
:102F600030E040E85FE30E94544A88231CF461E0AB
:102F700070E023C0C801B70120E03FEF4FE757E4FE
:102F80000E94F4491816ACF4C401B30120E030E00B
:102F900040E251E40E944E480E94784606C080E913
:102FA00091E00197F1F76150704061157105B9F733
:102FB0000EC0C801B7010E947846CB010197F1F716
:102FC00006C0C601B5010E9478466A95F1F72F98B0
:102FD0002E9AC601B50120E030E040E85FE30E9490
:102FE000544A882314F461E053C0C601B50120E0BF
:102FF00030E04FE753E40E94F44918160CF044C047
:10300000C201B10120E030E04AE754E40E9448499F
:103010005B016C0120E030E04AE755E40E944E4835
:103020007B018C0120E030E040E85FE30E94544ADD
:1030300088231CF461E070E023C0C801B70120E0E0
:103040003FEF4FE757E40E94F4491816ACF4C6016D
:10305000B50120E030E040E251E40E944E480E9479
:10306000784606C080E991E00197F1F76150704021
:1030700061157105B9F70EC0C801B7010E94784605
:10308000CB010197F1F706C0C601B5010E94784651
:103090006A95F1F74F8158854F5F5F4F58874F838F
:1030A0008F819885E981FA818E179F070CF41ECFD6
:1030B00028960FB6F894DEBF0FBECDBFCF91DF913B
:1030C0001F910F91FF90EF90DF90CF90BF90AF9046
:1030D0009F908F907F906F905F904F903F902F9038
:1030E00008959C0180914709882329F02F9A3093F5
:1030F0004B0C20934A0C089580914A0C90914B0CF4
:103100002FEF8D3992072CF0019790934B0C809301
:103110004A0C80914A0C90914B0C009711F42F9817
:103120000895885F9F4F24F59091470C992301F1F2
:1031300080914409882321F09430D1F09630C1F079
:1031400020914C0C30914D0C121613068CF480918A
:103150004709882339F02F9A88E090E090934B0C30
:1031600080934A0C2150304030934D0C20934C0CEE
:1031700008959FEF97B980EC84B991B9879A83B38A
:10318000836083BB8AB188698AB9589A759A92E03C
:1031900094BD83E080936E009093810081E08093E2
:1031A0006F000895CF93DF93EC0180914809882345
:1031B000B9F0CB01E3E0880F991FEA95E1F7860F9C
:1031C000971F65E070E00E94D74DCB018096BE014D
:1031D0004AE050E00E94774ECE0168E672E009C0F6
:1031E000CB01BE014AE050E00E94774ECE016CE672
:1031F00072E00E94654EDF91CF9108957F928F9289
:103200009F92AF92BF92CF92DF92EF92FF920F9375
:103210001F93CF93DF93EC01C62EE0918C0EF091BB
:103220008D0EE880F9800C811D81C80162E070E09C
:103230000E94D74D4701861A970AE815F905DCF078
:10324000C80162E070E00E94D74D6E0D7F1D6E17C1
:103250007F078CF02091B90E3091BA0E8A819B8144
:103260002817390744F040E08096821793070CF442
:1032700041E0442319F020E030E00BC020E030E0D2
:1032800080912D0C90912E0C8C179D0711F421E04C
:1032900030E0722E8A85882319F0222331F002C093
:1032A000222319F4CC2009F446C01E161F0664F42C
:1032B0008091B90E9091BA0E181619062CF4772049
:1032C00019F0AE80BF8002C0AA24BB24C80162E00E
:1032D00070E00E94D74D6B01CE0CDF1CEA80FB80B2
:1032E0009701205E3F4F0E811F81C401B701A601E7
:1032F0000E94230C4EEF5FEFC40ED51E9701225E95
:103300003F4FC401029642E050E0E40EF51EB701C3
:10331000A60185010E94230C688179814A815B8125
:10332000485F5F4F8885998521E00FEF1FEF75019A
:103330000E94180F7A86DF91CF911F910F91FF9015
:10334000EF90DF90CF90BF90AF909F908F907F9045
:1033500008950F931F93CF93DF938091FF0A8823E3
:1033600011F410E02AC01092FF0AC0E0D0E0CE01B4
:1033700060E070E0AE012FEE30E00AE812E50E9456
:10338000230C229681E0C034D80789F788E290E0C8
:1033900064E170E048E151E028EE30E00E94230C47
:1033A0008AE290E066E170E046E151E026EE30E02E
:1033B00000E010E00E94230C11E08091010D90913B
:1033C000020D892B21F08091450C882339F0489B10
:1033D00002C0659903C08FE190E002C08AE892E5DF
:1033E0009093270A8093260A80E29AE0612F0E9438
:1033F000FE1885E39AE0612F0E94FE188DE49AE0A2
:10340000612F0E94FE1884E69AE0612F0E94FE1848
:103410008CE79AE0612F0E94FE18DF91CF911F91F7
:103420000F910895EF92FF920F931F93CF93DF9325
:103430008091FF0A882309F451C01092FF0AC0E06E
:10344000D0E0CE0160E070E0AE012FEE30E00AE89F
:1034500012E50E94230C229681E0C034D80789F738
:1034600084E190E066E470E04BE251E029EA30E06C
:1034700000E018EF0E94230C88E190E06AE470E01D
:1034800047E251E025EA30E000E010E00E94230C22
:103490008091470CE82FF0E0EE0FFF1FE352F24F50
:1034A000659174918EE89EE00E945E4E80E792E006
:1034B00060EA70E04AE550E021E000E018EFEE2419
:1034C000FF240E94180F8EE89EE060EA70E042E858
:1034D00050E021E00FEF1FEF0E94180FDF91CF9116
:1034E0001F910F91FF90EF9008952F923F924F926E
:1034F0005F926F927F928F929F92AF92BF92CF9284
:10350000DF92EF92FF920F931F93DF93CF93CDB78C
:10351000DEB766970FB6F894DEBF0FBECDBF6091E1
:1035200036096B3FA0F48091010D9091020D039735
:1035300029F08091450C882309F465C08AE0689FD2
:10354000900111242053384F3E872D8760C06B3F78
:1035500009F059C08091510C9091520C181619061F
:103560000CF051C02091010D3091020D2330310536
:1035700019F18091450C8823F9F42230310509F0C6
:1035800042C0809144098130F1F516C0208131811B
:10359000201731070CF48901A217B3070CF4D901E5
:1035A0004F5F5F4F32964817590784F36F5F7F4F25
:1035B0006031710539F41AC008E813E1A0E0B0E009
:1035C00060E070E0FB01EC5FF54F808190E0FB0173
:1035D000EE0FFF1FE60FF71F43E0EE0FFF1F4A95A8
:1035E000E1F7E45FF24F40E050E0DDCFC8018A0F21
:1035F0009B1F62E070E00E94D74DAB01465F5F4FBA
:103600005E874D8704C088E893E19E878D87E091AF
:10361000510CF091520C1E161F061CF01C861B86C6
:1036200007C080E491E0BF010E94D74D7C876B8783
:10363000AB85BC85AE9F9001AF9F300DBE9F300D16
:10364000112480E491E0821B930B62E070E00E9401
:10365000D74D6F87788B20E030E0E13AF10514F424
:1036600021E030E080913509282E3324E8ECF0E0A9
:103670002E0E3F1E80913409482E552446E950E015
:10368000440E551E80914409882339F080913709F2
:1036900090E0280E391E481A590AC101841995096B
:1036A0009A878987882499241A821982AF85B889D4
:1036B0001196BA8BA98BEF85F889E21BF30BFC8B73
:1036C000EB8BE981FA81EC5FF54F208128874B85F0
:1036D0005C85849E3001859E700C949E700C112434
:1036E00089899A89680E791E0894811C911C849E90
:1036F000C001859E900D949E900D11240894810820
:103700009108AB89BC89A80FB91FBE83AD83EF8533
:10371000F889E80FF91FFC83EB83C980DA80CC0CB1
:10372000DD1C29813A81C20ED31E23E0CC0CDD1CA6
:103730002A95E1F74CE05DE0C40ED51E1F82C5C09E
:10374000D601ED91FC91CF016AE070E00E94D74D67
:103750009B01641575052CF492019FE1A92EB12CF3
:1037600015C0261637062CF49101A12C88EFB82E2F
:103770000DC04D855E854E175F0724F4A12C0CEF1C
:10378000B02E04C010EEA12E17E0B12E2419350979
:10379000A8E2B0E02A9FC0012B9F900D3A9F900DA8
:1037A000112469857A850E94D74D7B01E5E0F0E020
:1037B000EE0EFF1E2EEE30E02E193F09C30169EB1D
:1037C00070E04D815E8100E010E00E94230C6FEEFE
:1037D00070E06E197F09C3014D815E812FEE30E0EC
:1037E00085010E94230CC301019763E070E00E94F1
:1037F000D74D9B015B018B819C8163E070E00E944F
:10380000D74D7B01220F331F2A0D3B1D2F5F3F4FEA
:103810003E8B2D8B3FC08D899E89BC0142EC50E0D0
:103820002FEF3FEF0E94670C8D899E89BC014AEE05
:1038300050E02FEF3FEF0E94670C809144098823EE
:1038400001F18091370930E5839FC001112469851A
:103850007A850E94D74D8B01AB014E535F4F8D8906
:103860009E89BC012FEF3FEF0E94670C4AEE50E0AB
:10387000401B510B8D899E89BC012FEF3FEF0E94A9
:10388000670C0894A11CB11C4D895E894D5F5F4F88
:103890005E8B4D8BEA14FB040CF0BDCF5F815F5F44
:1038A0005F838B859C85680E791EAD81BE81A80FD4
:1038B000B91FBE83AD83EB81FC81E80FF91FFC8348
:1038C000EB8322E030E0C20ED31E3F8148853417DF
:1038D00008F436CF840E911C89819A8101969A83CF
:1038E0008983409709F0EDCE66960FB6F894DEBF57
:1038F0000FBECDBFCF91DF911F910F91FF90EF9041
:10390000DF90CF90BF90AF909F908F907F906F90FF
:103910005F904F903F902F900895EF92FF920F93FA
:103920001F938091FF0A882321F080E090E00E949D
:10393000570C1092FF0A89E792E060EA70E04AE5CE
:1039400050E021E00FEF1FEFEE24FF240E94180F3C
:103950008BE892E060EA70E042E850E021E00FE19D
:1039600010E00E94180F40918C0E50918D0E453141
:1039700051054CF1E091B90EF091BA0EE531F10527
:1039800014F181E04C325807F4F481E0EC32F8078E
:10399000D4F4CA014497BF014C5E5F4F9F010AE80F
:1039A00012E50E94230C6091B90E7091BA0E4091FD
:1039B0008C0E50918D0E9B012C5E3F4FCA016451BD
:1039C00070400E94230C1F910F91FF90EF9008957B
:1039D000EF92FF920F931F93CF93DF937C0180911F
:1039E000010D9091020D83309105B9F0843091055D
:1039F00034F48130910541F0029749F40BC08430D2
:103A0000910571F0059719F4C0E0DCEF0BC0CFEE23
:103A1000DBE708C0C0EED7E005C0CFE1D0E002C0D0
:103A2000C0E0D8EF809144098823C9F09091470CF9
:103A3000963011F0943099F48091440C843069F000
:103A4000963029F47EE9E72E72E0F72E06C0943016
:103A500021F464EBE62E62E0F62EC0E0D8EF80E0C1
:103A600090E00E94570C80E090E060E070E04FE34F
:103A700051E023E130E08E010E94230CC70160EA8F
:103A800070E042E050E021E000E010E07E010E94A2
:103A9000180FDF91CF911F910F91FF90EF90089534
:103AA0009F92AF92BF92CF92DF92EF92FF920F93CD
:103AB0001F938091FF0A882309F451C01092FF0AD6
:103AC0008091C90C90E08F7090708130910519F051
:103AD000029739F403C08DEC92E005C08BED92E0C3
:103AE00002C08AEE92E00E94E81C8FEF92E060E153
:103AF00070E04EE150E021E00FE110E0EE24FF2401
:103B00000E94B80E8AE093E06AEA70E04EE150E06D
:103B100021E00E94B80E84E193E060E170E048E5A6
:103B200050E021E00E94B80E80E293E06AEA70E083
:103B300048E550E021E00E94B80E8BE293E060E19E
:103B400070E042E950E021E00E94B80E80E393E08B
:103B50006AEA70E042E950E021E00E94B80E8091EC
:103B6000360C9091370C181619060CF0D8C000913D
:103B7000CF0C10E000781070000F111F8091CA0C5C
:103B8000080F111DB801882777FD8095982F209187
:103B9000D00C30E0442737FD4095542F0E94A44DAF
:103BA0002FEF30E040E050E00E94EA4D59016A01F9
:103BB000C8016EE87EE04AE050E00E94774E8EE851
:103BC0009EE069E373E00E94654E8EE89EE060E14E
:103BD00070E040E350E022E00FEF1FEFEE24FF24FF
:103BE0000E94B80E8091CB0CB5E09B2E899DC00140
:103BF00011246EE87EE04AE050E00E94774E8EE8A5
:103C00009EE06DE373E00E94654E8EE89EE06AEAF6
:103C100070E040E350E022E00E94B80EC5016EE87B
:103C20007EE04AE050E00E94774E8EE89EE069E335
:103C300073E00E94654E8EE89EE060E170E04AE627
:103C400050E022E00E94B80E8091CD0C899DC00109
:103C500011246EE87EE04AE050E00E94774E8EE844
:103C60009EE06DE373E00E94654E8EE89EE06AEA96
:103C700070E04AE650E022E00E94B80E6091CE0C5F
:103C80008EE89EE070E00E94D2188EE89EE060E12F
:103C900070E044EA50E022E00E94B80E8091CF0C20
:103CA00090E08F7790706EE87EE04AE050E00E94EE
:103CB000774E8EE89EE061E473E00E94654E8EE8E8
:103CC0009EE06AEA70E044EA50E022E00E94B80E0A
:103CD0008091C90C82958F70E82FF0E0E930F105F2
:103CE00019F400E01CEF0DC0E130F10519F40FEEFE
:103CF0001BE707C0309719F400EE17E002C000E0A0
:103D000018EFEE0FFF1FE353F84F8081918160EAB7
:103D100070E042ED50E021E0EE24FF2449C08EE83F
:103D20009EE066E473E00E94704E8EE89EE060E1E3
:103D300070E040E350E022E00FEF1FEFEE24FF249D
:103D40000E94B80E8EE89EE06AEA70E040E350E020
:103D500022E00E94B80E8EE89EE060E170E04AE644
:103D600050E022E00E94B80E8EE89EE06AEA70E021
:103D70004AE650E022E00E94B80E8EE89EE060E144
:103D800070E044EA50E022E00E94B80E8EE89EE027
:103D90006AEA70E044EA50E022E00E94B80E8CE447
:103DA00093E060EA70E042ED50E021E000E018EFBF
:103DB0000E94180F1F910F91FF90EF90DF90CF900E
:103DC000BF90AF909F900895CF92DF92EF92FF92B5
:103DD0000F931F93CF93DF93F894C7E2D9E0CC24DD
:103DE000DD2404E010E0C80168810E94AC4E899196
:103DF000C80ED11C0F5F1F4F89E0CA34D80799F74E
:103E0000C4E0DAE097E2E92EF12C8881198112955D
:103E1000107F180FC701612F0E94AC4EC10ED11C3C
:103E200022960894E11CF11C8AE0C431D80769F796
:103E30008FE290E0B6010E94C14E81E390E04EEE29
:103E40005FEF60EC70E00E94B94E80E090E060E0CF
:103E50000E94AC4E7894DF91CF911F910F91FF900B
:103E6000EF90DF90CF900895CF92DF92EF92FF9284
:103E70000F931F93DF93CF93CDB7DEB7E3970FB6C2
:103E8000F894DEBF0FBECDBF81E390E00E94A04E4C
:103E90006E5E7F4F804C904011F080E067C0CC2474
:103EA000DD2400E010E021E1E22EF12CEC0EFD1EFD
:103EB000C80104960E94984EF701E00FF11F80831D
:103EC000C80ED11C0F5F1F4F0332110589F77E0109
:103ED0000894E11CF11C07E210E0C8010E94984E12
:103EE000982F9F70F7019083982F92959F709183E0
:103EF000C80ED11C0F5F1F4F82E090E0E80EF91E44
:103F00000F32110551F78FE290E00E94A64EC816BD
:103F1000D90611F081E02AC020E030E0AE014F5E0A
:103F20005F4FF901E95DF64FDA01A20FB31F8C91E3
:103F300080832F5F3F4F2332310599F720E030E037
:103F4000AE014F5F5F4FF901EC5FF54FDA01A20F51
:103F5000B31F8C9180832F5F3F4F2031310599F73C
:103F600080E090E060E00E94AC4E82E0E3960FB605
:103F7000F894DEBF0FBECDBFCF91DF911F910F919F
:103F8000FF90EF90DF90CF900895CF93DF93282F8D
:103F900030E0F901EE0FFF1FE20FF31FEE0FFF1FDE
:103FA000EE0FFF1FEF52F34FC90153E0880F991F27
:103FB0005A95E1F78F57934F90878783FC0180E0F4
:103FC00090E01192019688309105D9F7E901CC0F64
:103FD000DD1FC20FD31FCC0FDD1FCC0FDD1FCF5253
:103FE000D34F81E08B8785E08983CE010E94B81191
:103FF0008823D9F7DF91CF910895DF92EF92FF9256
:104000000F931F93CF93DF93D82EC82FD0E0AE012C
:10401000440F551FFA01EC0FFD1FEE0FFF1FEE0FAF
:10402000FF1FED52F34FE080F18002811381C80140
:10403000B7016C527140804090406A3A7105810529
:10404000910508F0B8C02AE030E040E050E00E945E
:10405000EA4D203131050CF046C3F701EC52F14036
:1040600086EF9FEFAC01249FC001259F900D349FE8
:10407000900D1124E80FF91FE230F105A1F1E330B2
:10408000F10524F4319709F02EC308C0E330F1059F
:1040900009F44EC0349709F026C37AC0FE0183E0CC
:1040A000EE0FFF1F8A95E1F7EF57F34FE901CC0FB1
:1040B000DD1FC20FD31F13E0CC0FDD1F1A95E1F7F0
:1040C000C45FD24F40E050E0308120E08181B901EF
:1040D000680F711D699379934F5F5F4F329644303B
:1040E000510591F700C3FE01B3E0EE0FFF1FBA9533
:1040F000E1F7EF57F34FE901CC0FDD1FC20FD31FDC
:1041000073E0CC0FDD1F7A95E1F7CC5ED24F40E033
:1041100050E0308120E08181D901A80FB11DA99321
:10412000B9934F5F5F4F32964430510591F7DBC230
:10413000FE0163E0EE0FFF1F6A95E1F7EF57F34FC3
:10414000E901CC0FDD1FC20FD31F43E0CC0FDD1FF1
:104150004A95E1F7C45ED24F40E050E0708160E0E4
:104160008181DB01A80FB11DA993B9934F5F5F4F08
:1041700032964430510591F7232B09F0B4C2809157
:10418000450C882309F4AFC281E08093460CABC292
:10419000D901AA0FBB1FAF55B34FFE0183E0EE0F4D
:1041A000FF1F8A95E1F7EF57F34F80818C93818150
:1041B00011968C9398C2B4EFEB16B5EEFB06B6E001
:1041C0000B07B8E11B0709F46FC165EFE61665EE52
:1041D000F60666E0060768E1160724F578E2E716BA
:1041E000F1040105110509F4BCC089E2E816F104E7
:1041F0000105110544F4AEE1EA16F10401051105CB
:1042000009F071C24CC0B2E3EB16F10401051105CF
:1042100009F4EAC065E3E616F1040105110509F0A9
:1042200062C2FCC075EEE71670E5F7067FEF070780
:1042300078E1170709F45FC186EEE81680E5F80615
:104240008FEF080788E11807ACF4A4EFEA16A7EE91
:10425000FA06A6E00A07A8E11A0709F484C1B4EF38
:10426000EB16B8EEFB06B6E00B07B8E11B0709F04A
:104270003AC2DBC167EEE61660E5F6066FEF0607A9
:1042800068E1160709F496C178EEE71670E5F706BF
:104290007FEF070778E1170709F025C2EDC1DE01BE
:1042A00003E0AA0FBB1F0A95E1F7AF57B34F20E019
:1042B00030E08D91F901ED5FF24F80832F5F3F4F2A
:1042C00028303105B1F71092480C91E09093380CEA
:1042D0008091080D8F3F41F49093450C8FE593E05A
:1042E00090936D0A80936C0A2091090D221F22275A
:1042F000221F20934E0C8091D20E9091D30E8F3FAF
:10430000910551F18091CF0E882311F42223F9F009
:104310008091460990E0889F9001899F300D989F79
:10432000300D1124C901880F991F880F991F820F22
:10433000931F62E070E00E94D74D709561957F4FAA
:1043400062507F4F7093D30E6093D20ECCC1109207
:10435000D30E1092D20EC7C19093D30E8093D20E7B
:10436000C2C1B3E0CC0FDD1FBA95E1F7FE01ED57F6
:10437000F34F208130E040E050E020503040404892
:104380005040FE01EF57F34F808190E0A0E0B0E095
:10439000DC0199278827280F391F4A1F5B1F81815D
:1043A00090E0A0E0B0E0BA2FA92F982F8827280F1F
:1043B000391F4A1F5B1F20932F0C3093300C409302
:1043C000310C5093320C84E090E09093340C809345
:1043D000330C8091350C882309F085C181E08093EE
:1043E000350C8093FF0A7FC1FE0193E0EE0FFF1FA3
:1043F0009A95E1F7EF57F34FC9ECDCE0819189938F
:104400008CE0C13DD807D1F784E090E09093370C61
:104410008093360C81E08093390C65C183E0CC0F2A
:10442000DD1F8A95E1F7DE01AF57B34F8C91809382
:10443000AF0E11968C9111978093B00ECD57D34F3C
:1044400088818093B10E13968C9113978093B20E4E
:10445000FA01EE0FFF1FEE0FFF1FEB57F34F208106
:10446000822F8F708093B30E822F90E080739070B4
:1044700074E0959587957A95E1F78093B40E22952F
:104480002695269523702093B50E15968C91159739
:104490008093B60E16968C9116978093B70E17964A
:1044A0008C918093B80E1FC163E0CC0FDD1F6A951D
:1044B000E1F7FE01EF57F34F908180E02181820FF9
:1044C000911D9093610C8093600CCD57D34F9881D0
:1044D00080E02381820F911D9093630C8093620C86
:1044E000FA01EE0FFF1FEE0FFF1FEB57F34F808116
:1044F0008093640CF8C093E0CC0FDD1F9A95E1F730
:10450000DE01AF57B34F9C9180E011962C9111972B
:10451000820F911D90935B0C80935A0CCD57D34F13
:10452000988180E013962C911397820F911D9093A0
:104530005D0C80935C0CFA01EE0FFF1FEE0FFF1F66
:10454000EB57F34F808180935E0C15968C9180938E
:104550005F0C8CE090E090933B0C80933A0C81E0F0
:1045600080937B0CC0C013E0CC0FDD1F1A95E1F7E0
:10457000FE01EF57F34F908180E02181820F911D62
:1045800090936C0C80936B0CCD57D34F988180E047
:104590002381820F911D90936E0C80936D0CFA0114
:1045A000EE0FFF1FEE0FFF1FEB57F34F808180933D
:1045B0006F0C99C073E0CC0FDD1F7A95E1F7DE0137
:1045C000AF57B34F9C9180E011962C911197820FB9
:1045D000911D9093660C8093650CCD57D34F9881B5
:1045E00080E013962C911397820F911D9093680C85
:1045F0008093670CFA01EE0FFF1FEE0FFF1FEB57C2
:10460000F34F80818093690C15968C9180936A0C8E
:104610008CE090E090933D0C80933C0C8091030BD8
:10462000823008F060C082E05CC033E0CC0FDD1F58
:104630003A95E1F7FE01EF57F34F908180E0218139
:10464000820F911D9093770C8093760CCD57D34FAA
:10465000988180E02381820F911D9093790C809343
:10466000780CFA01EE0FFF1FEE0FFF1FEB57F34F11
:10467000808180937A0C37C083E0CC0FDD1F8A9550
:10468000E1F7DE01AF57B34F9C9180E011962C917A
:104690001197820F911D9093710C8093700CCD57E0
:1046A000D34F988180E013962C911397820F911D20
:1046B0009093730C8093720CFA01EE0FFF1FEE0FB4
:1046C000FF1FEB57F34F80818093740C15968C91EC
:1046D0008093750C8CE090E090933F0C80933E0C9F
:1046E00083E08093030B8D2D0E94C51FDF91CF9136
:1046F0001F910F91FF90EF90DF900895AF92BF92BE
:10470000CF92DF92EF92FF920F931F93DF93CF939D
:10471000CDB7DEB72C970FB6F894DEBF0FBECDBF76
:1047200031E030934F0C598748873C876B837C83FB
:104730008D839E832F8382E08A837E010894E11C0F
:10474000F11CC7010E94B8118823D9F77E01089493
:10475000E11CF11CC7010E9425118130D9F300230F
:1047600009F442C0602F70E080E090E00E94364B78
:104770005B016C0120E030E04AE755E40E944E48BE
:104780007B018C0120E030E040E85FE30E94544A66
:1047900088231CF461E070E024C0C801B70120E068
:1047A0003FEF4FE757E40E94F4491816B4F4C601EE
:1047B000B50120E030E040E251E40E944E480E9402
:1047C000784680E991E005C0FC013197F1F761502E
:1047D000704061157105C1F707C0C801B7010E949B
:1047E0007846CB010197F1F710924F0C2C960FB63B
:1047F000F894DEBF0FBECDBFCF91DF911F910F9117
:10480000FF90EF90DF90CF90BF90AF9008950F93FF
:104810008091530C882361F581E08093C10C209135
:10482000540C3091550CF901E95DF64F808180936D
:10483000C20C2930310569F0293031057CF02A306D
:10484000310539F02B30310531F02C30310531F4A0
:1048500002C082E001C083E08093C10C6FE170E090
:1048600080E090E041EC5CE022E000E00E947E23EA
:104870000F910895BF92CF92DF92EF92FF920F9324
:104880001F93CF93DF93B82EC0918C0ED0918D0ED5
:104890002091A70A3091A80AE091AB0AF091AC0AE6
:1048A000CF0162E070E00E94D74DC901861B970BD3
:1048B000C817D9070CF4C2C4CF0162E070E00E94AF
:1048C000D74D260F371F2C173D070CF4B7C4209186
:1048D000B90E3091BA0E8091A90A9091AA0A2817B0
:1048E00039070CF4ABC48096821793070CF4A6C466
:1048F0008091530C81508093530C823039F4809115
:10490000450C882319F081E08093530C8091530C5F
:10491000813009F04CC48091C90C882309F047C448
:104920003AC0CF0162E070E00E94D74D260F371FDA
:104930002C173D070CF496C42091B90E3091BA0E95
:104940008091B40A9091B50A281739070CF48AC4EB
:104950008096821793070CF485C48091530C8F5F67
:104960008093530C813039F48091C90C882319F459
:1049700082E08093530C8091530C823039F4809103
:10498000450C882319F083E08093530C8091530CDD
:10499000833008F40CC41092530C09C42091BD0A52
:1049A0003091BE0AE091C10AF091C20ACF0162E0E3
:1049B00070E00E94D74DC901861B970BC817D90715
:1049C0000CF442C0CF0162E070E00E94D74D260F88
:1049D000371F2C173D07C4F12091B90E3091BA0E44
:1049E0008091BF0A9091C00A281739076CF1809610
:1049F000821793074CF12091540C3091550C2150A3
:104A000030403093550C2093540C8091450C8823F2
:104A100079F0F901E057F64F922F432F8081215012
:104A2000304031978823C1F39093540C4093550C38
:104A30008091540C9091550C97FF06C082E290E053
:104A40009093550C8093540C2091C80A3091C90A58
:104A5000E091CC0AF091CD0ACF0162E070E00E94B3
:104A6000D74DC901861B970BC817D9070CF43FC057
:104A7000CF0162E070E00E94D74D260F371F2C1740
:104A80003D07ACF12091B90E3091BA0E8091CA0A5F
:104A90009091CB0A2817390754F180968217930713
:104AA00034F12091540C3091550C2F5F3F4F3093CF
:104AB000550C2093540C8091450C882371F0F9011A
:104AC000E057F64F922F432F81912F5F3F4F88235E
:104AD000C9F39093540C4093550C8091540C9091D1
:104AE000550C839721F41092550C1092540C0091A0
:104AF000D30A1091D40AE090D70AF090D80AC701DF
:104B000062E070E00E94D74D6801C61AD70ACC1542
:104B1000DD050CF4ADC3C70162E070E00E94D74D23
:104B2000600F711F6C177D070CF4A2C32091B90EA2
:104B30003091BA0E8091D50A9091D60A281739077C
:104B40000CF496C38096821793070CF491C31FC090
:104B5000CF0162E070E00E94D74D260F371F2C175F
:104B60003D070CF424C32091B90E3091BA0E809108
:104B7000E00A9091E10A281739070CF418C38096CF
:104B8000821793070CF413C3CC15DD05E4F0C701BD
:104B900062E070E00E94D74D060F171F0C171D072B
:104BA00094F02091B90E3091BA0E8091D50A90916F
:104BB000D60A281739073CF08096821793071CF015
:104BC0002FEF3FEF02C021E030E06091540C709174
:104BD000550C6431710549F42130310561F580913E
:104BE0003B098F3709F04DC04AC06331710519F593
:104BF0002130310569F480913A098F3F09F041C0B5
:104C000080913B09806880933B0910923A0937C034
:104C10004FEF2F3F340779F480913A09882359F4F4
:104C200080913B0987FF2DC08F7780933B098FEFE1
:104C300080933A0924C06531710519F52130310599
:104C400061F480913C098F3F41F480913D09806877
:104C500080933D0910923C0912C08FEF2F3F380717
:104C600081F480913C09882361F480913D0987FF9C
:104C700008C08F7780933D098FEF80933C0920E037
:104C800030E0FB01E359F64F8081A091450CAA2347
:104C900019F4482F50E012C0FB01E057F64F808115
:104CA000482F50E08091460C882341F06630710512
:104CB00029F484E0809350094CE050E0FB01E95D69
:104CC000F64F8081280F311DFB01E65BF64F808196
:104CD00090E0281739072CF0CA01241735070CF487
:104CE000C901FB01E95DF64F8083AA2341F06730DB
:104CF000710529F4843018F083E080932E096950FF
:104D000070406430710510F40E9407248091540CA7
:104D10009091550C4F9709F04AC28091CF0E88238D
:104D200021F480914E0C8823F9F08091460990E09F
:104D3000889F9001899F300D989F300D1124C901E3
:104D4000880F991F880F991F820F931F62E070E0F0
:104D50000E94D74D709561957F4F62507F4F709341
:104D6000D30E6093D20E23C21092D30E1092D20EA5
:104D70001EC2813009F00FC12091BD0A3091BE0AD8
:104D8000E091C10AF091C20ACF0162E070E00E9496
:104D9000D74DC901861B970BC817D90754F1CF010E
:104DA00062E070E00E94D74D260F371F2C173D0799
:104DB00004F12091B90E3091BA0E8091BF0A909102
:104DC000C00A28173907ACF08096821793078CF039
:104DD0008091580C9091590C01979093590C8093A5
:104DE000580C97FF06C089E090E09093590C80938F
:104DF000580C2091C80A3091C90AE091CC0AF09170
:104E0000CD0ACF0162E070E00E94D74DC901861B38
:104E1000970BC817D90744F1CF0162E070E00E94F8
:104E2000D74D260F371F2C173D07F4F02091B90EF0
:104E30003091BA0E8091CA0A9091CB0A281739078F
:104E40009CF08096821793077CF08091580C90918B
:104E5000590C01969093590C8093580C0A9721F4A1
:104E60001092590C1092580C0091D30A1091D40A48
:104E7000E090D70AF090D80AC70162E070E00E9483
:104E8000D74D6801C61AD70ACC15DD050CF405C24A
:104E9000C70162E070E00E94D74D600F711F6C1770
:104EA0007D070CF4FAC12091B90E3091BA0E8091B1
:104EB000D50A9091D60A281739070CF4EEC18096CE
:104EC000821793070CF4E9C11FC0CF0162E070E0C4
:104ED0000E94D74D260F371F2C173D070CF467C1D2
:104EE0002091B90E3091BA0E8091E00A9091E10ABA
:104EF000281739070CF45BC18096821793070CF4CE
:104F000056C1CC15DD05E4F0C70162E070E00E94F7
:104F1000D74D060F171F0C171D0794F02091B90EDF
:104F20003091BA0E8091D50A9091D60A2817390788
:104F30003CF08096821793071CF02FEF3FEF02C0E2
:104F400021E030E08091C90C8F70813029F48CE32E
:104F50008093DA068093DB06A091580CB091590C2F
:104F6000FD01E155F14F8081280F311DFD01E25314
:104F7000F94F808190E0FD01E852F94FE081281758
:104F8000390734F0F0E0C901E217F3070CF4CF0160
:104F9000A155B14F0BC1823009F009C12091C80A57
:104FA0003091C90AE091CC0AF091CD0ACF0162E0BC
:104FB00070E00E94D74DC901861B970BC817D9070F
:104FC0005CF1CF0162E070E00E94D74D260F371FE1
:104FD0002C173D070CF12091B90E3091BA0E80913B
:104FE000CA0A9091CB0A28173907B4F08096821725
:104FF000930794F08091560C9091570C0196803154
:10500000910514F08FE090E097FF02C080E090E0FF
:105010009093570C8093560C2091BD0A3091BE0A94
:10502000E091C10AF091C20ACF0162E070E00E94F3
:10503000D74DC901861B970BC817D9075CF1CF0163
:1050400062E070E00E94D74D260F371F2C173D07F6
:105050000CF12091B90E3091BA0E8091BF0A909157
:10506000C00A28173907B4F080968217930794F086
:105070008091560C9091570C01978031910514F056
:105080008FE090E097FF02C080E090E09093570C93
:105090008093560C2091D30A3091D40AE091D70A1C
:1050A000F091D80ACF0162E070E00E94D74DC901AB
:1050B000861B970BC817D907B4F1CF0162E070E0E7
:1050C0000E94D74D260F371F2C173D0764F1209102
:1050D000B90E3091BA0E8091D50A9091D60A281750
:1050E00039070CF1809682179307ECF02091560C4B
:1050F0003091570CF901EC5FF54F808190E00197FA
:105100004FEF8F3F940719F480E090E005C08D3099
:10511000910514F08CE090E0F901EC5FF54F80838D
:10512000843008F410822091DE0A3091DF0AE09189
:10513000E20AF091E30ACF0162E070E00E94D74DED
:10514000C901861B970BC817D9078CF1CF0162E004
:1051500070E00E94D74D260F371F2C173D073CF1FA
:105160002091B90E3091BA0E8091E00A9091E10A37
:1051700028173907E4F0809682179307C4F0A091AE
:10518000560CB091570CFD01EC5FF54F808190E01B
:105190000196843091051CF484E090E005C08D30C8
:1051A000910514F08CE090E0AC5FB54F8C93C0910A
:1051B0008C0ED0918D0E2091F40A3091F50AE09179
:1051C000F80AF091F90ACF0162E070E00E94D74D31
:1051D000C901861B970BC817D9070CF473C0CF0100
:1051E00062E070E00E94D74D260F371F2C173D0755
:1051F0000CF468C02091B90E3091BA0E8091F60A75
:105200009091F70A281739070CF45CC08096821732
:1052100093070CF457C0BB2009F054C085E090E020
:105220009093AD0E8093AC0E1092500C1092570CD0
:105230001092560C81E08093FF0A44C02091B20A7C
:105240003091B30AE091B60AF091B70ACF0162E05B
:1052500070E00E94D74DC901861B970BC817D9076C
:105260000CF05FCB8091530C882309F497CB81CD50
:105270002091DE0A3091DF0AE091E20AF091E30A20
:10528000CF0162E070E00E94D74DC901861B970BE9
:10529000C817D9070CF48BCF5BCC2091DE0A309174
:1052A000DF0AE091E20AF091E30ACF0162E070E0E8
:1052B0000E94D74DC901861B970BC817D9070CF45C
:1052C00076CF03CEDF91CF911F910F91FF90EF909A
:1052D000DF90CF90BF900895EF92FF921F93CF93EE
:1052E000DF938091D20E9091D30E8F3F910509F4F8
:1052F00046C3E090D00EF090D10E23E0E216F10408
:105300000CF43DC34091D60E5091D70E8091D40E2F
:105310009091D50E841B950B97FF03C090958195B6
:105320009F4F0B970CF02BC32091BD0E3091BE0EFA
:105330008091BB0E9091BC0E821B930B97FF03C014
:10534000909581959F4F0B970CF019C38091D80EC3
:105350009091D90EBA01681B790BCB0177FF03C07E
:10536000909581959F4F0B970CF009C38091BF0ECC
:105370009091C00EA901481B590BCA0157FF03C0E9
:10538000909581959F4F0B970CF0F9C28091800CFE
:10539000882309F471C1C0918C0ED0918D0E20919B
:1053A000350A3091360AE091390AF0913A0ACF0174
:1053B00062E070E00E94D74DC901861B970BC817A9
:1053C000D9075CF1CF0162E070E00E94D74D260F53
:1053D000371F2C173D070CF12091B90E3091BA0EF2
:1053E0008091370A9091380A28173907B4F08096CF
:1053F0008217930794F080912D0C90912E0C855379
:105400009A4059F481E090E09093AD0E8093AC0EF9
:105410001092800C81E08093FF0A20914D0A309118
:105420004E0AE091510AF091520ACF0162E070E019
:105430000E94D74DC901861B970BC817D9075CF18D
:10544000CF0162E070E00E94D74D260F371F2C1766
:105450003D070CF12091B90E3091BA0E80914F0AA0
:105460009091500A28173907B4F080968217930755
:1054700094F080912D0C90912E0C8D549A4059F4FB
:1054800082E090E09093AD0E8093AC0E1092800C71
:1054900081E08093FF0A2091200A3091210AE09157
:1054A000240AF091250ACF0162E070E00E94D74DF6
:1054B000C901861B970BC817D9070CF450C0CF0140
:1054C00062E070E00E94D74D260F371F2C173D0772
:1054D0000CF445C02091B90E3091BA0E8091220A89
:1054E0009091230A28173907D4F1809682179307E1
:1054F000B4F180912D0C90912E0C80529A4079F548
:105500008091010D9091020D892B21F08091450C25
:10551000882329F1489B02C0659921C083E090E06F
:105520009093AD0E8093AC0E81E08093500C8091EF
:10553000450C882379F0E7E2F9E0A0E9B9E09C9115
:105540008081981708F490833196119689E0EA34A7
:10555000F807A9F71092800C81E08093FF0A209150
:10556000640A3091650AE091680AF091690ACF01F6
:1055700062E070E00E94D74DC901861B970BC817E7
:10558000D907DCF1CF0162E070E00E94D74D260F11
:10559000371F2C173D078CF12091B90E3091BA0EB0
:1055A0008091660A9091670A2817390734F180962E
:1055B0008217930714F180912D0C90912E0C845634
:1055C0009A40D9F48091450C882339F087E290E025
:1055D0009093AD0E8093AC0E10C08FEF90E090933F
:1055E000D30E8093D20E88E790E06FEF0E94AC4E0E
:1055F00080E090E060E00E94AC4EC0918C0ED091B3
:105600008D0E20917C0A30917D0AE091800AF09104
:10561000810ACF0162E070E00E94D74DC901861B6C
:10562000970BC817D9070CF4A6C1CF0162E070E050
:105630000E94D74D260F371F2C173D070CF49BC136
:105640002091B90E3091BA0E80917E0A90917F0A16
:10565000281739070CF48FC18096821793070CF432
:105660008AC180912D0C90912E0C8C579A4009F094
:1056700082C11092800C7CC18091500C882321F053
:1056800080E00E943A2477C19091470C9923A9F0B9
:1056900080914409882321F0943079F0963069F0A4
:1056A000913120F080E00E94001762C186E090E016
:1056B0009093AD0E8093AC0E5BC11091440C1430EE
:1056C00009F09EC0C0918C0ED0918D0EE0918C0A95
:1056D000F0918D0A2091900A3091910AC90162E0FF
:1056E00070E00E94D74DCF01861B970BC817D907D2
:1056F000CCF1C90162E070E00E94D74DE60FF71FC0
:10570000EC17FD077CF14091B90E5091BA0E8091D3
:105710008E0A90918F0A4817590724F160E080960D
:10572000841795070CF461E06623E1F48091450C41
:105730008823C1F42091560C3091570C422F50E031
:105740002F5F3F4F2031310514F020E030E0241767
:10575000350709F450C0F901EC5FF54F80818823CB
:1057600079F349C0E0919C0AF0919D0A2091A00A2A
:105770003091A10AC90162E070E00E94D74DCF01CB
:10578000861B970BC817D907DCF1C90162E070E0EE
:105790000E94D74DE60FF71FEC17FD078CF14091E3
:1057A000B90E5091BA0E80919E0A90919F0A4817A7
:1057B000590734F160E08096841795070CF461E096
:1057C0006623F1F48091450C8823D1F42091560C86
:1057D0003091570C422F50E02150304037FF02C02B
:1057E0002FE030E02417350731F0F901EC5FF54F79
:1057F0008081882389F33093570C2093560CBBC0CB
:1058000080912D0C90912E0C892B09F0B4C05EE193
:10581000E516F1040CF0AFC080918C0E90918D0EC6
:10582000813A91050CF444C0812F8F5F8093440C22
:10583000813039F48091C90C882319F482E0809377
:10584000440C8091440C823039F480917B0C882385
:1058500019F483E08093440C8091440C833049F424
:105860008091510C9091520C892B19F484E0809313
:10587000440C8091440C843049F48091510C9091F7
:10588000520C892B19F485E08093440C8091440CD0
:10589000853011F41092440C8091440C882309F057
:1058A0005DC08091380C882309F058C081E054C055
:1058B000812F81508093440C882339F48091380CD7
:1058C000882319F48FEF8093440C8091440C87FF58
:1058D00003C084E08093440C8091440C843049F4EC
:1058E0008091510C9091520C892B19F483E0809394
:1058F000440C8091440C833049F48091510C909178
:10590000520C892B19F482E08093440C8091440C52
:10591000823039F480917B0C882319F481E08093E4
:10592000440C8091440C813031F48091C90C88235F
:1059300011F41092440C8091440C882379F48091E6
:10594000450C882359F080912E09882339F48091E1
:10595000350C882319F484E08093440C8091440C26
:10596000992787FD9095212F30E08217930719F032
:1059700081E08093FF0A10922E0C10922D0CDF9183
:10598000CF911F91FF90EF900895CF92DF92EF9209
:10599000FF920F93CF93DF9364E0C62E6AE0D62E7A
:1059A00051ECE52E5CE0F52EF601D7018181829560
:1059B000807F9081890F8D9332968AE0E431F807D9
:1059C000A9F764E270E080E090E041EC5CE028E060
:1059D00004E10E947E2320E030E0F901EF53F34F11
:1059E000D901A95DB64F8C9180832F5F3F4F28303E
:1059F000310599F760E270E080E090E041EC5CE016
:105A000028E004E10E947E23CFE2D9E0E1ECFCE053
:105A100089918193A9E0C733DA07D1F761E270E099
:105A200080E090E041EC5CE028E004E10E947E230D
:105A3000E1ECFCE089918193B9E0CF33DB07D1F74A
:105A400062E270E080E090E041EC5CE028E004E19C
:105A50000E947E23FE018191D7018D937D01B9E0E3
:105A6000E734FB07C1F763E270E080E090E041ECCF
:105A70005CE028E004E10E947E238091AF0E8093D9
:105A8000C10C8091B00E8093C20C8091B10E8093B6
:105A9000C30C8091B20E8093C40C9091B40E929579
:105AA000907F8091B50E8295880F880F807C980F2B
:105AB0008091B30E980F9093C50C8091B60E809391
:105AC000C60C8091B70E8093C70C8091B80E80935E
:105AD000C80C64E370E080E090E041EC5CE028E01A
